:020000040800F2
:1000000000800020F92900088717000889170008D8
:100010008B1700088D1700088F17000800000000DC
:100020000000000000000000000000009117000820
:1000300093170008000000009517000897170008A4
:10004000492A0008492A000899170008492A000887
:10005000492A0008492A0008492A0008492A0008B4
:10006000492A0008492A0008492A0008492A0008A4
:10007000492A0008492A0008492A0008A917000847
:10008000492A0008492A0008492A0008492A000884
:1000900000000000492A0008492A0008492A0008EF
:1000A000492A0008492A0008492A0008492A000864
:1000B000492A0008492A0008492A0008492A000854
:1000C000492A0008492A0008492A0008492A000844
:1000D000492A0008B9170008492A0008492A0008D7
:1000E000492A0008492A0008C9170008492A0008B7
:1000F000492A00080000000000000000492A00080A
:10010000492A0008492A0008D9170008492A000886
:10011000492A0008492A0008492A0008492A0008F3
:10012000492A0008492A0008492A0008492A0008E3
:08013000492A0008492A0008D1
:1001380010B5054C237833B9044B13B10448AFF319
:1001480000800123237010BD28010020000000005A
:100158007021010808B5034B1BB103490348AFF3ED
:10016800008008BD000000002C010020702101085B
:10017800034613F8012B002AFBD1181A01387047DF
:1001880070B54FF0FF0C4CF4E06C1CEA11541DBF25
:100198001CEA135594EA0C0F95EA0C0F00F0DEF8F0
:1001A8002C4481EA030621EA4C5123EA4C5350EAD5
:1001B800013518BF52EA033541F4801143F4801326
:1001C80038D0A0FB02CE4FF00005E1FB02E506F0B7
:1001D8000042E0FB03E54FF00006E1FB03569CF00C
:1001E800000F18BF4EF0010EA4F1FF04B6F5007F12
:1001F80064F5407404D25FEA4E0E6D4146EB060684
:1002080042EAC62141EA55514FEAC52040EA5E500C
:100218004FEACE2EB4F1FD0C88BFBCF5E06F1ED8B6
:10022800BEF1004F08BF5FEA500E50F1000041EBED
:10023800045170BD06F0004646EA010140EA02009A
:1002480081EA0301B4EB5C04C2BFD4EB0C0541EABC
:10025800045170BD41F480114FF0000E013C00F3D1
:10026800AB8014F1360FDEBF002001F0004170BDF5
:10027800C4F10004203C35DA0C341BDC04F114040E
:10028800C4F1200500FA05F320FA04F001FA05F29A
:1002980040EA020001F0004221F0004110EBD37067
:1002A80021FA04F642EB06015EEA430E08BF20EA93
:1002B800D37070BDC4F10C04C4F1200500FA04F336
:1002C80020FA05F001FA04F240EA020001F00041C8
:1002D80010EBD37041F100015EEA430E08BF20EA3B
:1002E800D37070BDC4F1200500FA05F24EEA020E83
:1002F80020FA04F301FA05F243EA020321FA04F0B2
:1003080001F0004121FA04F220EA020000EBD37068
:100318005EEA430E08BF20EAD37070BD94F0000F68
:100328000FD101F00046400041EB010111F4801F9C
:1003380008BF013CF7D041EA060195F0000F18BF4D
:10034800704703F00046520043EB030313F4801F89
:1003580008BF013DF7D043EA0603704794EA0C0F43
:100368000CEA135518BF95EA0C0F0CD050EA410659
:1003780018BF52EA4306D1D181EA030101F00041D6
:100388004FF0000070BD50EA410606BF10461946FE
:1003980052EA430619D094EA0C0F02D150EA01360A
:1003A80013D195EA0C0F05D152EA03361CBF10464B
:1003B80019460AD181EA030101F0004141F0FE41EA
:1003C80041F470014FF0000070BD41F0FE4141F46E
:1003D800780170BD4FF0FF0C1CEAD0521EBF1CEA1A
:1003E800D15392EA0C0F93EA0C0F6FD01A4480EAAB
:1003F800010C400218BF5FEA41211ED04FF0006394
:1004080043EA501043EA5111A0FB01310CF00040BF
:10041800B1F5000F3EBF490041EAD3715B0040EAE5
:10042800010062F17F02FD2A1DD8B3F1004F40EBB5
:10043800C25008BF20F00100704790F0000F0CF088
:10044800004C08BF49024CEA502040EA51207F3A4C
:10045800C2BFD2F1FF0340EAC250704740F4000027
:100468004FF00003013A5DDC12F1190FDCBF00F018
:1004780000407047C2F10002410021FA02F1C2F1C6
:10048800200200FA02FC5FEA310040F1000053EA62
:100498004C0308BF20EADC70704792F0000F00F0B0
:1004A800004C02BF400010F4000F013AF9D040EAB6
:1004B8000C0093F0000F01F0004C02BF490011F44A
:1004C800000F013BF9D041EA0C018FE70CEAD15348
:1004D80092EA0C0F18BF93EA0C0F0AD030F0004CC8
:1004E80018BF31F0004CD8D180EA010000F000407C
:1004F800704790F0000F17BF90F0004F084691F03A
:10050800000F91F0004F14D092EA0C0F01D1420273
:100518000FD193EA0C0F03D14B0218BF084608D13C
:1005280080EA010000F0004040F0FE4040F4000086
:10053800704740F0FE4040F44000704781F00041B1
:1005480002E000BF83F0004330B54FEA41044FEAB0
:10055800430594EA050F08BF90EA020F1FBF54EA4B
:10056800000C55EA020C7FEA645C7FEA655C00F0E7
:10057800E2804FEA5454D4EB5555B8BF6D420CDDB8
:100588002C4480EA020281EA030382EA000083EA3B
:10059800010180EA020281EA0303362D88BF30BDDB
:1005A80011F0004F4FEA01314FF4801C4CEA113131
:1005B80002D0404261EB410113F0004F4FEA033390
:1005C8004CEA133302D0524263EB430394EA050F1B
:1005D80000F0A780A4F10104D5F1200E0DDB02FA8A
:1005E8000EFC22FA05F2801841F1000103FA0EF21E
:1005F800801843FA05F359410EE0A5F120050EF1E4
:10060800200E012A03FA0EFC28BF4CF0020C43FA14
:1006180005F3C01851EBE37101F0004507D54FF021
:10062800000EDCF1000C7EEB00006EEB0101B1F571
:10063800801F1BD3B1F5001F0CD349085FEA3000B7
:100648004FEA3C0C04F101044FEA445212F5800FC2
:1006580080F09A80BCF1004F08BF5FEA500C50F15F
:10066800000041EB045141EA050130BD5FEA4C0C42
:10067800404141EB0101013C28BFB1F5801FE9D29F
:1006880091F0000F04BF01460020B1FA81F308BFC2
:100698002033A3F10B03B3F120020CDA0C3208DD8E
:1006A80002F1140CC2F10C0201FA0CF021FA02F169
:1006B8000CE002F11402D8BFC2F1200C01FA02F1D9
:1006C80020FA0CFCDCBF41EA0C019040E41AA2BFFE
:1006D80001EB0451294330BD6FEA04041F3C1CDAC6
:1006E8000C340EDC04F11404C4F1200220FA04F0E6
:1006F80001FA02F340EA030021FA04F345EA030190
:1007080030BDC4F10C04C4F1200220FA02F001FA51
:1007180004F340EA0300294630BD21FA04F02946D3
:1007280030BD94F0000F83F4801306BF81F480116C
:100738000134013D4EE77FEA645C18BF7FEA655CDF
:1007480029D094EA050F08BF90EA020F05D054EAB1
:10075800000C04BF1946104630BD91EA030F1EBFB6
:100768000021002030BD5FEA545C05D140004941BA
:1007780028BF41F0004130BD14F580043CBF01F5AD
:10078800801130BD01F0004545F0FE4141F4700193
:100798004FF0000030BD7FEA645C1ABF194610466E
:1007A8007FEA655C1CBF0B46024650EA013406BF6F
:1007B80052EA033591EA030F41F4002130BD00BF2E
:1007C80090F0000F04BF0021704730B54FF48064EB
:1007D80004F132044FF000054FF0000150E700BF6C
:1007E80090F0000F04BF0021704730B54FF48064CB
:1007F80004F1320410F0004548BF40424FF00001B8
:100808003EE700BF42004FEAE2014FEA31014FEAFA
:1008180002701FBF12F07F4393F07F4F81F0605149
:10082800704732F07F4208BF704793F07F4F04BF94
:1008380041F40021704730B54FF4607401F0004571
:1008480021F000411CE700BF50EA010208BF7047D1
:1008580030B54FF000050AE050EA010208BF7047C2
:1008680030B511F0004502D5404261EB41014FF42B
:10087800806404F132045FEA915C3FF4D8AE4FF033
:1008880003025FEADC0C18BF03325FEADC0C18BF16
:10089800033202EBDC02C2F1200300FA03FC20FA67
:1008A80002F001FA03FE40EA0E0021FA02F11444B4
:1008B800BDE600BF4FF0FF3C06E000BF4FF0010C63
:1008C80002E000BF4FF0010C4DF804CD4FEA410C97
:1008D8007FEA6C5C4FEA430C18BF7FEA6C5C1BD064
:1008E80001B050EA410C0CBF52EA430C91EA030FE5
:1008F80002BF90EA020F0020704710F1000F91EA42
:10090800030F58BF994208BF90422CBFD8176FEA0F
:10091800E37040F0010070474FEA410C7FEA6C5CDD
:1009280002D150EA013C07D14FEA430C7FEA6C5CE4
:10093800D6D152EA033CD3D05DF8040B704700BF10
:100948008446104662468C461946634600E000BF5E
:1009580001B5FFF7B7FF002848BF10F1000F01BD30
:100968004DF808EDFFF7F4FF0CBF012000205DF8FB
:1009780008FB00BF4DF808EDFFF7EAFF34BF012080
:1009880000205DF808FB00BF4DF808EDFFF7E0FF19
:1009980094BF012000205DF808FB00BF4DF808ED6A
:1009A800FFF7CEFF94BF012000205DF808FB00BFD1
:1009B8004DF808EDFFF7C4FF34BF012000205DF8B3
:1009C80008FB00BF4FEA410212F5001215D211D5FB
:1009D8006FF47873B3EB625212D94FEAC12343F034
:1009E800004343EA505311F0004F23FA02F018BFB6
:1009F800404270474FF00000704750EA013005D17F
:100A080011F0004008BF6FF0004070474FF0000041
:100A1800704700BF4A0011D212F5001211D20DD54D
:100A28006FF47873B3EB62520ED44FEAC12343F0EC
:100A3800004343EA505323FA02F070474FF0000096
:100A4800704750EA013002D14FF0FF3070474FF045
:100A5800000070474FEA4102B2F1E04324BFB3F50A
:100A6800001CDCF1FE5C0DD901F0004C4FEAC0021D
:100A78004CEA5070B2F1004F40EB830008BF20F001
:100A88000100704711F0804F21D113F13872BCBFBB
:100A980001F00040704741F480114FEA5252C2F110
:100AA8001802C2F1200C10FA0CF320FA02F018BF59
:100AB80040F001004FEAC1234FEAD32303FA0CFCAC
:100AC80040EA0C0023FA02F34FEA4303CCE77FEA3B
:100AD800625307D150EA01331EBF4FF0FE4040F485
:100AE8004000704701F0004040F0FE4040F4000034
:100AF800704700BF80F0004002E000BF81F0004175
:100B080042001FBF5FEA410392EA030F7FEA226CAB
:100B18007FEA236C6AD04FEA1262D2EB1363C1BF3B
:100B2800D218414048404140B8BF5B42192B88BFAA
:100B3800704710F0004F40F4000020F07F4018BFCD
:100B4800404211F0004F41F4000121F07F4118BFED
:100B5800494292EA030F3FD0A2F1010241FA03FC95
:100B680010EB0C00C3F1200301FA03F100F000437D
:100B780002D5494260EB4000B0F5000F13D3B0F145
:100B8800807F06D340084FEA310102F10102FE2AB4
:100B980051D2B1F1004F40EBC25008BF20F0010024
:100BA80040EA03007047490040EB0000013A28BFC3
:100BB800B0F5000FEDD2B0FA80FCACF1080CB2EB46
:100BC8000C0200FA0CF0AABF00EBC25052421843C4
:100BD800BCBFD0401843704792F0000F81F4000169
:100BE80006BF80F400000132013BB5E74FEA41033C
:100BF8007FEA226C18BF7FEA236C21D092EA030FA8
:100C080004D092F0000F08BF0846704790EA010F21
:100C18001CBF0020704712F07F4F04D1400028BF4E
:100C280040F00040704712F100723CBF00F5000030
:100C3800704700F0004343F0FE4040F40000704766
:100C48007FEA226216BF08467FEA23630146420212
:100C580006BF5FEA412390EA010F40F48000704725
:100C68004FF0000304E000BF10F0004348BF4042CB
:100C78005FEA000C08BF704743F0964301464FF007
:100C880000001CE050EA010208BF70474FF0000363
:100C98000AE000BF50EA010208BF704711F00043A4
:100CA80002D5404261EB41015FEA010C02BF844674
:100CB8000146002043F0B64308BFA3F18053A3F5D3
:100CC8000003BCFA8CF2083AA3EBC25310DB01FA1A
:100CD80002FC634400FA02FCC2F12002BCF1004F9E
:100CE80020FA02F243EB020008BF20F0010070472F
:100CF80002F1200201FA02FCC2F1200250EA4C0083
:100D080021FA02F243EB020008BF20EADC707047C8
:100D18004FEA4002B2F1FE4F0FD34FF09E03B3EB00
:100D280012620DD94FEA002343F0004310F0004F40
:100D380023FA02F018BF404270474FF00000704796
:100D480012F1610F01D1420205D110F0004008BF35
:100D58006FF0004070474FF00000704753B94AB930
:100D6800002908BF00281CBF4FF0FF314FF0FF30AB
:100D780000F074B9ADF1080C6DE904CE00F006F886
:100D8800DDF804E0DDE9022304B070472DE9F047FF
:100D9800089E0D4604468846002B4DD18A4294464B
:100DA80068D9B2FA82F252B101FA02F3C2F1200113
:100DB80020FA01F10CFA02FC41EA030894404FEAD8
:100DC8001C45210CB8FBF5FE1FFA8CF705FB1E83AA
:100DD80041EA03430EFB07F199420BD91CEB0303CD
:100DE8000EF1FF3080F01E81994240F21B81AEF176
:100DF800020E63445B1AA4B2B3FBF5F005FB103393
:100E080044EA034400FB07F7A7420AD91CEB040491
:100E180000F1FF3380F00881A74240F20581644465
:100E28000238E41B40EA0E4000211EB1D4400023E2
:100E3800C6E90043BDE8F0878B4208D9002E00F0D0
:100E4800EE800021C6E900050846BDE8F087B3FA40
:100E580083F100294AD1AB4202D3824200F2F980E1
:100E6800841A65EB030301209846002EE2D0C6E9F8
:100E78000048DFE702B9FFDEB2FA82F2002A40F04A
:100E88009180A1EB0C054FEA1C471FFA8CFE01214B
:100E9800B5FBF7F307FB1350250C45EA00450EFB9D
:100EA80003F0A84208D91CEB050503F1FF3802D26C
:100EB800A84200F2CB8043462D1AA4B2B5FBF7F046
:100EC80007FB105544EA05440EFB00FEA64508D969
:100ED8001CEB040400F1FF3502D2A64500F2BB80EA
:100EE8002846A4EB0E0440EA03409EE7C1F1200720
:100EF8008B4022FA07FC4CEA030C20FA07F405FAA7
:100F080001F31C43FD404FEA1C4900FA01F3B5FB0D
:100F1800F9F8200C1FFA8CFE09FB185540EA054524
:100F280008FB0EF0A84202FA01F20BD91CEB0505EA
:100F380008F1FF3A80F08880A84240F28580A8F145
:100F4800020865442D1AA4B2B5FBF9F009FB105547
:100F580044EA054500FB0EFEAE4508D91CEB050525
:100F680000F1FF346CD2AE456AD90238654440EAD4
:100F78000840A0FB0294A5EB0E05A542C846A6466C
:100F880056D353D05EB1B3EB080265EB0E0505FAF4
:100F980007F722FA01F3CD401F43C6E90075002187
:100FA800BDE8F087C2F1200320FA03F10CFA02FC35
:100FB80025FA03F395400D434FEA1C471FFA8CFEB0
:100FC800B3FBF7F107FB11302B0C43EA004301FB9D
:100FD8000EF0984204FA02F408D91CEB030301F15D
:100FE800FF382FD298422DD9023963441B1AADB26B
:100FF800B3FBF7F007FB103345EA034500FB0EF39C
:10100800AB4208D91CEB050500F1FF3816D2AB42FC
:1010180014D902386544ED1A40EA014138E73146EF
:10102800304607E78646E5E61846FAE64B45A9D274
:10103800B9EB020864EB0C0E0138A3E74046EAE777
:10104800204694E74146D1E7D0467BE7023B65441A
:1010580032E7084609E76444023842E7704700BFB0
:1010680000B583B04FF0B0439A6C42F004029A6422
:101078009A6C02F004020192019A9A6C42F0010201
:101088009A649B6C03F001030093009B00220221E9
:101098000F2001F037FD0F2001F06CFD03B05DF863
:1010A80004FB002301E0083008338B420AD242686F
:1010B800D0F800C0B2F1FF3F08BFBCF1FF3FF2D04B
:1010C800012070470020704730B108B539B192B29D
:1010D80010F000FB002008BD6FF0050070476FF0AE
:1010E8000500F8E708B502F015F878B9094B9A69D0
:1010F80042F040429A614CF2FA321A6102F022F848
:1011080008B9002008BD6FF00400FBE76FF0040089
:10111800F8E700BF0040005870B584B0002303937F
:10112800002839D00E460446FFF7DCFF054610B10B
:10113800284604B070BD01F0EDFF80BB0223009388
:1011480004F178431748D0F8E015174A02EA8121DC
:10115800B3FBF1FC01FB1C33DB0A0193344404F1BB
:101168007844013CD0F8E01502EA8122B4FBF2F1A0
:1011780002FB1144C3EBD4240134029403A968464A
:1011880002F0ACF818B1022804D06FF0010501F0A4
:10119800D9FFCDE70125FAE76FF00505C8E76FF03D
:1011A8000405C5E70070FF1F00FCFF032DE9F04FA1
:1011B80089B0039004920191002800F0A980834629
:1011C800002900F0A98012F0070F40F0A98010F064
:1011D8000703059340F0A880FFF784FF029018B139
:1011E800029809B0BDE8F08F01F094FF002840F0A4
:1011F8009F80039C04F178434F4AD2F8E0254F4979
:1012080001EA8221B3FBF1F201FB1232D30A069301
:10121800049BE31803F17843013BB3FBF1F001FBB6
:101228001033DB0AA3EBD22301330793012B06D932
:10123800C4F30A09C9F50069DDF818A02FE0DDF844
:101248001090F9E7C846019F5C46059D454515D2B3
:10125800EE19D6E900232146012001F0B7FF50B965
:1012680020686268E95973689A4208BF884241D188
:1012780008340835EAE76FF003030293029B002B5A
:101288003FD1CB44019B4B440193049BA3EB090939
:10129800B9F5006F28BF4FF400690AF1010A069BEF
:1012A800079A134453452CD90AF58034E402494679
:1012B8000398FFF7F6FE0028C4D0214B1868E8B160
:1012C8004FF400622146FFF7FFFE1D4B1868CBF371
:1012D8000A031FFA89F20199184410F0FBF94FF438
:1012E80000612046FFF718FF70B9154B1F684FF4CF
:1012F8000068AAE76FF003030293BFE76FF00503E6
:10130800029301F01FFF6BE76FF001030293F8E708
:101318006FF00503029363E76FF0050302935FE73D
:101328006FF0050302935BE76FF00503029357E73D
:101338006FF00403029353E70070FF1F00FCFF03E4
:1013480044010020B0F1006F0ED310B5094BD3F85B
:10135800E045094B03EA842303F10063013B98420B
:1013680005D8FFF723FF10BD4FF0FF3070474FF04F
:10137800FF30F8E70070FF1F00FCFF03B1F1006FBA
:101388000ED310B5094BD3F8E045094B03EA842383
:1013980003F10063013B994205D8FFF795FE10BDA4
:1013A8004FF0FF3070474FF0FF30F8E70070FF1F35
:1013B80000FCFF03B0F1006F0ED308B5094BD3F85A
:1013C800E025094B03EA822303F10063013B9842BD
:1013D80005D8FFF7A1FE08BD4FF0FF3070474FF06A
:1013E800FF30F8E70070FF1F00FCFF0370B588B0FE
:1013F8000024039404940594069407944FF0B04392
:10140800DA6C42F00102DA64DA6C02F0010202924C
:10141800029ADA6C42F00402DA64DA6C02F004022E
:101428000192019ADA6C42F00202DA64DB6C03F092
:1014380002030093009B1C4D224643F210012846EC
:1014480002F0DCF8224640F201714FF0904002F0C1
:10145800D5F810230393012604960594069403A94E
:10146800284601F07BFF40F201730393049605942C
:10147800069403A94FF0904001F070FF24230393D2
:101488000494059403A9284601F068FF4FF44053DB
:101498000393049605940323069303A9284601F0B1
:1014A8005DFF08B070BD00BF0004004808B51248D1
:1014B800124B0360124B4360002383600122C26019
:1014C800036143618361C361036202F040FA50B96A
:1014D8000021094802F016FC40B90021064802F034
:1014E8003FFC30B908BD00F053F8F1E700F050F8C0
:1014F800F3E700F04DF8F5E74801002000580040F8
:101508005D3E302010B596B004460021119112912D
:10151800139114911591382203A810F09DFD2268AB
:101528001A4B9A4201D016B010BD802303934FF492
:101538004023099303A803F069FA18BB4FF0B0449D
:10154800E36C43F00103E364E36C03F001030293EB
:10155800029B4FF4C0531193122312930023139349
:1015680014930423159311A94FF0904001F0F6FE4F
:10157800A36D43F48003A365A36D03F48003019373
:10158800019BD0E700F004F8D8E700BF00580040FE
:1015980072B6FEE710B59AB04822002108A810F0EC
:1015A8005BFD00240194029403940494059406942A
:1015B800079402F001FC4FF0B042D2F8903023F0CB
:1015C8001803C2F8903002F58062136823F4C063F0
:1015D80043F400731360136803F4C0630093009B23
:1015E8002423089381230B93012310931194B02390
:1015F8001293139408A802F079FD70B94F23019350
:10160800002302930393049305930793022101A8EF
:1016180003F0A8F818B91AB010BDFFF7B9FFFFF723
:10162800B7FF08B501F00EFAFFF7B4FFFFF7DEFECB
:1016380000F0CCFCFFF73AFF00F0CEFCFCE700001E
:1016480000B58DB02C22002101A810F005FD194825
:10165800194B03601F238360002303614361836187
:101668004FF08042C26103624FF48073436203F01B
:10167800DFFBA8B90F4803F015FDA0B900220892B6
:10168800029206924FF0005307934FF480730B9326
:1016980001A9084803F02AFC40B90DB05DF804FB25
:1016A800FFF776FFE6E7FFF773FFE7E7FFF770FF5F
:1016B800F3E700BF940100200028004010B590B067
:1016C80004463822002102A810F0C6FC22681A4BF2
:1016D8009A4201D010B010BD4FF4803302934FF4FA
:1016E80080730F9302A803F091F908BB4FF0B04341
:1016F800D3F8902042F40042C3F890209A6D42F447
:1017080080629A659B6D03F480630193019B0022BC
:101718001146022001F0F6F9022001F02BFA00220E
:1017280011462A2001F0EEF92A2001F023FAD1E728
:10173800FFF72EFFDAE700BF002800407047704728
:1017480008B501F095F90120024BC3F8880002F0B2
:1017580097FB08BD0004005808B501F090F908BDD2
:1017680008B501F08CF900F0F1FB08BD08B501F0EF
:101778007FF90121002002F027FB08BD7047FEE732
:10178800FEE7FEE7FEE7FEE77047704770477047E1
:1017980008B5024803F0B2FC08BD00BF9401002060
:1017A80008B5024801F004FC08BD00BFE0010020B4
:1017B80008B5024804F05EF908BD00BF40020020E9
:1017C80008B5024803F0ACFA08BD00BF9401002038
:1017D80008B5024803F03CFF08BD00BFCC0100205B
:1017E80008B505480823036003F0BEFC00B908BD2E
:1017F800FFF7CEFEFBE700BFCC01002000B583B0A9
:101808004FF0B0435A6E42F001025A665B6E03F025
:1018180001030193019B00221146322001F072F965
:10182800322001F0A7F903B05DF804FB0CB400B551
:1018380083B004AB53F8042B019310F025FB03B0DD
:101848005DF804EB02B0704730B585B004460D462C
:1018580002A810F08FF8BDF90C300093029B054ADE
:1018680010212046FFF7E2FF2046FEF781FC288082
:1018780005B030BD0422010810B54FF0B04293689E
:1018880023F40043936010F0F9F801240C4B1C700A
:1018980000F0A0F80FF094FD0A480FF0ABFD0A4BDA
:1018A8004FF400421A6102200FF0AAFD00F0ECF894
:1018B8000FF0B6FE214620460FF0D2FE10BD00BF45
:1018C800D8010020511800080040005808B50FF052
:1018D800DDFE08BD0020704700B587B0684600F0FF
:1018E800BDF80198FFF714FA00B207B05DF804FBE1
:1018F80038B50446184BD3F88035B3F1FF3F13D001
:10190800C3711A0A82711A0C42711B0E0371124BB1
:10191800D3F88425C270D3F884351A0A82701A0C59
:1019280042701B0E037038BD01F0B0F8054601F097
:10193800B9F8054401F0B0F82B0EE3712B0CA37134
:101948002B0A63712571030EE370030CA370030A5D
:1019580063702070E7E700BF0070FF1F38B50A4BBF
:10196800D3F880350360B3F1FF3F00D038BD04469B
:1019780001F08CF8054601F08FF8454001F092F827
:1019880045402560F2E700BF0070FF1F08B5012140
:1019980002200FF04FFE08BD08B5002102200FF00D
:1019A80049FE08BD0020704708B5044B1B780BB9E9
:1019B800002008BD00F094F8FBE700BFD801002024
:1019C80000B583B00190019800F070F903B05DF89C
:1019D80004FB0000F0B589B001F06AF801F070F876
:1019E80001F076F80024039404940594069407946F
:1019F80001230493032306934FF0B043DA6C42F0BB
:101A08000202DA64DA6C02F002020292029ADA6CDA
:101A180042F00202DA64DB6C03F002030193019BDB
:101A28004FF4805703970C4D03A9284601F096FC04
:101A38004FF40056039603A9284601F08FFC22466E
:101A48003946284601F0DAFD22463146284601F09B
:101A5800D5FD09B0F0BD00BF00040048054B836008
:101A6800054B4360054B0360054BC360054B0361A1
:101A780000207047000048420000904100007A446E
:101A88000D093E00AB03050000207047064B98681F
:101A980001E0054B9868044B9B688342F9D1C04329
:101AA800024B1860704700BF00280040DC0100208E
:101AB800014B1868704700BFDC010020064B98688E
:101AC80001E0054B9868044B9B688342F9D1C043F9
:101AD800024B1B68C01A704700280040DC01002038
:101AE800074B1B7853B1074B986801E0054B986882
:101AF800044B9B688342F9D1C0437047002070476C
:101B0800D9010020002800400320704708B501468D
:101B18004FF47A7200238002890DFFF71FF908BD80
:101B2800C20E43011B1A62F10002920042EA93724C
:101B38009B001B1842F10000C00040EA5370C3F339
:101B4800D51343EA8050704710B5074B0122DA6578
:101B5800064C4FF48071204603F0A2F84FF0FF3393
:101B68002363002010BD00BF00280040940100201E
:101B780008B502460221024803F0D5FA08BD00BFA5
:101B88009401002038B50F4B1B780BB1002038BDED
:101B98000D4C4FF0FF352563FFF752FDFFF7D4FFDB
:101BA8004FF48071204603F07BF82563204603F04C
:101BB80059FA0020FFF7DCFFFFF768FF014B01220D
:101BC8001A70E3E7D90100209401002008B5024605
:101BD8000021024803F0A7FA08BD00BF94010020C5
:101BE80008B502460121024803F09DFA08BD00BF6E
:101BF8009401002010B58CB004462C22002101A8C5
:101C080010F02AFAFFF7A0FF0C4B186804440023D1
:101C18000893E443029406934FF0005307934FF45C
:101C280080730B93012201A9054803F05FF910B9ED
:101C380000200CB010BDFFF7ABFCF9E7DC01002079
:101C48009401002008B50221014803F073FA08BD89
:101C58009401002038B505460B4B9C6801E00A4BFF
:101C68009C68094A9268A242F9D1E443FFF7EAFF67
:101C78002346A40A44EA8054C3F30900FFF750FF3F
:101C88002880204638BD00BF0028004008B5002144
:101C9800014803F04FFA08BD9401002008B501215E
:101CA800014803F047FA08BD9401002008B5FFF782
:101CB8002DFF0D4B996801E00B4B99680A4A926811
:101CC8008A42F9D1C9430AE0074B9B68064A9268E1
:101CD8009A42F9D1DB435B1A834203D200BF024B1D
:101CE8009B68F3E708BD00BF0028004008B50FF067
:101CF800E9FF08BD08B5FFF7A5FF0130FFF738FF7A
:101D080008BD000008B51748174B03604FF4E133CE
:101D1800436000238360C36003610C2242618361D6
:101D2800C36103624362836204F003FD70B900215A
:101D38000C4804F0C0FE60B900210A4804F0E0FE37
:101D480050B9084804F093FE48B908BDFFF720FCD5
:101D5800EDE7FFF71DFCEFE7FFF71AFCF1E7FFF7E8
:101D680017FCF2E7400200200044004030B597B06D
:101D78000446002111911291139114911591382262
:101D880003A810F069F922682D4B9A4201D017B0C8
:101D980030BD022303932B4B059303A802F036FEB4
:101DA800002844D14FF0B0439A6D42F400329A654E
:101DB8009A6D02F400320292029ADA6C42F0010241
:101DC800DA64DB6C03F001030193019B0C2311938C
:101DD80002231293002513950323149307231593C5
:101DE80011A94FF0904001F0B9FA1748174B03605A
:101DF8001423436010238360C56080230361456119
:101E08008561C561056200F045FF98B910210E484B
:101E180001F042F988B90C4BA3679C6200220221A9
:101E2800252000F06FFE252000F0A4FEAFE7FFF7A5
:101E3800AFFBB7E7FFF7ACFBE8E7FFF7A9FBEAE77B
:101E48000044004004000C00E0010020580002405B
:101E580002680C4B9A4200D0704710B504464FF008
:101E6800B042936D23F4003393650C214FF09040FA
:101E780001F046FBA06F00F07FFF252000F088FEF0
:101E880010BD00BF0044004008B5074B1860FFF7BD
:101E9800E7F8FFF737FF054AD2F8803043F00063D0
:101EA800C2F88030002008BDD40200200008005885
:101EB80008B54FF0B0439A6B42F400329A639A6BBC
:101EC80022F400329A630448FFF7C2FF0F2000F0A3
:101ED8005FFE002008BD00BF4002002008B50A468A
:101EE8000146024803F0F2FC002008BD4002002031
:101EF80010B582B0124B18604FF40013009302AB78
:101F080013E906000F4804F05AFD0E4B1B68DA6906
:101F180012F4803FF9D1DA6912F4800FFBD09A6885
:101F280042F480029A60074C204604F089FD0122A1
:101F38000549204604F0D4FC002002B010BD00BFC3
:101F4800D002002040020020D802002008B507482F
:101F580004F0EFFB20B9064800F09CFE18B908BD54
:101F6800FFF716FBF7E7FFF713FBF8E7400200203F
:101F7800E001002008B50268044B9A4200D008BD71
:101F8800034B1B6800209847F9E700BF0044004056
:101F9800D402002002680A4B9A4200D0704710B55C
:101FA8000446084B1B682BB1D0F88C2012B90121CC
:101FB8000548984701220449204604F091FC10BDC9
:101FC80000440040D0020020D802002008B5FFF7E6
:101FD80053FC00F097FB08BD08B54FF0FF300FF039
:101FE800C1FB08BD0000000070B584B004460023A2
:101FF8008DF80B30264D4FF47A76009601230DF1BB
:102008000B028021284601F001FD0F20FFF7D8FCC4
:102018000096042303AA8021284601F0B5FD054651
:102028009DF80C009DF80D309DF80E209DF80F606E
:1020380046EA022643EA0020FEF7D2FB0022154BAF
:10204800FEF79EF810A3D3E90023FEF799F80022C3
:10205800114BFEF777FAFEF7FDFC20603046FEF7DD
:10206800BFFB00220B4BFEF78BF800220B4BFEF751
:1020780087F8FEF7CFFCC0B2FEF7F2FD6060284695
:1020880004B070BDAFF300800000000000A0644001
:10209800480100200000F03E000044400000594084
:1020A80070477047014BD870704700BF5800002038
:1020B800014B1873704700BF5800002000283FD01C
:1020C8002DE9F0418CB003464278022A0AD0032A4F
:1020D8002FD01C4B0022114602200FF0E5F90CB05E
:1020E800BDE8F081027CB0F9121090F914005C7D13
:1020F8009D7DDE7D1F7E93F819C093F81AE093F852
:102108001B80CDF82C80CDF828E0CDF824C00897A6
:102118000796069505945C680494DB68039302901F
:1021280001910092084B0022114602200FF0BCF9E1
:10213800D5E7064B0022114602200FF0B5F9CEE78D
:10214800704700BF6022010878220108EC220108CC
:1021580000B583B0054B1B5C0093054B002211466C
:1021680002200FF0A1F903B05DF804FB2823010851
:102178000C23010808B5012806D0074B0022114698
:1021880002200FF091F908BD044B002211460220ED
:102198000FF08AF9F7E700BF402301082C23010854
:1021A80008B5002102200FF0A9FA02480FF02AFD15
:1021B80008BD00BF3004002008B5002101200FF041
:1021C8009DFA08BD08B505F077F900B108BD04F01F
:1021D80071FD0128FAD1BFF34F8F0549CA6802F48F
:1021E800E062044B1343CB60BFF34F8F00BFFDE7A2
:1021F80000ED00E00400FA0528B310B5044690F994
:102208000530CBB910480FF0A3FC104B0022114643
:1022180002200FF049F9A379012B06D00C4B0022BC
:10222800114602200FF040F90CE00A4B002211463B
:1022380002200FF039F905E0074B00221146022071
:102248000FF032F910BD7047D00300205423010865
:102258008C2301086C230108AC23010810B5094B35
:10226800186010B942F210721A60074C20460FF03D
:102278006FFC044B196820460FF00AFD20460FF04A
:10228800C1FC10BD6C00002030040020002843D0A1
:1022980010B584B0044603780BB904B010BD012210
:1022A8004FF400714FF0904001F0A8F91B480FF06F
:1022B800A9FC1B4B0022114602200FF0F5F8237CE5
:1022C80094F90A2094F91810039102920193E36893
:1022D8000093144B0022114603200FF0E5F8124B2F
:1022E8000022114603200FF0DFF8237A012B0CD1CE
:1022F800637A43B10D4B00930D4B00221146032026
:102308000FF0D2F8C9E70B4BF5E70B4B002211464B
:1023180003200FF0C9F8C0E7704700BF1804002079
:10232800D4230108082401083C240108D02301080B
:102338004C240108C82301086024010808B50C4B87
:102348001B78022B0ED000224FF480714FF0904082
:1023580001F054F900224FF400714FF0904001F061
:102368004DF908BD002108200FF0C8F9EBE700BFC0
:102378000000002008B500224FF400714FF0904093
:1023880001F03CF908BD0000002960D070B586B0A6
:1023980004460D4601224FF480714FF0904001F041
:1023A8002DF92B480FF02EFC2E78A6B394B326787F
:1023B800636883B3022E16D0032E2CD16278012ACB
:1023C80029D11B78012B06D0022B08D01BBB00207B
:1023D80004F082FC1FE0012004F07EFC1BE00220D8
:1023E80004F07AFC17E06278012A14D11B7803F014
:1023F8000103184A137033B9174B00221146032002
:102408000FF052F807E0154B0022114603200FF099
:102418004BF800E000262B7C052B01D906B070BDD7
:1024280095F9082095F9091095F90A000590049185
:102438000B4951F82330039302920196EB680093FD
:10244800084B0022114603200FF02EF8E6E77047EC
:10245800E8030020CE030020702401087C24010832
:102468007C2601088824010838B504460D464FF437
:1024780000610548FEF79EFF00B138BD2A46214697
:102488000148FEF75FFFF8E700F0030808B50A46C1
:102498000149FEF773FF08BD00F0030838B50122B3
:1024A8004FF480714FF0904001F0A8F801224FF4EA
:1024B80000714FF0904001F0A1F815480FF048FB6B
:1024C80004F0F2FF48B1134B0022114602200EF02F
:1024D800EBFF11480FF096FB38BD104B0022114658
:1024E80002200EF0E1FF0E4C012525700D4B002255
:1024F800114602200EF0D8FF0B4804F05FFE294673
:10250800207804F045FC02480FF07CFBE1E700BFAF
:1025180030040020D024010800040020F024010821
:1025280000000020042501085800002008B504F028
:10253800CBFF10F1080F03D0B0F1FF3F07D008BD63
:10254800064B0022114602200EF0AEFFF7E7044BBF
:102558000022114602200EF0A7FFF0E7242501080B
:102568003C250108F0B58BB0FFF7B4F902A8FFF7D6
:102578003BFD0090534B0122002102200EF094FFF6
:1025880051490298FDF726FFFEF7C2FB00B2009002
:102598004E4B0122002102200EF086FF4A49039883
:1025A800FDF718FFFEF7B4FB00B20090484B01227C
:1025B800002102200EF078FF464B02221A705A685A
:1025C800742111705A68752151705A68612191708F
:1025D8005A686E21D1705A68682111715B686F2240
:1025E8005A713D4B1B78082B02D0012B00D063BBDE
:1025F800384A516800238B715168CB715268137245
:1026080053720A22334B5A70344B5B7A002B38D101
:102618000022314BD9782F4804F01AFC002838D012
:1026280010F1060F3DD000252D4C20460FF090FAF2
:102638002C4B1968A94238BF294620460FF028FBC1
:1026480020460FF0DFFA0BB0F0BD079D089C214E25
:102658007768FFF73FF9B8717368C5F30742DA7115
:102668007368C5F307221A725D72C4F307429A723F
:10267800C4F30722DA721C7300225A739A730F226A
:10268800C0E704F017FB0128C2D114480FF060FA24
:10269800BEE7154B0122002110460EF005FF00256C
:1026A800C2E704F001FB05460028BDD00F4BA3FB91
:1026B80000239B0900930E4B0122002110460EF0C7
:1026C800F3FEB1E754250108000020416025010808
:1026D8006C2501080400002058000020D0030020C9
:1026E800300400206C00002078250108D34D6210CA
:1026F8008825010808B54FF480714FF0904000F02C
:1027080082FF08BD2DE9F04186B0002405940294AB
:1027180003230193012600964B4B224621460220B3
:102728000EF0C2FE02940427019702250095474B3C
:102738002246214628460EF0B7FE029401950096DF
:10274800434B2246214628460EF0AEFE05A92046F8
:1027580004F094FE059B1A0EC3F307210291C3F3FC
:102768000743019300923B4B2246214628460EF030
:102778009BFE05A9304604F081FE059B1A0ED9B2CE
:102788000391C3F307210291C3F307430193009216
:10279800314B2246214628460EF086FE00942F4BE8
:1027A80022464FF4FA712E480FF074F900942D4B1D
:1027B80022464FF4FA712C480FF06CF9DFF8AC8020
:1027C80000942B4B32464FF4FA7140460FF062F9F1
:1027D8000094284B22464FF4FA6127480FF05AF923
:1027E800264A214630460FF055F8254A2146284604
:1027F8000FF050F8234A214638460FF04BF8224A8A
:10280800214608200FF046F800F04EF81F492048EE
:1028180004F002FE1F4804F0D1FC40460FF0F2F924
:1028280021461D4B187804F0B3FA1C4D00941C4B3C
:1028380022461C49096828460FF02CF928460FF053
:10284800E1F906B0BDE8F081A8250108CC2501080A
:10285800F025010814260108382601087D23000800
:1028680018040020A9200008E8030020D003002055
:10287800FD2600084523000800040020A56C000878
:102888006D25000835250008A5240008000003016F
:102898000C00002058000020000000203004002018
:1028A800A92100086C000020064B00221A605A601B
:1028B8009A60DA6020225A604FF490725A600122BE
:1028C8001A607047480400200048704748040020F8
:1028D8002DE9F04188B000240394049405940694EB
:1028E80007944FF0B043DA6C42F00202DA64DA6C13
:1028F80002F002020292029ADA6C42F00402DA64EE
:10290800DB6C03F004030193019B4FF4807603967C
:1029180001230493032306930D4D03A9284600F0D1
:102928001DFD4FF40058CDF80C800A4F03A9384616
:1029380000F014FD22464146384600F05FFE22466C
:102948003146284600F05AFE204608B0BDE8F0811E
:10295800000400480008004808B503280FD8DFE83D
:1029680000F002101D2A00224FF48071184800F070
:1029780045FE00224FF40051164800F03FFE0020AB
:1029880008BD01224FF48071114800F037FE002283
:102998004FF400510F4800F031FEF0E700224FF4E9
:1029A80080710B4800F02AFE01224FF400510948BB
:1029B80000F024FEE3E700224FF48071044800F0A1
:1029C8001DFE01224FF40051024800F017FED6E721
:1029D80000040048000800480220704700207047A3
:1029E8000120704708B90F20704716207047000073
:1029F8000D48854600F025F80C480D490D4A00237E
:102A080002E0D458C4500433C4188C42F9D30A4A9B
:102A18000A4C002301E013600432A242FBD30FF0FA
:102A2800F7FAFEF7FEFDFEE7008000200000002018
:102A380028010020783001082801002030140020E7
:102A4800FEE7704710B5032000F04AF801F03EFB9E
:102A5800064B18600F20FEF7A5FF10B10124204691
:102A680010BD0446FEF78AFEF9E700BF700000209B
:102A78004FF0E022136923F00203136170474FF00F
:102A8800E022136943F0020313617047014BD3F846
:102A9800900570470070FF1F014BD3F894057047ED
:102AA8000070FF1F014BD3F8980570470070FF1F97
:102AB800024A536823F0010353607047002004E082
:102AC800024A536823F0020353607047002004E071
:102AD800024A536823F0040353607047002004E05F
:102AE800074AD36823F4E0631B041B0C000200F4BC
:102AF800E060034343F0BF6343F40033D36070479F
:102B080000ED00E000B5194BDB68C3F30223C3F105
:102B1800070CBCF1040F28BF4FF0040C03F1040E9E
:102B2800BEF1060F18D9033B4FF0FF3E0EFA0CFC1E
:102B380021EA0C0199400EFA03F322EA0303194330
:102B480000280BDB0901C9B200F1604000F56140C3
:102B580080F800135DF804FB0023E5E700F00F00A0
:102B68000901C9B2024B1954F4E700BF00ED00E0B7
:102B780014ED00E0002807DB00F01F0240090123E4
:102B88009340024A42F82030704700BF00E100E05D
:102B980000280CDB00F01F0240090123934020307D
:102BA800034A42F82030BFF34F8FBFF36F8F70474F
:102BB80000E100E010B4C46CD0F850C0C4F804C000
:102BC800446D24B1846DD0F85CC0C4F804C0446C72
:102BD80004F01C0C012404FA0CF4D0F840C0CCF822
:102BE8000440046863608368102B05D0036899600B
:102BF8000368DA6010BC704703689A600368D9609C
:102C0800F8E700000368144A934216D8426C22F091
:102C1800030202F1804202F502328264DBB2083B11
:102C28000E4AA2FB03231B090D4AC26403F01F03CB
:102C3800012202FA03F303657047426C22F0030194
:102C4800084A0A448264DBB2083B044AA2FB032315
:102C58001B090733E8E700BF07040240CDCCCCCC02
:102C6800800802401C080240436803F07F03074ABB
:102C78001A4492004265064A8265013B03F0030349
:102C8800012202FA03F3C365704700BF3F820010B8
:102C980040090240002860D010B504460268304B55
:102CA8009A4242D82F4B13442F49A1FB03131B0907
:102CB8009B0043642D4B0364022384F8253013687A
:102CC80023F4FF4323F07003136021680A68A368A4
:102CD800E06803432069034360690343A069034331
:102CE800E0690343206A034313430B602046FFF760
:102CF80089FFA368B3F5804F22D06368A26C03F004
:102D08007F031360E36C226D5A606368013B032BF9
:102D180019D900236365A365E3650020E0630123F7
:102D280084F8253084F8240010BD114B13440E4953
:102D3800A1FB03131B099B0043640E4B0364BBE711
:102D480000236360D9E72046FFF78EFF636D0022FA
:102D58001A60A36DE26D5A60DFE70120704700BF7B
:102D680007040240F8FFFDBFCDCCCCCC00000240E8
:102D7800F8FBFDBF0004024000284BD038B50446DC
:102D88000268136823F0010313600268224B9A4219
:102D98002CD8224B13442249A1FB03131B099B0087
:102DA8004364204B036400251560636C03F01C0228
:102DB800216C012393404B602046FFF723FFA36C4F
:102DC8001D60E36C226D5A606368013B032B18D9C0
:102DD80000206065A065E065E06220636063A06331
:102DE800E06384F8250084F8240038BD0E4B1344B2
:102DF8000B49A1FB03131B099B0043640B4B0364A2
:102E0800D1E72046FFF730FF636D1D60A36DE26DCB
:102E18005A60DDE70120704707040240F8FFFDBF54
:102E2800CDCCCCCC00000240F8FBFDBF0004024032
:102E380038B5044690F82400012843D0012084F8CE
:102E4800240094F82500C0B2012806D08023E3634B
:102E5800002384F82430012038BD022084F825009E
:102E68000020E0632568286820F0010028602046DB
:102E7800FFF7A0FE236BD3B12268136843F00E035B
:102E88001360A36C1A6812F4803F03D01A6842F4E6
:102E980080721A60636D1BB11A6842F480721A60FE
:102EA8002268136843F0010313600020D4E7226806
:102EB800136823F0040313602268136843F00A03BD
:102EC8001360DEE70220C7E70346002834D090F8F5
:102ED8002520D2B2022A06D00422C263002280F83A
:102EE80024200120704701680A6822F00E020A6057
:102EF800816C0A6822F480720A6001680A6822F00C
:102F080001020A60426C02F01C01006C01228A4036
:102F18004260DA6C196D51605A6D32B1116821F452
:102F2800807111609A6DD96D5160012283F8252056
:102F3800002083F8240070470120704708B590F8F6
:102F48002530DBB2022B03D00423C363012008BD64
:102F58000268136823F00E0313600268136823F0F5
:102F680001031360826C136823F480731360436C4D
:102F780003F01C02016C012393404B60C36C026D8B
:102F88005A60436D33B11A6822F480721A60836DF7
:102F9800C26D5A60012380F82530002380F8243060
:102FA800836B13B198470020D1E70020CFE70000DA
:102FB80038B5036C196804682568436C03F01C0372
:102FC80004229A400A4215D015F0040F12D0236843
:102FD80013F0200F03D1236823F004032360436C0C
:102FE80003F01C02016C042393404B60036B03B194
:102FF800984738BD02229A400A4228D015F0020F9D
:1030080025D0236813F0200F06D1236823F00A0384
:103018002360012380F8253002681C4B9A420ED9A0
:10302800436C03F01C0202239340194A53600023A7
:1030380080F82430C36A002BDBD09847D9E7436C6B
:1030480003F01C0202239340124A5360EFE7082260
:1030580002FA03F30B42CCD015F0080FC9D023684D
:1030680023F00E032360436C03F01C03016C012260
:1030780002FA03F34B60C26380F82520002380F82E
:103088002430436B002BB4D09847B2E7800002404D
:10309800000402400000024078B103681A6811F089
:1030A800100F04D011F4801F04D042F480121A606B
:1030B8000020704722F48012F9E7012070470000D1
:1030C80010B4054C616941F0010161610260BFF310
:1030D8006F8F436010BC7047004000580C4A53691A
:1030E80043F480235361EFF3108C72B6402351F8F8
:1030F800042B40F8042B013B13F0FF03F7D1044BDA
:103108001B6913F4803FFAD18CF31088704700BF15
:1031180000400058094B5B69002B01DB0020704719
:10312800064B074A9A6002F188329A605B69002B65
:1031380001DB002070470120704700BF00400058A5
:1031480023016745054B5A6942F000425A615B69A1
:10315800002B01DB01207047002070470040005819
:1031680038B50546FEF720FC0446164B1B6913F4D8
:10317800803F06D0FEF718FC001BA842F5D30320B9
:1031880038BD104B1B6913F0010F02D00D4A012105
:1031980011614CF2FA32134001D00A4A13615BB94B
:1031A800084B1B6913F4802F0AD0FEF7FDFB001BA8
:1031B800A842F5D30320E3E7034A53600120DFE781
:1031C8000020DDE70040005858040020F8B51F46ED
:1031D800154B1B78012B25D004460D461646124B7D
:1031E80001221A7000225A604FF47A70FFF7B8FF74
:1031F80070B9012C10D031462846FFF76FFF4FF405
:103208007A70FFF7ADFF094A536923EA0404546151
:10321800054B00221A70F8BD32463B462846FFF798
:103228004FFFECE70220F6E7580400200040005862
:10323800034A536943F4803343F0040353617047EE
:1032480000400058184B1B6803F40073012B06D08C
:10325800154B1B6803F48063012B12D07047124B87
:103268001A6822F400721A601A6842F400621A603E
:103278001A6822F400621A601A6842F400721A602E
:10328800E6E7094B1A6822F480621A601A6842F469
:1032980080521A601A6822F480521A601A6842F43E
:1032A80080621A60DAE700BF00400058034A536999
:1032B80023F47E7323F002035361704700400058E3
:1032C800054A536923F47E7343EAC00040F4803012
:1032D80040F002005061704700400058F8B51E4B9E
:1032E8001B78012B35D005460F461B4B01221A705F
:1032F80000225A604FF47A70FFF732FF064618BB77
:103308002B68042B13D04FF0FF333B606C686B685D
:10331800AA681344A34213D92046FFF7D1FF4FF4FC
:103328007A70FFF71DFF064648B90134EFE7FFF74B
:103338007FFF4FF47A70FFF713FF064602E03C6008
:10334800FFF7B4FFFFF77EFF034B00221A703046E9
:10335800F8BD0226FBE700BF5804002070B5002323
:1033680069E085685E000324B44025EA0405CC685A
:10337800B4402C438460446824EA0C0C4C68C4F3C1
:1033880000149C4044EA0C04446065E0DD080835FC
:1033980050F8256003F007044FEA840C0F2404FA60
:1033A8000CF426EA040E0C6904FA0CF444EA0E0440
:1033B80040F8254067E0022400E0002404FA0EF4F7
:1033C8002C430CF1020C4B4D45F82C404A4C256817
:1033D800D44325EA0206D1F804C01CF4801F01D0AA
:1033E80042EA0506444D2E606D6804EA0506D1F8E8
:1033F80004C01CF4001F01D042EA05063E4D6E6071
:10340800D5F8805004EA0506D1F804C01CF4803FC2
:1034180001D042EA0506384DC5F88060D5F88450D9
:103428002C404E6816F4003F01D042EA0504324AA7
:10343800C2F8844001330A6832FA03F458D04FF0D6
:10344800010C0CFA03FC1CEA0202F3D04C6804F0ED
:103458000304013C012C84D94C6804F00304032CB8
:103468000CD0C4685D004FF0030C0CFA05FC24EA8C
:103478000C0C8C68AC4044EA0C04C4604C6804F042
:103488000304022C82D004684FEA430E4FF0030C69
:103498000CFA0EFC24EA0C0C4C6804F0030404FA41
:1034A8000EF444EA0C0404604C6814F4403FC1D0A4
:1034B8004FEA930C0CF102050E4C54F8255003F01A
:1034C80003044FEA840E072404FA0EF425EA0405DF
:1034D800B0F1904F3FF471AF084CA04206D004F50C
:1034E8008064A0423FF467AF072467E7012465E7DB
:1034F80070BD00BF000001400008005800040048EB
:10350800002331FA03F271D0F0B52EE0022500E075
:10351800002505FA0CFCA44549D004685D004FF06D
:10352800030C0CFA05FC44EA0C0404604FEAD30EC1
:103538000EF1080E50F82E4003F00705AE000F25D7
:10354800B54024EA050440F82E40846824EA0C04B7
:103558008460446824EA02024260C26822EA0C02DB
:10356800C260013331FA03F23FD001229A4012EAD5
:103578000107F6D09E08B51C1D4C54F8254003F0F1
:10358800030C4FEA8C0C4FF0070E0EFA0CFE0EEAF5
:103598000404B0F1904FBBD0164DA84205D005F5F4
:1035A8008065A842B2D00725B3E70125B1E7124CE0
:1035B800D4F8805025EA0705C4F88050D4F8845020
:1035C80025EA0705C4F88450256825EA070525601B
:1035D800656825EA07076760054D023655F82640F5
:1035E80024EA0E0445F8264097E7F0BD704700BF6F
:1035F8000000014000040048000800580AB1816139
:10360800704781627047436901EA030221EA0301B6
:1036180041EA02418161704703689A6912F0020F1A
:1036280001D000229A6203689A6912F0010F03D14F
:103638009A6942F001029A61704710B4019CC1F383
:10364800090141EA02411943214321F0004102687E
:103658005368640D04F4806444F07F7444F458346F
:1036680044F47F7444F0030423EA040421435160C2
:1036780010BC70472DE9F041044603689F6917F0B4
:1036880010074CD00E4690461022DA6100252368B8
:10369800986910F0200F3BD1002D39D1B6F1FF3FCA
:1036A800F5D0FEF781F9A0EB0800B04201D8002E52
:1036B800EDD121684B6803F4804394F84220D2B2DC
:1036C800886910F4004F02D00BB9202A18D123685A
:1036D8009B6913F0200FDAD1FEF766F9A0EB08001A
:1036E8001928F4D9636C43F020036364202384F819
:1036F8004130002384F8423084F840300125E6E761
:103708004B6843F480434B60FEF74EF98046DEE792
:10371800002D40D12022DA610427012500E0002590
:103728002268936913F4807F05D047F001074FF4AE
:103738008071D161012513F4806F06D047F0080726
:1037480022684FF48061D161012513F4007F24D0F1
:1037580047F0020723684FF40072DA61012520461A
:10376800FFF75AFF2268536823F0FF7323F48B3363
:1037780023F4FF7323F001035360636C1F436764F2
:10378800202384F84130002384F8423084F8403004
:103798002846BDE8F0810427C2E7002DF8D0DEE70F
:1037A80070B504460D46164623689B6913F0020F50
:1037B8001DD1324629462046FFF75CFFC8B9B5F14E
:1037C800FF3FF1D0FEF7F0F8801BA84201D8002D8A
:1037D800EAD1636C43F020036364202384F841300A
:1037E800002384F8423084F84030012000E00020B3
:1037F80070BD0120FCE72DE9F041064688461746D2
:103808001D463468A46938EA04030CBF4FF0010C64
:103818004FF0000CBC4518D1B5F1FF3FF1D0FEF7D1
:10382800C3F8069BC01AA84201D8002DE9D1736CD1
:1038380043F020037364202386F84130002386F880
:10384800423086F84030012000E00020BDE8F081D9
:1038580070B505460C4616462B689B6913F0200F79
:103868001AD1324621462846FFF704FFB0B9FEF7C1
:103878009BF8801BA04201D8002CEDD16B6C43F063
:1038880020036B64202385F84130002385F84230FB
:1038980085F84030012070BD0020FCE70120FAE7E0
:1038A80070B504460D46164623689B6913F0040F4D
:1038B80049D1324629462046FFF7DCFE014600285A
:1038C80043D123689A6912F0200F13D1FEF76CF8E0
:1038D800801BA84201D8002DE6D1636C43F0200379
:1038E8006364202384F84130002384F840300121A8
:1038F800084670BD9A6912F0040F02D0228D002A82
:10390800F6D19A6912F0100F1AD01022DA61042346
:10391800636423682022DA6121684B6823F0FF730F
:1039280023F48B3323F4FF7323F001034B6084F8F3
:103938004120002384F8423084F840300121D7E741
:1039480000236364E5E70021D2E70121D0E70028DE
:1039580059D010B5044690F84130002B43D02423A9
:1039680084F841302268136823F001031360636808
:10397800226823F0706313612268936823F400437C
:103988009360E368012B33D0A368226843F40443AF
:103998009360E368022B31D02268536843F00073C8
:1039A80043F4004353602268D36823F40043D36090
:1039B800236962691343A169226843EA0123D3603A
:1039C800E369216A22680B4313602268136843F095
:1039D8000103136000206064202384F841302063D1
:1039E80084F8420010BD80F84030FDF78BFDB6E743
:1039F800A368226843F400439360CAE723684FF43E
:103A080000625A60C8E70120704700002DE9F047BE
:103A180082B00F460A9E90F84110C9B2202940F0A2
:103A2800A38004469046994690F84030012B00F058
:103A38009F804FF0010A80F840A0FDF7B5FF0546CA
:103A48000090192352464FF400412046FFF7D3FE59
:103A5800002840F08F80212384F84130102384F817
:103A6800423000236364C4F82480A4F82A90636376
:103A7800638D9BB2FF2B0AD9FF222285414B00930D
:103A88004FF0807339462046FFF7D7FD18E0628D66
:103A980092B222853B4B00934FF00073D2B2394665
:103AA8002046FFF7CAFD0BE0628D92B22285002303
:103AB80000934FF00073D2B239462046FFF7BDFDA0
:103AC800638D9BB2002B33D02A4631462046FFF740
:103AD80067FE002850D1626A236812789A62636A86
:103AE80001336362638D9BB2013B9BB26385238D77
:103AF800013B9BB22385628D92B2002AE0D0002B55
:103B0800DED100953346002280212046FFF773FE60
:103B1800A0BB638D9BB2FF2BC6D9FF222285002351
:103B280000934FF0807339462046FFF786FDC7E7BC
:103B38002A4631462046FFF78BFE08BB2368202221
:103B4800DA6121684B6823F0FF7323F48B3323F485
:103B5800FF7323F001034B6084F84120002384F8AD
:103B6800423084F8403000E0022002B0BDE8F0871F
:103B78000220FAE70120F8E70120F6E70120F4E740
:103B88000120F2E7002000802DE9F04782B00F46BF
:103B98000A9E90F84110C9B2202940F0A28004463C
:103BA8009046994690F84030012B00F09E804FF0E7
:103BB800010A80F840A0FDF7F7FE0546009019239A
:103BC80052464FF400412046FFF715FE002840F00A
:103BD8008E80222384F84130102384F84230002359
:103BE8006364C4F82480A4F82A906363638D9BB24D
:103BF800FF2B0AD9FF222285414B00934FF0807397
:103C080039462046FFF719FD18E0628D92B22285E9
:103C18003B4B00934FF00073D2B239462046FFF772
:103C28000CFD0BE0628D92B22285002300934FF0C9
:103C38000073D2B239462046FFF7FFFC638D9BB272
:103C4800002B32D02A4631462046FFF729FE0028AD
:103C58004FD123685A6A636A1A70636A01336362D0
:103C6800228D013A92B22285638D9BB2013B9BB2B1
:103C78006385638D9BB2002BE0D0002ADED10095CE
:103C8800334680212046FFF7B6FDA0BB638D9BB26B
:103C9800FF2BC7D9FF222285002300934FF08073A2
:103CA80039462046FFF7C9FCC8E72A463146204670
:103CB800FFF7CEFD08BB23682022DA6121684B6834
:103CC80023F0FF7323F48B3323F4FF7323F00103F2
:103CD8004B6084F84120002384F8423084F8403057
:103CE80000E0022002B0BDE8F0870220FAE70120D8
:103CF800F8E70120F6E70120F4E70120F2E700BF2A
:103D08000024008090F84130DBB2202B24D190F8B9
:103D18004030012B22D0012380F84030242380F842
:103D280041300268136823F00103136002681368C6
:103D380023F4805313600268136819431160026802
:103D4800136843F001031360202380F841300023F7
:103D580080F84030184670470220704702207047AC
:103D680090F84130DBB2202B22D190F84030012B63
:103D780020D0012380F84030242380F841300268A5
:103D8800136823F0010313600268136823F4706357
:103D980043EA012111600268136843F001031360CC
:103DA800202380F84130002380F8403018467047BF
:103DB8000220704702207047024A136843F4807358
:103DC800136070470004005810B50C46A0B90F4B9B
:103DD8005B6913F4007F0AD10D4A136923F00403C9
:103DE8001361012C10D040BF20BF20BF10BD00F0D0
:103DF80021F80028F0D0F9E7044B5B6913F4007F41
:103E0800EAD100F00FF8E7E730BFEFE70004005809
:103E180000ED00E0024B186800F4C060704700BF76
:103E280000040058024A136843F480431360704743
:103E3800000400580F4A136823F4804313600E4BA4
:103E48001B68322202FB03F30C4AA2FB03239B0CE0
:103E580000E0013B074A526912F4007F01D0002BB1
:103E6800F7D1044B5B6913F4007F01D10020704740
:103E780003207047000400587000002083DE1B43B5
:103E88000C4A136823F0070343F0020313600A4A3D
:103E9800136943F004031361012808D040BF20BF11
:103EA80020BF054A136923F004031361704730BF2C
:103EB800F7E700BF0004005800ED00E030B589B016
:103EC80004468C462A4B93E803000690ADF81C1074
:103ED80003F1080292E803000490ADF8141001AD54
:103EE800103393E8070085E80700BCF5007F07D08A
:103EF800002314E008AA02EB830353F81C5C1EE0BD
:103F08000023022B08D808AA02EB430232F8082C37
:103F1800A242EFD20133F4E7002510E00133022B6F
:103F28000CD808AA02EB430232F8102CA242F5D3AF
:103F380008AA02EB830353F81C5C00E000250D4A35
:103F4800136823F007032B431360FDF72DFD044688
:103F5800084B1B6803F00703AB4206D0FDF724FDAE
:103F6800001B0228F4D9032000E0002009B030BD6E
:103F7800882101080040005810B5C0F303100C4B0D
:103F880053F820404FF0B043D3F8083103F00F0343
:103F9800084A52F82300B4FBF0F4FFF73BFF014650
:103FA8000548A0FB0430800CFFF788FF10BD00BF58
:103FB800F42601089426010883DE1B434FF0B04322
:103FC8009968DB6803F0030311F00C010AD00C298F
:103FD80006D0042947D008293BD00022104626E005
:103FE800012BF6D14FF0B0431B6813F008030DD036
:103FF8004FF0B0431B6813F0080324D14FF0B042D0
:10400800D2F894202E4A52F823200EE04FF0B04206
:10401800126812F0080F12D14FF0B043D3F8943061
:10402800C3F30323264A52F82320D1B100204FF0CE
:10403800B0439B6803F00C030C2B1AD070474FF069
:10404800B0421268EEE74FF0B0431B68C3F30313A6
:10405800D8E74FF0B0431A6812F4801206D1194815
:10406800E5E71046E3E700221748E0E70022164894
:10407800DDE74FF0B043DB6803F00303022B09D000
:10408800032B08D14FF0B0431B6813F4801F15D1E0
:104098000C4A00E00C4A4FF0B043D868C0F3062041
:1040A80000FB02F2D868C0F302100130B2FBF0F254
:1040B800D868400F0130B2FBF0F0BFE7024AEAE7E8
:1040C800F42601080048E8010024F40008B5FFF7C9
:1040D80075FF4FF0B0439B68C3F30313024A52F8CD
:1040E8002330B0FBF3F008BD94260108002800F047
:1040F8001983F8B504464FF0B0439D6805F00C05E8
:10410800DE6806F00306036813F0200F00F08F80C6
:10411800EDB10C2D19D0236A002B00F0BC804FF0B4
:10412800B042136843F001031360FDF73DFC0746F6
:104138004FF0B0431B6813F0020F65D1FDF734FC54
:10414800C01B0228F4D90320F9E2012EE3D14FF075
:10415800B0431B6813F0020F03D0236A002B00F052
:10416800E382A06A4FF0B0431B6813F0080F29D010
:104178004FF0B0431B6803F0F00398422AD9FFF7C9
:10418800FBFE002840F0D2824FF0B0431A6842F09C
:1041980008021A601A6822F0F002A16A0A431A603B
:1041A800616A5A6822F47F4242EA01225A60FFF7A4
:1041B8008DFFB04B1860B04B1868FDF7F3FB002873
:1041C80035D0BCE24FF0B043D3F894301B0903F06C
:1041D800F003D2E74FF0B0431A6842F008021A60C1
:1041E8001A6822F0F002A16A0A431A60616A5A68E2
:1041F80022F47F4242EA01225A60A06AFFF7BCFE1D
:104208000028D4D001209AE24FF0B0431A6842F057
:1042180008021A601A6822F0F002A16A0A431A60BA
:10422800616A5A6822F47F4242EA01225A6023688E
:1042380013F0010F51D0082D45D00C2D41D04FF06F
:10424800B042136823F48013A1680B4313606368BA
:10425800B3F5803F63D0B3F5041F65D04FF0B0438A
:104268001A6822F480321A601A6822F400121A605E
:104278006368002B63D0FDF797FB07464FF0B04308
:104288001B6813F4003F28D1FDF78EFBC01B642880
:10429800F4D9032053E24FF0B042136823F001032E
:1042A8001360FDF781FB07464FF0B0431B6813F01E
:1042B800020FBCD0FDF778FBC01B0228F4D90320FD
:1042C8003DE2032EBBD14FF0B0431B6813F4003F0F
:1042D80003D06368002B00F02B82236813F0020FD1
:1042E80052D0042D3DD00C2D39D02369002B00F07D
:1042F80091804FF0B042136843F480731360FDF768
:1043080053FB06464FF0B0431B6813F4806F77D118
:10431800FDF74AFB801B0228F4D903200FE213683B
:1043280043F480331360A3E74FF0B0431A6842F4B4
:1043380000121A601A6842F480321A6098E7FDF792
:1043480033FB07464FF0B0431B6813F4003FC4D05B
:10435800FDF72AFBC01B6428F4D90320EFE1022EE5
:10436800C3D14FF0B0431B6813F4806F03D02369A7
:10437800002B00F0DF8161694FF0B042536823F0F1
:10438800FE4343EA01635360236813F0080F00F00B
:104398008E80A369002B71D04FF0B043D3F89430CE
:1043A800E16903F01002914211D003F00302022ADE
:1043B80000F0C28113F0010F42D14FF0B042D2F8A1
:1043C800943023F01003E1690B43C2F894304FF0A6
:1043D800B042D2F8943043F00103C2F89430FDF7AC
:1043E800E3FA06464FF0B043D3F8943013F0020FC7
:1043F8005DD1FDF7D9FA801B1128F3D903209EE17E
:1044080061694FF0B042536823F0FE4343EA016309
:104418005360B9E74FF0B042136823F48073136018
:10442800FDF7C2FA06464FF0B0431B6813F4806FDD
:10443800AAD0FDF7B9FA801B0228F4D903207EE13F
:104448004FF0B042D2F8943023F00103C2F8943010
:10445800FDF7AAFA06464FF0B043D3F8943013F0AC
:10446800020FAAD0FDF7A0FA801B1128F3D9032068
:1044780065E100BF70000020740000204FF0B042DA
:10448800D2F8943023F00103C2F89430FDF78CFA87
:1044980006464FF0B043D3F8943013F0020F06D01D
:1044A800FDF782FA801B1128F3D9032047E123681E
:1044B80013F0040F00F0B180A84B1B6813F4807F41
:1044C80010D1FFF779FCFDF76FFA0646A34B1B687E
:1044D80013F4807F06D1FDF767FA801B0228F5D90F
:1044E80003202CE1E368002B61D0852B01D0052B3C
:1044F80007D14FF0B042D2F8903043F00403C2F82D
:104508009030FDF751FA06464FF0B042D2F890309D
:1045180043F00103C2F890304FF0B043D3F8903025
:1045280013F0020F08D1FDF73FFA801B41F28833E0
:104538009842F1D9032002E1E368812B01D0852B51
:104548001AD1FDF731FA06464FF0B042D2F8903052
:1045580043F08003C2F890304FF0B043D3F8903066
:1045680013F4006F59D1FDF71FFA801B41F288330D
:104578009842F1D90320E2E0FDF716FA06464FF01B
:10458800B042D2F8903023F08003C2F890304FF058
:10459800B043D3F8903013F4006F3ED0FDF704FA1F
:1045A800801B41F288339842F1D90320C7E0FDF718
:1045B800FBF906464FF0B042D2F8903023F0800362
:1045C800C2F890304FF0B043D3F8903013F4006F36
:1045D80008D0FDF7E9F9801B41F288339842F1D9F8
:1045E8000320ACE0FDF7E0F906464FF0B042D2F800
:1045F800903023F00103C2F890304FF0B043D3F865
:10460800903013F0020F08D0FDF7CEF9801B41F26D
:1046180088339842F1D9032091E0E36A002B00F037
:104628008D800C2D62D0022B1FD04FF0B0431A683A
:1046380022F080721A60DA6822F00302DA60DA681F
:1046480022F0885222F48032DA60FDF7ADF9044690
:104658004FF0B0431B6813F0007F73D0FDF7A4F947
:10466800001B0A28F4D9032069E04FF0B042136810
:1046780023F080731360FDF797F905464FF0B043B8
:104688001B6813F0007F2AD14FF0B042D368344939
:104698001940236B606B0343A06B43EA0023E06B74
:1046A8000343206C0343606C03430B43D3601368DC
:1046B80043F080731360D36843F08053D360FDF7F1
:1046C80073F904464FF0B0431B6813F0007F37D1ED
:1046D800FDF76AF9001B0A28F4D903202FE0FDF73B
:1046E80063F9401B0A28C9D9032028E0012B2BD0E5
:1046F8004FF0B043DB6803F00301226B914225D1F0
:1047080003F07002616B8A4222D103F4FE42A16B6E
:10471800B2EB012F1ED103F06043626C93421BD1B0
:1047280000200CE001207047012008E0012006E08D
:10473800012004E0012002E0012000E00020F8BD93
:104748000020FCE70020FAE70120F8E70120F6E75F
:104758000120F4E70120F2E70120F0E70004005807
:104768008C80C111002800F0278170B50C460546E1
:10477800934B1B6803F007038B422DD32B6813F070
:10478800020F3FD12B6813F0200F53D12B6813F081
:10479800400F6AD12B6813F0040F40F083802B6818
:1047A80013F0080F40F097802B6813F0010F00F00A
:1047B800DE806B68022B00F0A880032B00F0AD8030
:1047C800002B40F0B2804FF0B042126812F0020F96
:1047D80040F0B1800120EEE0794A136823F0070326
:1047E8000B431360FDF7E0F80646754B1B6803F0B2
:1047F8000703A342C2D0FDF7D7F8801B0228F4D9DB
:104808000320D8E0AB684FF0B0418A6822F0F0028C
:1048180013438B60FDF7C8F806464FF0B0439B681A
:1048280013F4803FAED1FDF7BFF8801B0228F4D9FE
:104838000320C0E06B694FF0B041D1F8082122F0A5
:10484800F0021343C1F80831FDF7AEF806464FF001
:10485800B043D3F8083113F4003F97D1FDF7A4F81B
:10486800801B0228F3D90320A5E0A9694FF0B042C4
:10487800D2F8083123F00F0343EA1113C2F80831C4
:10488800FDF792F806464FF0B043D3F8083113F419
:10489800803F7FF47FAFFDF787F8801B0228F2D9AD
:1048A800032088E0EB684FF0B0418A6822F4E062A8
:1048B80013438B60FDF778F806464FF0B0439B68CA
:1048C80013F4003F7FF46BAFFDF76EF8801B0228EE
:1048D800F3D903206FE029694FF0B042936823F4BD
:1048E800605343EAC1039360FDF75EF806464FF054
:1048F800B0439B6813F4802F7FF456AFFDF754F84C
:10490800801B0228F3D9032055E04FF0B04212680B
:1049180012F4003F0FD101204DE04FF0B042126871
:1049280012F0007F07D1012045E04FF0B042126835
:1049380012F4806F42D04FF0B0418A6822F003022F
:1049480013438B60FDF730F806464FF0B0439B6881
:1049580003F00C036A68B3EB820F08D0FDF724F864
:10496800801B41F288339842EFD9032023E0144B8F
:104978001B6803F00703A34215D9114A136823F0F3
:10498800070323431360FDF70FF805460C4B1B681C
:1049980003F00703A34206D0FDF706F8401B0228E0
:1049A800F4D9032007E0FFF791FB064B1860064B8C
:1049B8001868FCF7F7FF70BD012070470120FAE77F
:1049C80000400058700000207400002008B5FFF770
:1049D8007DFB4FF0B0439B68C3F30223024A52F8B1
:1049E8002330D84008BD00BFD426010808B5FFF71A
:1049F8006DFB4FF0B0439B68C3F3C223024A52F8E1
:104A08002330D84008BD00BFD426010870B504463D
:104A1800036813F4803F40F0AB800025236813F04F
:104A2800010F0AD062684FF0B041D1F8883023EA0C
:104A3800124392B21343C1F88830236813F0020F6F
:104A48000AD0A2684FF0B041D1F8883023EA124367
:104A580092B21343C1F88830236813F0200F09D0AD
:104A680023694FF0B041D1F8882022F44062134303
:104A7800C1F88830236813F4007F0CD0206A4FF007
:104A8800B041D1F88830020C120423EA020343EA49
:104A98000043C1F88830236813F4806F0CD0606A33
:104AA8004FF0B041D1F88830020C120423EA020317
:104AB80043EA0043C1F88830236813F4006F0CD030
:104AC800A06A4FF0B041D1F88830020C120423EAF2
:104AD800020343EA0043C1F88830236813F0400F0B
:104AE80040F09E80236813F0800F40F0AA8023686E
:104AF80013F4807F40F0B680236813F0100F0ED0B7
:104B0800E3684FF0B041D1F8882022F44072134393
:104B1800C1F88830E368B3F5807F00F0B48023687B
:104B280013F4004F0FD0236B4FF0B041D1F8882019
:104B380022F040421343C1F88830236B1BB9CB687D
:104B480043F08073CB60236813F4804F0ED0E36A80
:104B58004FF0B041D1F8882022F040521343C1F8F9
:104B68008830E36AB3F1005F00F09280284670BD98
:104B7800FFF722F9FCF718FF0546484B1B6813F4AA
:104B8800807F06D1FCF710FF401B0228F5D90325CA
:104B980000E00025002D7FF441AF4FF0B043D3F87B
:104BA800903003F44073626B9A4224D04FF0B043C4
:104BB800D3F8902022F44072D3F8901041F4803159
:104BC800C3F89010D3F8901021F48031C3F89010F6
:104BD800C3F8902012F0020F0FD1002D7FF41EAF02
:104BE800636B4FF0B041D1F8902022F44072134328
:104BF800C1F8903012E70022ECE7FCF7D5FE064634
:104C08004FF0B043D3F8903013F0020FE5D1FCF722
:104C1800CBFE801B41F288339842F1D90325DCE7AB
:104C280063694FF0B040D0F88820190901F47F215A
:104C380022EA01021B0103F47F231343C0F88830E2
:104C480050E7A3694FF0B040D0F88820190901F463
:104C58007F2122EA01021B0103F47F231343C0F8DA
:104C6800883044E7E3694FF0B040D0F8882019094C
:104C780001F47F2122EA01021B0103F47F2313437D
:104C8800C0F8883038E7CB6843F08073CB6046E7DC
:104C9800CB6843F48033CB6068E700BF000400585A
:104CA80090F82C30012B36D0012380F82C300223C9
:104CB80080F82D30194BCA225A6253225A62B1F534
:104CC800807F19D0154B9A6922F408529A61DA6CE0
:104CD80022F00042DA64026B22F00202026302222E
:104CE800DA650E4BFF225A62012380F82D3000232B
:104CF80080F82C30184670479A6922F488529A61D5
:104D08005A6C22F000425A64026B22F001020263DC
:104D18000122DA65E5E70220704700BF002800405D
:104D280038B504460D4B5D6D036B1D4015F0010F42
:104D380006D115F0020F09D1012384F82D3038BDB2
:104D4800064B0122DA65FCF7D1FFF2E7034B02229A
:104D5800DA65204600F0E6F9EEE700BF00280040DB
:104D680010B50B4AD36823F02003D360FCF71CFE70
:104D78000446074BDB6813F0200F07D1FCF714FE3D
:104D8800001BB0F57A7FF4D9032000E0002010BDA5
:104D98000028004070B5114BDB6813F0400F02D0BB
:104DA8000024204670BD06460C4AD36843F08003B1
:104DB800D360FCF7F9FD05460024084BDB6813F0C7
:104DC800400FEED1032CECD0FCF7EEFD431BB3F5FE
:104DD8007A7FF2D9032486F82D40EEE700280040B8
:104DE80010B50446114BDA6822F08002DA609B693C
:104DF80013F0200F07D1FFF7B3FF0346A0B1032339
:104E080084F82D3010E0094A936923F02003936158
:104E1800FFF7A6FF034610B1032384F82D3003499A
:104E28008A6942F020028A61184610BD00280040B5
:104E380000284AD038B5044690F82D309BB102239B
:104E480084F82D30224BCA225A6253225A622046D5
:104E5800FFF7A0FF60B11E4BFF225A6210B9012371
:104E680084F82D3038BD80F82C30FCF727FCE6E7B5
:104E7800174B9A6922F08E6222F040029A61996972
:104E8800626820690243A06902430A439A61E268A2
:104E9800A16842EA01421A61DA6822F4F852616AAA
:104EA800A06A01430A43DA602046FFF799FF002809
:104EB800D1D107498B6923F06043226AE5692A4307
:104EC80065692A4313438B61C5E70120704700BF1A
:104ED80000280040002302E001330A38C0B2092844
:104EE800FAD81B01DBB218437047000090F82C3049
:104EF800012B00F0B0802DE9F04105460C46012356
:104F080080F82C30022380F82D30544BDE6806F4EC
:104F18004076B6F5807F43D012BB9B6913F0400FF3
:104F280001D10023CB70D4F814802078FFF7D2FF8A
:104F380007046078FFF7CEFF47EA0027A078FFF75D
:104F4800C9FF0743E07847EA805794F82400FFF741
:104F5800C1FF47EA0060276A384348EA000020E0BA
:104F68004869B0F1803F09D0B0F5000F06D03B4B3F
:104F78009B6913F0400F01D10023CB70227863782E
:104F88001B0243EA0243A2781343E27843EA8253BE
:104F980094F8242043EA0263226A1343184300E08A
:104FA80000202E4BCA225A6253225A62A36AB3F5D2
:104FB800807F2AD0294B9A6922F408529A610222EA
:104FC800DA65B6F5807F40D0244B9864A269DA642C
:104FD8006268224B5A672A6B42F002022A639A6976
:104FE80042F408529A611E4AD2F8803043F40033E2
:104FF800C2F88030194BFF225A62012385F82D3000
:10500800002085F82C00BDE8F081144B9A6922F441
:1050180088529A610122DA65B6F5807F0FD00F4B6E
:105028001864A2695A6462680C4B1A672A6B42F0CA
:1050380001022A639A6942F488529A61D3E7A36904
:10504800E2691343054A5364EDE7A369E269134330
:10505800024AD364BCE70220704700BF0028004022
:105068000008005890F82C30012B17D0012180F847
:105078002C10022380F82D30094BCA225A62532281
:105088005A629A6942F020029A61FF225A6280F8B5
:105098002D10002380F82C301846704702207047E6
:1050A8000028004090F82C30012B20D010B40121AA
:1050B80080F82C10022380F82D300E4BCA225A6239
:1050C80053225A629A6942F080029A610A4CD4F8D3
:1050D800802042F48022C4F88020FF225A6280F89F
:1050E8002D10002380F82C30184610BC7047022081
:1050F800704700BF002800400008005810B504465B
:10510800074B5B6D13F0400F03D1012384F82D305A
:1051180010BD034B4022DA65FCF7ECFDF5E700BF54
:10512800002800407047890001F1804101F53141B4
:105138000A607047890001F1804101F53141086832
:1051480070470000074B1A6822F040021A6040F4CA
:10515800417018604FF4B8525A601A6842F0400221
:105168001A6070470000015830B583B000284ED04F
:1051780004468379002B3BD00223A3714FF0B04241
:10518800D2F8943023F40043C2F89430214B1B68C2
:10519800C3EBC303C3F34C43642202FB03F3019341
:1051A800019B4BB3019B013B01934FF0B043D3F8F4
:1051B800943013F4804FF3D10025174BD3F8902087
:1051C80042F40042C3F890201449D1F8902042F4E8
:1051D8008052C1F890209A6842F400629A604FF4B5
:1051E80000629A615DB10123A371284603B030BD06
:1051F8004371FCF703FBBFE70125A560DDE72068E5
:10520800FFF7A0FF012323710023A360EBE701252B
:10521800EBE700BF700000200004005800080058A9
:1052280082B002461A4B1B68C3EBC303C3F34C435B
:10523800642000FB03F30193019B4BB1019B013BED
:105248000193144B9B6813F0020FF5D0002001E086
:10525800012090600F4B19730D4B1B68C3EBC30300
:10526800C3F34C43642101FB03F30193019B43B156
:10527800019B013B0193074B9B6813F0010FF5D08D
:1052880001E001209060034BDB6802B0704700BF6B
:10529800700000200000015882B002461C4B1B68B9
:1052A800C3EBC303C3F34C43642000FB03F3019334
:1052B800019B4BB1019B013B0193164B9B6813F07B
:1052C800020FF5D0002001E001209060114B4FF053
:1052D800FF0C83F80CC00E4B1B68C3EBC303C3F36E
:1052E8004C434FF0640C0CFB03F30193019B43B157
:1052F800019B013B0193074B9B6813F0010FF5D00D
:1053080001E001209060034BDB680B7002B070472E
:10531800700000200000015882B0134B1B6803EB9B
:105328004303C3F34B43642202FB03F3019306E0F8
:1053380002238360012002B07047134212D00B4B46
:105348005B6913F0040300D00123019A002AEFD00F
:10535800019A013A0192054A526912F00202ECD010
:105368000122EAE70020E6E7700000200004005868
:1053780000B583B00379012B04D0FFF7CDFF03B04C
:105388005DF804FB0D4B1B6803EB4303C3F34F337A
:1053980001930B4AD2F8903023F40043C2F89030BE
:1053A800019B013B0193019B002BF9D1044AD2F8E0
:1053B800903043F40043C2F89030DEE770000020DC
:1053C800000400582DE9F041054680795FFA80F81D
:1053D800B8F1010F3ED10C4617461E466B79012BDA
:1053E8003BD001236B710223AB712846FFF7C0FF46
:1053F8001B4AD2F8903023F40043C2F890300D21B4
:105408002846FFF70DFF210A2846FFF709FFE1B2FA
:105418002846FFF705FF002405E0395D2846FFF719
:10542800FFFE0134A4B2B442F7D30D4AD2F890304B
:1054380043F40043C2F890302846FFF76DFFAB688D
:105448000BB94FF000080123AB7100236B71404684
:10545800BDE8F0814FF00208F9E74FF00208F6E7DF
:10546800000400582DE9F041064680795FFA80F87B
:10547800B8F1010F41D10C4615461F467379012B2F
:105488003ED0012373713046FFF772FF1E4AD2F8EF
:10549800903023F40043C2F890301D213046FFF7C6
:1054A800BFFE210A3046FFF7BBFEE1B23046FFF7E8
:1054B800B7FE00213046FFF7B3FE002406E0294678
:1054C8003046FFF7E9FE01350134A4B2BC42F6D3F9
:1054D8000D4AD2F8903043F40043C2F89030304679
:1054E800FFF71AFFB3680BB94FF000080123B37137
:1054F800002373714046BDE8F0814FF00208F9E7D8
:105508004FF00208F6E700BF000400582DE9F84301
:10551800054680795FFA80F9B9F1010F43D18846D1
:1055280017461E466B79012B40D001236B71284624
:10553800FFF71EFFB8F1840F05D0B8F1940F02D021
:1055480000232B7101E001232B711A4AD2F8903005
:1055580023F40043C2F8903041462846FFF760FE26
:10556800002405E0395D2846FFF75AFE0134A4B24D
:10557800B442F7D30F4AD2F8903043F40043C2F84C
:105588009030B8F1840F0AD1AB680BB94FF000091D
:105598000123AB7100236B714846BDE8F8832846A8
:1055A800FFF7BAFEF0E74FF00209F5E74FF00209FE
:1055B800F2E700BF000400582DE9F0410646807963
:1055C8005FFA80F8B8F1010F39D10C4615461F462D
:1055D8007379012B36D0012373713046FFF7C8FE6B
:1055E8001A4AD2F8903023F40043C2F8903021468A
:1055F8003046FFF715FE00213046FFF711FE002464
:1056080006E029463046FFF747FE01350134A4B2CB
:10561800BC42F6D30D4AD2F8903043F40043C2F8A6
:1056280090303046FFF778FEB3680BB94FF00008AA
:105638000123B371002373714046BDE8F0814FF038
:105648000208F9E74FF00208F6E700BF0004005827
:1056580030B583B005460023ADF80430022301AA13
:105668001221FFF7A9FF9DF804409DF8053043EA91
:10567800042413F0010F26D114F0020F27D114F0DF
:10568800040F28D114F0080F29D114F0100F2AD1D3
:1056980014F0200F2BD114F0400F2CD114F0800FF0
:1056A80006D014F4807F2AD0012128460BF074FD1F
:1056B80014F4007F28D1022301AA19462846FFF7CF
:1056C80025FF03B030BD28460BF04EFDD4E7284631
:1056D8000BF052FDD3E728460BF082FDD2E72846AF
:1056E8000BF086FDD1E728460BF08AFDD0E7284667
:1056F8000BF06EFDCFE728460BF046FDCEE7002104
:1057080028460BF049FDD3E728460BF057FDD2E7B2
:105718002DE9F041054680795FFA80F8B8F1010F6C
:1057280038D10C4617461E466B79012B35D001231C
:105738006B712846FFF71CFE194AD2F8903023F403
:105748000043C2F890300E212846FFF769FD214634
:105758002846FFF765FD002405E0395D2846FFF778
:105768005FFD0134A4B2B442F7D30D4AD2F89030A9
:1057780043F40043C2F890302846FFF7CDFDAB68EC
:105788000BB94FF000080123AB7100236B71404641
:10579800BDE8F0814FF00208F9E74FF00208F6E79C
:1057A800000400582DE9F041064680795FFA80F838
:1057B800B8F1010F3DD10C4615461F467379012BF0
:1057C8003AD0012373713046FFF7D2FD1C4AD2F854
:1057D800903023F40043C2F890301E213046FFF782
:1057E8001FFD21463046FFF71BFD00213046FFF71D
:1057F80017FD002406E029463046FFF74DFD013528
:105808000134A4B2BC42F6D30D4AD2F8903043F426
:105818000043C2F890303046FFF77EFDB3680BB9FD
:105828004FF000080123B371002373714046BDE8AF
:10583800F0814FF00208F9E74FF00208F6E700BFE1
:1058480000040058026852E8003F23F0C00342E811
:1058580000310029F6D1026802F1080353E8003F3D
:1058680023F40003083242E800310029F3D1202351
:10587800C0F884307047026852E8003F23F4907300
:1058880042E800310029F6D1026802F1080353E822
:10589800003F23F0805323F00103083242E800312F
:1058A8000029F1D1C36E012B06D02023C0F888301F
:1058B8000023C36603677047026852E8003F23F07D
:1058C800100342E800310029F6D1EEE7D0F8843021
:1058D800202B4CD110B5044600294AD0002A4AD0C2
:1058E80090F88030012B48D0012380F88030016582
:1058F800A0F85420A0F856200023C0F88C302123AB
:10590800C0F88430836FF3B11D49D962836F1D4994
:105918001963836F1C495963836F00219963016878
:10592800134601F12802016D806FFDF781FA50B12D
:105938001023C4F88C30002384F880302023C4F866
:105948008430012012E0236840221A62002384F880
:105958008030226802F1080353E8003F43F08003D7
:10596800083242E800310029F3D1002010BD02209E
:1059780070470120FAE70120F8E70220F6E700BFA8
:1059880095590008035A00080F5A000808B503463D
:10599800806A1B681B6813F0200F18D10023A0F839
:1059A8005630026802F1080353E8003F23F08003F1
:1059B800083242E800310029F3D1026852E8003F7A
:1059C80043F0400342E800310029F6D108BDFCF756
:1059D800D1FAFBE708B5026852E8003F23F040031C
:1059E80042E800310029F6D12023C0F88430002392
:1059F8004367FCF7BFFA08BD704708B5806AFFF730
:105A0800FBFF08BD704738B5846AD4F88420D4F801
:105A1800885023689B6813F0800F01D0212A10D08A
:105A280023689B6813F0400F01D0222D10D0D4F8C2
:105A38008C3043F01003C4F88C302046FFF7E2FFA7
:105A480038BD0023A4F856302046FFF7FBFEE7E7F1
:105A58000023A4F85E302046FFF70DFFE7E708B5FE
:105A6800806A0023A0F85E30A0F85630FFF7CAFF1E
:105A780008BD704770B504460168CB6908688D6831
:105A880040F60F021A4008D113F0200F05D010F08D
:105A9800200F34D115F0805F31D12AB1954A2A40C0
:105AA80033D1954E304230D1E26E012A00F0C380E6
:105AB80013F4801F03D015F4800F40F05B8113F0BE
:105AC800800F07D010F0800F40F05B8115F4000FB5
