:020000040800F2
:10000000008000208D27000865160008671600088C
:10001000691600086B1600086D1600080000000045
:100020000000000000000000000000006F16000843
:10003000711600080000000073160008751600080D
:10004000DD270008DD27000879160008DD270008F5
:10005000DD270008DD270008851600088B1600083C
:10006000DD270008DD270008DD270008DD27000860
:10007000DD270008DD270008DD27000891160008AD
:10008000DD270008DD270008DD270008DD27000840
:1000900000000000DD2700089D160008DD2700088D
:1000A000DD270008DD270008DD270008DD27000820
:1000B000DD270008DD270008DD270008DD27000810
:1000C000DD270008DD270008DD270008DD27000800
:1000D000DD270008A5160008DD270008DD27000839
:1000E000DD270008DD270008B1160008DD2700081D
:1000F000DD2700080000000000000000DD270008E8
:10010000DD270008DD270008BD160008DD270008F0
:10011000DD270008DD270008DD270008DD270008AF
:10012000DD270008DD270008DD270008DD2700089F
:08013000DD270008DD270008AF
:1001380010B5054C237833B9044B13B10448AFF319
:1001480000800123237010BD18010020000000006A
:10015800E8FE000808B5034B1BB103490348AFF399
:10016800008008BD000000001C010020E8FE000817
:10017800034613F8012B002AFBD1181A01387047DF
:1001880081F0004102E000BF83F0004330B54FEA40
:1001980041044FEA430594EA050F08BF90EA020FAD
:1001A8001FBF54EA000C55EA020C7FEA645C7FEA40
:1001B800655C00F0E2804FEA5454D4EB5555B8BF63
:1001C8006D420CDD2C4480EA020281EA030382EAD4
:1001D800000083EA010180EA020281EA0303362D66
:1001E80088BF30BD11F0004F4FEA01314FF4801C39
:1001F8004CEA113102D0404261EB410113F0004F4B
:100208004FEA03334CEA133302D0524263EB430301
:1002180094EA050F00F0A780A4F10104D5F1200E9F
:100228000DDB02FA0EFC22FA05F2801841F10001FA
:1002380003FA0EF2801843FA05F359410EE0A5F1CE
:1002480020050EF1200E012A03FA0EFC28BF4CF0FF
:10025800020C43FA05F3C01851EBE37101F00045B5
:1002680007D54FF0000EDCF1000C7EEB00006EEBC2
:100278000101B1F5801F1BD3B1F5001F0CD349084C
:100288005FEA30004FEA3C0C04F101044FEA4452A3
:1002980012F5800F80F09A80BCF1004F08BF5FEA2A
:1002A800500C50F1000041EB045141EA050130BD0A
:1002B8005FEA4C0C404141EB0101013C28BFB1F51C
:1002C800801FE9D291F0000F04BF01460020B1FA67
:1002D80081F308BF2033A3F10B03B3F120020CDA3A
:1002E8000C3208DD02F1140CC2F10C0201FA0CF018
:1002F80021FA02F10CE002F11402D8BFC2F1200C7D
:1003080001FA02F120FA0CFCDCBF41EA0C01904032
:10031800E41AA2BF01EB0451294330BD6FEA04047B
:100328001F3C1CDA0C340EDC04F11404C4F1200266
:1003380020FA04F001FA02F340EA030021FA04F378
:1003480045EA030130BDC4F10C04C4F1200220FACF
:1003580002F001FA04F340EA0300294630BD21FA0D
:1003680004F0294630BD94F0000F83F4801306BFD3
:1003780081F480110134013D4EE77FEA645C18BFC7
:100388007FEA655C29D094EA050F08BF90EA020F5E
:1003980005D054EA000C04BF1946104630BD91EA56
:1003A800030F1EBF0021002030BD5FEA545C05D159
:1003B8004000494128BF41F0004130BD14F5800498
:1003C8003CBF01F5801130BD01F0004545F0FE410C
:1003D80041F470014FF0000030BD7FEA645C1ABF41
:1003E800194610467FEA655C1CBF0B46024650EA78
:1003F800013406BF52EA033591EA030F41F40021A4
:1004080030BD00BF90F0000F04BF0021704730B529
:100418004FF4806404F132044FF000054FF00001FE
:1004280050E700BF90F0000F04BF0021704730B5BF
:100438004FF4806404F1320410F0004548BF404294
:100448004FF000013EE700BF42004FEAE2014FEAE9
:1004580031014FEA02701FBF12F07F4393F07F4FC4
:1004680081F06051704732F07F4208BF704793F0C7
:100478007F4F04BF41F40021704730B54FF46074DA
:1004880001F0004521F000411CE700BF50EA0102DD
:1004980008BF704730B54FF000050AE050EA010286
:1004A80008BF704730B511F0004502D5404261EBF6
:1004B80041014FF4806404F132045FEA915C3FF437
:1004C800D8AE4FF003025FEADC0C18BF03325FEAD4
:1004D800DC0C18BF033202EBDC02C2F1200300FA85
:1004E80003FC20FA02F001FA03FE40EA0E0021FAAA
:1004F80002F11444BDE600BF4FF0FF3C06E000BF28
:100508004FF0010C02E000BF4FF0010C4DF804CD94
:100518004FEA410C7FEA6C5C4FEA430C18BF7FEA54
:100528006C5C1BD001B050EA410C0CBF52EA430C82
:1005380091EA030F02BF90EA020F0020704710F102
:10054800000F91EA030F58BF994208BF90422CBF91
:10055800D8176FEAE37040F0010070474FEA410C8A
:100568007FEA6C5C02D150EA013C07D14FEA430CA8
:100578007FEA6C5CD6D152EA033CD3D05DF8040B19
:10058800704700BF8446104662468C46194663464B
:1005980000E000BF01B5FFF7B7FF002848BF10F122
:1005A800000F01BD4DF808EDFFF7F4FF0CBF012067
:1005B80000205DF808FB00BF4DF808EDFFF7EAFFE3
:1005C80034BF012000205DF808FB00BF4DF808ED9E
:1005D800FFF7E0FF94BF012000205DF808FB00BF93
:1005E8004DF808EDFFF7CEFF94BF012000205DF81D
:1005F80008FB00BF4DF808EDFFF7C4FF34BF01202A
:1006080000205DF808FB00BF4FEA410212F5001216
:1006180015D211D56FF47873B3EB625212D94FEA41
:10062800C12343F0004343EA505311F0004F23FA2B
:1006380002F018BF404270474FF00000704750EA80
:10064800013005D111F0004008BF6FF0004070473D
:100658004FF00000704700BF80F0004002E000BF8C
:1006680081F0004142001FBF5FEA410392EA030F95
:100678007FEA226C7FEA236C6AD04FEA1262D2EBDF
:100688001363C1BFD218414048404140B8BF5B42E4
:10069800192B88BF704710F0004F40F4000020F07D
:1006A8007F4018BF404211F0004F41F4000121F093
:1006B8007F4118BF494292EA030F3FD0A2F10102DD
:1006C80041FA03FC10EB0C00C3F1200301FA03F11B
:1006D80000F0004302D5494260EB4000B0F5000F3E
:1006E80013D3B0F1807F06D340084FEA310102F1FD
:1006F8000102FE2A51D2B1F1004F40EBC25008BFAF
:1007080020F0010040EA03007047490040EB000078
:10071800013A28BFB0F5000FEDD2B0FA80FCACF179
:10072800080CB2EB0C0200FA0CF0AABF00EBC250A6
:1007380052421843BCBFD0401843704792F0000F94
:1007480081F4000106BF80F400000132013BB5E7E7
:100758004FEA41037FEA226C18BF7FEA236C21D05D
:1007680092EA030F04D092F0000F08BF08467047C2
:1007780090EA010F1CBF0020704712F07F4F04D190
:10078800400028BF40F00040704712F100723CBFA3
:1007980000F50000704700F0004343F0FE4040F4CD
:1007A800000070477FEA226216BF08467FEA23638B
:1007B8000146420206BF5FEA412390EA010F40F476
:1007C800800070474FF0000304E000BF10F00043C2
:1007D80048BF40425FEA000C08BF704743F09643A9
:1007E80001464FF000001CE050EA010208BF7047C4
:1007F8004FF000030AE000BF50EA010208BF70474B
:1008080011F0004302D5404261EB41015FEA010C5F
:1008180002BF84460146002043F0B64308BFA3F157
:100828008053A3F50003BCFA8CF2083AA3EBC25339
:1008380010DB01FA02FC634400FA02FCC2F1200258
:10084800BCF1004F20FA02F243EB020008BF20F08F
:100858000100704702F1200201FA02FCC2F12002F5
:1008680050EA4C0021FA02F243EB020008BF20EAEA
:10087800DC7070474FF0FF0C1CEAD0521EBF1CEA18
:10088800D15392EA0C0F93EA0C0F6FD01A4480EA06
:10089800010C400218BF5FEA41211ED04FF00063EF
:1008A80043EA501043EA5111A0FB01310CF000401B
:1008B800B1F5000F3EBF490041EAD3715B0040EA41
:1008C800010062F17F02FD2A1DD8B3F1004F40EB11
:1008D800C25008BF20F00100704790F0000F0CF0E4
:1008E800004C08BF49024CEA502040EA51207F3AA8
:1008F800C2BFD2F1FF0340EAC250704740F4000083
:100908004FF00003013A5DDC12F1190FDCBF00F073
:1009180000407047C2F10002410021FA02F1C2F121
:10092800200200FA02FC5FEA310040F1000053EABD
:100938004C0308BF20EADC70704792F0000F00F00B
:10094800004C02BF400010F4000F013AF9D040EA11
:100958000C0093F0000F01F0004C02BF490011F4A5
:10096800000F013BF9D041EA0C018FE70CEAD153A3
:1009780092EA0C0F18BF93EA0C0F0AD030F0004C23
:1009880018BF31F0004CD8D180EA010000F00040D7
:10099800704790F0000F17BF90F0004F084691F095
:1009A800000F91F0004F14D092EA0C0F01D14202CF
:1009B8000FD193EA0C0F03D14B0218BF084608D198
:1009C80080EA010000F0004040F0FE4040F40000E2
:1009D800704740F0FE4040F4400070474FF0FF0C75
:1009E8001CEAD0521EBF1CEAD15392EA0C0F93EABC
:1009F8000C0F69D0A2EB030280EA010C49024FEA0E
:100A0800402037D04FF0805343EA111143EA1013C6
:100A18000CF000408B4238BF5B0042F17D024FF47E
:100A2800000C8B4224BF5B1A40EA0C00B3EB510F59
:100A380024BFA3EB510340EA5C00B3EB910F24BF42
:100A4800A3EB910340EA9C00B3EBD10F24BFA3EBC7
:100A5800D10340EADC001B0118BF5FEA1C1CE0D18F
:100A6800FD2A3FF650AF8B4240EBC25008BF20F042
:100A7800010070470CF0004C4CEA50207F32C2BF96
:100A8800D2F1FF0340EAC250704740F400004FF033
:100A98000003013A37E792F0000F00F0004C02BF64
:100AA800400010F4000F013AF9D040EA0C0093F02E
:100AB800000F01F0004C02BF490011F4000F013B88
:100AC800F9D041EA0C0195E70CEAD15392EA0C0FF0
:100AD80008D142027FF47DAF93EA0C0F7FF470AF28
:100AE800084676E793EA0C0F04D14B023FF44CAF6B
:100AF80008466EE730F0004C18BF31F0004CCAD100
:100B080030F000427FF45CAF31F000437FF43CAF3B
:100B18005FE700BF4FEA4002B2F1FE4F0FD34FF03C
:100B28009E03B3EB12620DD94FEA002343F0004352
:100B380010F0004F23FA02F018BF404270474FF000
:100B48000000704712F1610F01D1420205D110F087
:100B5800004008BF6FF0004070474FF0000070473A
:100B680042000ED2B2F1FE4F0BD34FF09E03B3EB0F
:100B7800126209D44FEA002343F0004323FA02F03B
:100B880070474FF00000704712F1610F01D1420227
:100B980002D14FF0FF3070474FF00000704700BFA0
:100BA80053B94AB9002908BF00281CBF4FF0FF31CC
:100BB8004FF0FF3000F074B9ADF1080C6DE904CEC8
:100BC80000F006F8DDF804E0DDE9022304B0704720
:100BD8002DE9F047089E0D4604468846002B4DD166
:100BE8008A42944668D9B2FA82F252B101FA02F303
:100BF800C2F1200120FA01F10CFA02FC41EA0308D3
:100C080094404FEA1C45210CB8FBF5FE1FFA8CF7FF
:100C180005FB1E8341EA03430EFB07F199420BD9FA
:100C28001CEB03030EF1FF3080F01E81994240F265
:100C38001B81AEF1020E63445B1AA4B2B3FBF5F05C
:100C480005FB103344EA034400FB07F7A7420AD91F
:100C58001CEB040400F1FF3380F00881A74240F246
:100C6800058164440238E41B40EA0E4000211EB1AD
:100C7800D4400023C6E90043BDE8F0878B4208D979
:100C8800002E00F0EE800021C6E900050846BDE808
:100C9800F087B3FA83F100294AD1AB4202D38242EA
:100CA80000F2F980841A65EB030301209846002EB0
:100CB800E2D0C6E90048DFE702B9FFDEB2FA82F205
:100CC800002A40F09180A1EB0C054FEA1C471FFA5F
:100CD8008CFE0121B5FBF7F307FB1350250C45EA01
:100CE80000450EFB03F0A84208D91CEB050503F1EB
:100CF800FF3802D2A84200F2CB8043462D1AA4B294
:100D0800B5FBF7F007FB105544EA05440EFB00FE5F
:100D1800A64508D91CEB040400F1FF3502D2A6450C
:100D280000F2BB802846A4EB0E0440EA03409EE78D
:100D3800C1F120078B4022FA07FC4CEA030C20FA89
:100D480007F405FA01F31C43FD404FEA1C4900FA79
:100D580001F3B5FBF9F8200C1FFA8CFE09FB1855B6
:100D680040EA054508FB0EF0A84202FA01F20BD949
:100D78001CEB050508F1FF3A80F08880A84240F294
:100D88008580A8F1020865442D1AA4B2B5FBF9F0D4
:100D980009FB105544EA054500FB0EFEAE4508D98F
:100DA8001CEB050500F1FF346CD2AE456AD9023858
:100DB800654440EA0840A0FB0294A5EB0E05A54255
:100DC800C846A64656D353D05EB1B3EB080265EBCE
:100DD8000E0505FA07F722FA01F3CD401F43C6E9CD
:100DE80000750021BDE8F087C2F1200320FA03F165
:100DF8000CFA02FC25FA03F395400D434FEA1C4711
:100E08001FFA8CFEB3FBF7F107FB11302B0C43EAFA
:100E1800004301FB0EF0984204FA02F408D91CEBD7
:100E2800030301F1FF382FD298422DD902396344C8
:100E38001B1AADB2B3FBF7F007FB103345EA0345C5
:100E480000FB0EF3AB4208D91CEB050500F1FF3897
:100E580016D2AB4214D902386544ED1A40EA014172
:100E680038E73146304607E78646E5E61846FAE6AB
:100E78004B45A9D2B9EB020864EB0C0E0138A3E785
:100E88004046EAE7204694E74146D1E7D0467BE76B
:100E9800023B654432E7084609E76444023842E702
:100EA800704700BF1348144A08B54FF00043C0E923
:100EB80000230422002342610122C2614FF48051C1
:100EC80007220383C0E90233C0E90933C0E90C12E1
:100ED8000361837680F8203080F82C30826380F8B4
:100EE8003C30C36401F0CAFC18B1BDE8084000F00A
:100EF80017BB08BD34010020002401400268084BDC
:100F08009A4282B00AD14FF0B0431A6E42F400728E
:100F18001A661B6E03F400730193019B02B07047BD
:100F2800002401400268054B9A4201BF4FF0B042CD
:100F3800136E23F400731366704700BF002401404A
:100F480030B585B000240546CDE901440394FFF788
:100F5800A9FF144802F02CF808B100F0E1FA114892
:100F6800039401A9CDE9015401F0E6FD08B100F0B0
:100F7800D7FA0C4801F046FF08B100F0D1FA4FF05B
:100F8800FF31084801F07AFD064801F0F3FF0548F3
:100F980001F0CFFD0446034801F096FF204605B056
:100FA80030BD00BF34010020014B024A1A6070476F
:100FB800340100200024014008B50948FFF7C0FFAC
:100FC80068B1084BB3F8AA304FF6FF72934216BFC8
:100FD80040F6E442044B5343B3FBF0F080B208BD43
:100FE800002000B40075FF1FD8084C0013B500237B
:100FF800ADF80630FFF7E0FF04461948FFF7A0FFF9
:101008001849B1F8C820B1F8A8108A4204FB00F0CA
:1010180018D040F6E443B0FBF3F364205B1A434373
:10102800521A93FBF2F31E331BB2ADF80630BDF82B
:1010380006305BB21B02ADF80630BDF8060000B200
:1010480002B010BD40F6FF73B0FBF3F34FF47A70B3
:101058004343A3F53923A3F50C6340F6C412E0E734
:10106800001000B00075FF1F4FF0B04307B59A6C31
:1010780042F004029A649A6C02F004020192019A06
:101088009A6C42F001029A649B6C03F0010300938E
:10109800002202210F20009B02F028F80F2003B045
:1010A8005DF804EB02F054B808B502F0B1FA10B1DB
:1010B8006FF0040008BD064B9A6942F040429A61FD
:1010C8004CF2FA321A6102F0B5FA0028F2D0EFE7D2
:1010D80000400058F0B585B000230C460093064642
:1010E800A8B3FFF7E1FF054670BB02F091FA88BB91
:1010F8001A481B4A02230193D0F8E01506F17843F9
:1011080002EA8121B3FBF1F701FB1733DB0A0293F3
:10111800D0F8E00504F17841013902EA8020314431
:10112800B1FBF0F200FB1211C3EBD1230133694686
:1011380001A8039302F0FEFA20B102280CBF012592
:101148006FF0010502F076FA284605B0F0BD6FF0A1
:101158000505F9E76FF00405F6E700BF0070FF1F0B
:1011680000FCFF03014B1860002070479801002025
:101178002DE9F04F89B0B0F1006F06460F46009296
:10118800C0F0C580DFF89881664DD8F8E03505EAEB
:10119800832303F10063013B984200F2B8800028E2
:1011A80000F0B880002900F0B58040EA02035B0730
:1011B80040F0B080FFF778FF0446A0BB02F028FAA1
:1011C800002840F0AA80D8F8E01506F1784205EA30
:1011D8008121B2FBF1F301FB1322009B03F1784359
:1011E800013B3344B3FBF1F001FB1033DB0A01335D
:1011F8004FEAD22AA3EBD222012A039388BFC6F36F
:101208000A050AF58038C6F1080398BF009D0693C1
:1012180088BFC5F500654FEAC828B346039B9A45C1
:1012280005D302F007FA204609B0BDE8F08FA6F111
:101238000803069A1A44954219D804950197CDF8DF
:1012480014B04FF00009059B09EB0301049B994575
:101258003ED3009BAB442F445D1BB5F5006F28BF00
:101268004FF400650AF1010A08F50068D6E753F85B
:10127800081F5A68B2F1FF3F08BFB1F1FF3FD8D04D
:10128800294B186810B96FF00504CAE7B8F1000FC8
:1012980004D04FF4006241460EF050F9DFF8889010
:1012A800D9F80000CBF30A0339461844AAB20EF065
:1012B80045F94FF400614046FFF70CFF08BBD9F829
:1012C800003001934FF40063CDF814800493B8E71D
:1012D800019B07914B4402930120D3E9002302F0BC
:1012E800E3F988B90799019BD1E9000259F803107D
:1012F800029B5B689A4208BF884205D109F1080938
:10130800A1E76FF001048CE76FF0030489E74FF061
:10131800FF3488E76FF0050485E76FF0040482E77F
:101328000070FF1F00FCFF0398010020B1F1006F5F
:1013380070B511D30B4BD3F8E0650B4B03EA86234A
:1013480003F10063013B994206D840B139B192B22A
:101358000EF0F4F8002070BD4FF0FF30FBE76FF09F
:101368000500F8E70070FF1F00FCFF03B0F1006FF5
:1013780010B40DD3084BD3F8E045084B03EA842397
:1013880003F10063013B984202D810BCFFF7A2BEEC
:101398004FF0FF3010BC70470070FF1F00FCFF03C8
:1013A8004FF0B04382B0DA6C0243DA64DB6C184069
:1013B8000190019B02B070472DE9F04186B01422DC
:1013C800002101A80EF002FD0220FFF7E9FF294ED7
:1013D8000420FFF7E5FF0120FFF7E2FF4FF43A4151
:1013E8000022304602F014FB01254FF40A43002482
:1013F800CDE9013501A902233046CDE903434FF079
:10140800030802F0E5F94FF4041701A94FF09040E2
:10141800CDE90187039502F0DBF94FF4405301A9A8
:101428003046CDE90135CDE9034802F0D1F9402332
:1014380001A911480395CDE9013702F0C9F92246FF
:101448002146062001F052FE062001F081FE2246C8
:101458002146072001F04AFE072001F079FE2246C6
:101468002146162001F042FE162001F071FE06B05A
:10147800BDE8F081000400480008004800B59BB0B2
:101488004822002108A80EF0A1FC1C22002101A876
:101498000EF09CFC02F0D6FA4FF0B0420120D2F8D0
:1014A800903023F01803C2F89030D2F8003423F4B7
:1014B800C06343F40073C2F80034D2F8003403F474
:1014C800C0630093009B2423089381230B9300237C
:1014D800CDE91003B02208A8CDE9122302F02AFCB6
:1014E80008B172B6FEE74F23CDE90130CDE903001C
:1014F80005900790022101A802F0B4FE08B172B667
:10150800FEE71BB05DF804FB08B501F065F9FFF7CD
:10151800B5FFFFF751FF00F087FC00F08CFCFCE7FB
:1015280072B6FEE700B58DB02C22002101A80EF09E
:101538004DFC1748174B03601F2383604FF0804210
:101548000023C0E90433C0E9072383614FF48073A3
:10155800436203F055F908B1FFF7E2FF0C4803F0C6
:101568007BFA08B1FFF7DCFF4FF000530022079326
:10157800074808924FF4807301A9029206920B93D0
:1015880003F09EF908B1FFF7CBFF0DB05DF804FB3F
:101598009C0100200028004010B5044690B0382275
:1015A800002102A80EF012FC2268194B9A422CD195
:1015B8004FF48033029302A84FF480730F9302F024
:1015C8008FFF08B1FFF7ACFF4FF0B0430220D3F80C
:1015D800902042F40042C3F890209A6D42F4806251
:1015E8009A659B6D002203F4806311460193019B69
:1015F80001F07CFD022001F0ABFD00222A201146FB
:1016080001F074FD2A2001F0A3FD10B010BD00BF49
:10161800002800407047000008B501F0F3F8044BBB
:101628000120C3F88800BDE8084002F063BA00BF93
:101638000004005801F0EDB808B501F0EAF8BDE87B
:10164800084000F0B1BB08B501F0DCF8BDE808407F
:101658000121002002F0FEB970477047FEE7FEE75F
:10166800FEE7FEE7FEE770477047704770470000E7
:10167800014803F017BA00BF9C010020012002F0C6
:10168800D5B9022002F0D2B9014801F043BF00BF2A
:10169800E8010020402002F0C9B90000014803F029
:1016A800C5BD00BF48020020014803F02BB800BFA9
:1016B8009C010020014803F020BC00BFD401002099
:1016C800054808B50823036003F032FA18B1BDE8ED
:1016D8000840FFF725BF08BDD40100204FF0B043F4
:1016E80007B55A6E42F001025A665B6E002203F09B
:1016F8000103019311463220019B01F0F7FC3220CF
:1017080003B05DF804EB01F023BD00000CB407B58D
:10171800054A05AB102101930EF01CFA03B05DF8E1
:1017280004EB02B0704700BF6CFF000830B585B00D
:10173800044602A80D460EF037F8BDF90C30064AEB
:1017480000931021029B2046FFF7E0FF2046FEF79A
:101758000FFD288005B030BD6CFF00084FF0B04287
:1017680010B5936823F4004393600EF0A5F80E4B70
:1017780001241C7000F0A6F80DF06EFD0B480DF06A
:1017880085FD0B4B4FF400421A6102200DF084FDD9
:10179800FFF70AFC00F0F2F80DF07AFE2146204629
:1017A800BDE810400DF094BEE00100203517000898
:1017B800004000580DF0A2BE08B5FFF7FDFB40F64B
:1017C800B83398420CD8B0F5E16F0BD3FE23A0F5DF
:1017D800E16058434FF49663B0FBF3F0C0B208BD24
:1017E800FE20FCE70020FAE77FB5684600F0AAF87B
:1017F8000198FFF78FF900B207B05DF804FB00000D
:10180800184A38B5D2F88035591C044616D101F06B
:1018180007F8054601F010F8054401F007F82B0E0B
:10182800E3712B0CA3712B0A6371030EE370030C95
:10183800A370030A25716370207038BD190AC3713B
:101848008171190C1B0E41710371D2F88435C37074
:10185800D2F884351A0A82701A0C1B0E4270037073
:10186800EBE700BF0070FF1F38B5094BD3F8803590
:1018780003600133054609D100F0D2FF044600F0A9
:10188800D5FF444000F0D8FF44402C6038BD00BF6D
:101898000070FF1F012102200DF004BE002102206C
:1018A8000DF000BE00207047024B187808B100F018
:1018B8009DB87047E001002082B00190019802B005
:1018C80000F030B9F0B589B000F0BCFF00F0C2FFFD
:1018D80000F0C8FF012304930323069300254FF06B
:1018E800B04305950795DA6C154C42F00202DA64AC
:1018F800DA6C02F002020292029ADA6C42F00202F8
:10190800DA64DB6C03F0020301934FF4805703A9F8
:101918002046019B03974FF4005601F059FF03A995
:101928002046039601F054FF2A463946204602F025
:101938006FF82A463146204602F06AF809B0F0BD31
:101948000004004810B50446FFF750FB074BA3609E
:1019580040F30F20FEF73AFF054B064A2360064B7B
:101968006060C4E90323002010BD00BF00004842A6
:1019780000007A440D093E00AB03050000207047C3
:10198800014B1868704700BFE4010020032070472E
:1019980008B501464FF47A7200238002890DFFF7DB
:1019A800FFF808BD4FF47A73A0FB03309B0A43EAA3
:1019B80080507047034B98689A689042FBD1C043A7
:1019C800704700BF0028004008B5FFF7F3FF014B40
:1019D800186008BDE401002008B5FFF7EBFF024BD3
:1019E8001B68C01A08BD00BFE4010020024B18782C
:1019F80008B1FFF7DFBF7047E101002010B5074BC2
:101A0800074C0122DA654FF48071204602F03EFE51
:101A18004FF0FF332363002010BD00BF00280040B3
:101A28009C01002002460021014803F04CB800BF89
:101A38009C01002002460121014803F044B800BF80
:101A48009C01002010B58CB02C220021044601A86E
:101A58000EF0BCF9FFF7D2FF0C4B186800230444C2
:101A6800089306934FF00053E44307930848029401
:101A78004FF48073012201A90B9302F021FF08B1F2
:101A8800FFF74EFD00200CB010BD00BFE4010020A0
:101A98009C01002038B50546FFF78CFF022104465B
:101AA800074803F017F8C4F309024FF47A71A2FB50
:101AB8000121920AA30A2A8043EA805038BD00BF58
:101AC8009C0100200148002103F004B89C0100207B
:101AD8000148012102F0FEBF9C010020F8B50F4D1E
:101AE8002E78CEB90E4C4FF0FF372763FFF71AFD5B
:101AF800FFF784FF4FF48071204602F0C7FD2046AF
:101B0800276302F08BFF32462046022102F0DBFFFA
:101B1800FFF75AFF01232B700020F8BDE1010020D8
:101B28009C010020014610B54FF47A720023800210
:101B3800890DFFF735F80146FFF73CFF0446FFF72C
:101B480039FF031B8B4200D310BD00BFF7E70DF030
:101B5800BDBF000010B5064C0221204602F0BAFFB6
:101B68000221421C2046BDE8104002F0ACBF00BF75
:101B78009C0100201648174A08B54FF4E133C0E924
:101B8800002300230C22C0E90233C0E90523C0E981
:101B98000733C0E90933036104F02BF908B1FFF7F3
:101BA800BFFC0B48002104F0A5FA08B1FFF7B8FC08
:101BB8000748002104F0C2FA08B1FFF7B1FC044855
:101BC80004F075FA18B1BDE80840FFF7A9BC08BDD4
:101BD800480200200044004070B596B00646142222
:101BE800002103A80EF0F2F83822002108A80EF010
:101BF800EDF832682B4B9A4251D10223089308A87A
:101C0800294B0A9302F06CFC08B1FFF789FC4FF0EE
:101C1800B04300259A6D254C42F400329A659A6DBE
:101C280002F400320292029ADA6C42F00102DA649B
:101C3800DB6C03F001030193019B0C220223CDE925
:101C480003230323CDE9055303A907234FF090404D
:101C5800079301F0BDFD164925621423C4E900135A
:101C68001023C4E9023520468023C4E90435C4E9B9
:101C7800065501F0CFFA08B1FFF752FC0B481021C6
:101C880001F09EFC08B1FFF74BFC2520F467002209
:101C98000221A66201F02AFA252001F059FA16B0AD
:101CA80070BD00BF0044004004000C00E8010020A3
:101CB8005800024002680C4B9A4210B5044612D1F3
:101CC8004FF0B0420C21936D23F4003393654FF02D
:101CD800904001F029FEE06F01F012FBBDE81040D2
:101CE800252001F043BA10BD0044004008B50A465B
:101CF8000146024803F0FEF9002008BD4802002012
:101D080013B5114B114C18604FF40013009302AB3C
:101D180013E90600204604F06EF92368DA69D10356
:101D2800FCD4DA695202FCD59A68084842F4800269
:101D38009A6004F0A6F906490448012204F014F94F
:101D4800002002B010BD00BFDC02002048020020C5
:101D5800E402002008B5074B1860FFF785F9FFF784
:101D680009FF054AD2F8803043F00063C2F880309A
:101D7800002008BDE00200200008005808B54FF018
:101D8800B04308489A6B42F400329A639A6B22F483
:101D980000329A63FFF78EFF0F2001F0E7F9002069
:101DA80008BD00BF4802002008B5074804F021F824
:101DB80008B1FFF7B5FB054801F02CFA18B1BDE8EA
:101DC8000840FFF7ADBB08BD48020020E80100202D
:101DD8000268044B9A4203D1034B00201B68184742
:101DE800704700BF00440040E002002002680B4B2F
:101DF8009A4210B504460FD1094B1B682BB1D0F895
:101E0800902012B907480121984720460549BDE8A6
:101E18001040012204F0A8B810BD00BF00440040E3
:101E2800DC020020E402002008B5FFF797FCBDE8BB
:101E3800084000F045BB4FF0FF300DF0C3BB7047C2
:101E4800014BD870704700BF58000020014B187430
:101E5800704700BF5800002007B5064B00221B5CE6
:101E680000931146044B02200DF05EFA03B05DF8B2
:101E780004FB00BFE2FF0008C8FF000808B5022005
:101E880000210DF067FBBDE8084001480DF0CCBD0E
:101E980038040020002101200DF05CBB10B5094C6E
:101EA80060B1206008480DF06FFD216806480DF00C
:101EB800F5FDBDE8104004480DF0B6BD42F21073C0
:101EC8002360EFE7700000203804002037B504468F
:101ED80038B390F9065035BB14480DF055FD144839
:101EE8002A464FF4006101F093FD124B2A46294619
:101EF80002200DF019FAE379012B0CBF0E4B0F4BA2
:101F08000022114602200DF00FFA94F905300193D2
:101F180094F9043000930022094B114603200DF078
:101F280003FA03B030BD074BEAE700BFD80300202F
:101F380000040048E6FF0008FBFF0008180001083D
:101F4800500001083500010808B50E4B1B78022B1C
:101F580003D1002108200DF0FDFA0B4800224FF4B0
:101F6800004101F055FD084800224FF4007101F0CE
:101F78004FFDBDE80840044800224FF4006101F01D
:101F880047BD00BF000000200004004802480022AE
:101F98004FF4004101F03CBD000400480248002213
:101FA8004FF4007101F034BD0004004838B5044610
:101FB8000D4607484FF40061FFF7D8F930B92A46B3
:101FC80021460348BDE83840FFF7D2B838BD00BF06
:101FD80000F003080A460149FFF7A8B900F0030812
:101FE80070B51F4801224FF4004101F011FD1C4853
:101FF80001224FF4007101F00BFD01224FF4006142
:10200800174801F005FD17480DF0BEFC04F0F2FC7E
:10201800044650B10022144B114602200DF084F9F9
:10202800BDE8704011480DF0FFBC114D114B024640
:10203800014602200DF078F901260F4B2E7022463A
:10204800214602200DF070F90C4804F077FB28783F
:10205800314604F0A1F903480DF0E6FCE0E700BFC3
:102068000004004838040020790001080804002012
:102078000000002097000108AB000108580000206C
:102088002DE9F04389B0FFF797FB044604F0F4F913
:10209800054688B1002456480DF076FC554B544847
:1020A8001968A14238BF21460DF0F8FC50480DF0E0
:1020B800BBFC09B0BDE8F08302A8FFF743FC4E4B18
:1020C80000940122294602200DF02EF903984B4C6A
:1020D800DFF82C81FEF71EFD00B20122494B00906B
:1020E800294602200DF020F902230498237046495E
:1020F800FEF7C0FBFEF734FD86B20398FEF70AFD33
:10210800424907B20298FEF7B5FB3F49FEF766FC65
:10211800FEF726FD3E4A636812781A706368C0F3BA
:1021280007225A70636898706368DF706368320AC0
:102138001A7163685E7198F80030082B01D0012B82
:1021480028D86268002393716268D3716268137239
:1021580053720A2363702F4C637A63B104F0BEF89C
:10216800012808D120460DF00FFC2B4800224FF41F
:10217800006101F04DFC98F803102048002204F09B
:1021880099F90446F0B901220146244B10460DF096
:10219800CBF880E7DDE90576D4F80490FFF70CFB6F
:1021A80089F8060063683A14DA7163683A121A7299
:1021B80032149A7232125F72DA721E735D739D73F3
:1021C8000F23C7E706347FF465AF04F081F80446AF
:1021D80000283FF460AF01224FF47A730021B0FB6E
:1021E800F3F3104600930E4B0DF09EF853E700BF33
:1021F8003804002070000020CA00010804000020F4
:1022080058000020D5000108000020410000C84205
:10221800D7030020D803002000040048E00001088C
:10222800EF00010802484FF4006101F0F6BB00BF5F
:102238000004004800B503468DB000282CD0407833
:1022480002280AD003282AD0164B00221146022061
:102258000DB05DF804EB0DF067B8DA7E0B929A7E4C
:102268000A925A7E09921A7E0892DA7D07929A7D1E
:1022780006925A7D05925A680492DA68039293F995
:1022880014200292B3F9122001921B7C00930022C1
:10229800054B11460DF048F80DB05DF804FB034BF3
:1022A800D3E700BF0D0101082401010896010108C8
:1022B80001284FF000020CBF024B034B11460220CD
:1022C8000DF032B8B5010108C701010808B504F0DE
:1022D8009AFB80B904F002F801280CD1BFF34F8FA4
:1022E8000549064BCA6802F4E0621343CB60BFF3AA
:1022F8004F8F00BFFDE708BD00ED00E00400FA05C0
:102308001FB50446002837D00378002B34D00122AB
:102318004FF400711E4801F07BFB1E480DF084FB52
:10232800002211461C4B02200CF0FEFF94F91830D5
:10233800039394F90A300293237C0193E368009392
:1023480000221146154B03200CF0EEFF0022144B1F
:10235800114603200CF0E8FF237A012B0ED1617A95
:10236800104A114B002908BF13460022009311465A
:102378000E4B03200CF0D8FF04B010BD00220C4B0C
:102388001146032004B0BDE810400CF0CDBF00BFDB
:102398000004004820040020E0010108110201089F
:1023A80042020108DB010108DC0101084F020108B3
:1023B80060020108F0B5054687B00C46002937D001
:1023C8002C4801224FF4004101F022FB2A480DF06D
:1023D8002BFB26789EB1002D4AD06B682E7873B1FE
:1023E800022E27D0032E0AD16A78012A07D118783D
:1023F800012802D0022800D008B903F083FF237C0B
:10240800052B15D894F90A20059294F9092004920D
:102418001A4A52F82330039394F90830CDE901633E
:102428000022E36800931146154B03200CF07CFF53
:1024380007B0F0BD6F78012FE1D11D78114B05F081
:1024480001051D7065B92A460F4B294603200CF07B
:102458006BFF2A4607484FF4006101F0D9FACEE72E
:1024680000221146094B03200CF05EFF3A46F1E7C3
:102478002E46C4E700040048F0030020AC0301081E
:1024880081020108D70300206E02010878020108C2
:1024980010B504F04DFB10F1080F07D1064B0022D0
:1024A800BDE81040114602200CF03EBF013001D1BA
:1024B800024BF4E710BD00BFC8020108DE020108A4
:1024C800F0B587B00024012603274F4B029422461B
:1024D8002146CDE900670220022505940CF024FF6F
:1024E8000523CDE900532246484B0294214628464D
:1024F8000CF01AFF464B009622462146CDE901749E
:1025080028460CF011FF05A9204604F05FFA059B48
:10251800C3F307220292C3F307421B0E01920093F2
:1025280022463C4B214628460CF0FEFE05A93046C3
:1025380004F04CFA059BDAB20392C3F30722029225
:10254800C3F307421B0E019200932246324B2146E9
:1025580028460CF0E9FE314B3148009422464FF4EE
:10256800FA710DF0B3F92F4B2F48009422464FF41F
:10257800FA710DF0ABF92D4B2D48009432464FF40B
:10258800FA710DF0A3F92046FEF7ECFD08B1FEF74D
:10259800C7FF284B009400224FF4FA6126480DF03B
:1025A80095F9264A002101200DF090F8244A0021CF
:1025B80002200DF08BF8234A002104200DF086F844
:1025C800214A002108200DF081F800F059F81F4930
:1025D8001F4804F0BDF91F4804F0B0F814480DF086
:1025E80023FA1D4B0021187803F0D6FE1B490094EE
:1025F8001B4B09681B4800220DF068F919480DF0BB
:1026080013FA07B0F0BD00BFF6020108170301086E
:1026180038030108590301087A030108A51F0008B7
:1026280020040020951F0008F00300202D22000838
:10263800D8030020511F0008080400209D620008EC
:102648008920000899240008E91F000800000301F8
:102658000C0000205800002000000020700000201E
:10266800851E000838040020022804D0402806D11E
:102678000021042001E0002108200CF06BBF704706
:10268800044B0022C3E902224FF490710122C3E9EE
:102698000021704750040020004870475004002073
:1026A8004FF0B04382B0DA6C0243DA64DB6C184056
:1026B8000190019B02B070472DE9F04186B01422C9
:1026C800002101A80DF082FB0220FFF7E9FF144D5D
:1026D800144F0420FFF7E4FF4FF480760123002411
:1026E800CDE9016301A903232846CDE903434FF44B
:1026F800005801F06DF801A93846CDF8048001F0C2
:1027080067F822464146384601F082F928462246B3
:10271800314601F07DF9204606B0BDE8F08100BFE2
:102728000004004800080048032810B50ED8012806
:1027380010D868B902460B484FF4807101F068F967
:10274800002209484FF4005101F062F9002010BD41
:102758000122F0E7002203484FF4807101F058F994
:102768000122EEE7000400480008004802207047F4
:10277800002070470120704700280CBF0F2016204A
:10278800704700000D48854600F025F80C480D49B3
:102798000D4A002302E0D458C4500433C4188C42B4
:1027A800F9D30A4A0A4C002301E013600432A2421A
:1027B800FBD30DF0E7FAFEF7A7FEFEE70080002046
:1027C8000000002018010020D00D01081801002089
:1027D80058140020FEE7704710B5032000F074FC81
:1027E80001F098FA064B18600F20FFF75BF80446D3
:1027F80018B9FEF732FF204610BD0124FBE700BFE1
:10280800740000204FF0E022136923F002031361E3
:1028180070474FF0E022136943F0020313617047D9
:10282800014BD3F8900570470070FF1F014BD3F898
:10283800940570470070FF1F014BD3F89805704747
:102848000070FF1F024A536823F00103536070476A
:10285800002004E0024A536823F0020353607047E3
:10286800002004E0024A536823F0040353607047D1
:10287800002004E08068C0F380007047F7B50023AB
:1028880001930446002800F0EA80856D25B9FEF71B
:1028980035FBE56584F8545020688368D90040F119
:1028A800A2808368DA0000F1B580A36D43F01003BD
:1028B800A365E36D43F00103E3650125FFF7DAFF44
:1028C800A36D03F010030343A36D40F0CA8023F403
:1028D800817343F002032168A3658B68DB075ED42C
:1028E800E368A26894F818C0677E266BA07E1A4336
:1028F80042EA8C3343EAC733226994F82C70002EDD
:1029080043EA403318BF4FF4805643EA4703002A8E
:10291800B4BF22F000424FF400123343134394F83B
:102928002020012A03D1002876D143F48033626A3B
:1029380022B1A06A02F4E07202431343CA6822F487
:10294800FE3222F4FF7213436268CB60E36C02F03C
:10295800404040EA030694F83C30012B08D1D4E902
:1029680010373B433343A66C3343034343F001061C
:102978000B693E48184022F000433043B3F1804FC2
:1029880008610CD0B2F1004F09D03948D0F80837A7
:1029980002F4701223F470131A43C0F808274B6925
:1029A800606BA26B23F0070303434B614B6923F071
:1029B800700343EA02134B612369002B35D18B6AFC
:1029C80063F00F038B624B6903F0070398423CD115
:1029D8000023E365A36D23F0030343F00103A3651C
:1029E800284603B0F0BD8368224A23F0104323F041
:1029F800170343F0805383601F4B1B68B3FBF2F34C
:102A080001335B000193019B002B3FF44AAF019B0C
:102A1800013BF7E7002551E7A26D42F02002A265CD
:102A2800E26D42F00102E26581E7B3F5001FCAD109
:102A38008B6AE369013B9B006FF00F0203F01C03F4
:102A480002FA03F3226E1343BCE7A36D23F01203CB
:102A580043F01003A365E36D43F00103E36501252B
:102A6800BEE743F01003A365F9E700BF02FCFF1FB0
:102A780000200140400D030074000020F8B54569AE
:102A8800082D04460E460AD00368DB68D90705D529
:102A9800836D43F0200383650120F8BD0425FEF70C
:102AA80003FF0746206803682B4222D0A36D43F436
:102AB8000073A365C36813F4406F14D1A37E93B960
:102AC80003681B070FD5FFF7D5FE38BB226853688C
:102AD80023F00C035360A36D23F4807323F00103E8
:102AE80043F00103A365207E08BB23680C221A600B
:102AF800D3E7721CD7D0FEF7D7FEC01BB04201D86F
:102B0800002ECFD123681B682B40CBD1A26D84F84F
:102B1800543042F00402A2650320BEE7A36D43F0DF
:102B28002003A365E36D43F00103E365DBE70020C1
:102B3800B3E70368186C7047F7B50023019390F862
:102B48005430012B044600F0C780012380F854302C
:102B58000068FFF78FFE002840F0B880D1E9002018
:102B68002369022823F0040300F08380B3F1004FA7
:102B78002568C2F3110E13D1AB6A43EA0E03AB62A8
:102B88008B68686903EA022323F07C4323F0FF0380
:102B980020EA02210B43002A6B6126DB002055E066
:102BA800236E00F01F074FF00F0C0CFA07FC6FEABA
:102BB8000C0623EA0C0CBEF1000F11D1C2F384639A
:102BC800BB4043EA0C0323668008E369013098425E
:102BD800D6D8A86AC2F38363BB4006403343CEE726
:102BE80092FAA2F3B3FA83F3EAE73C493C48D1F8F6
:102BF8000837824203F0E07519D11B02CED4D1F810
:102C08000837384A23F0E0732B4343F40003C1F834
:102C18000837354B1B68B3FBF2F20C2302FB033376
:102C28000193019B002BB9D0019B013BF8E72F488A
:102C3800824210D113F08070B0D1D1F8083723F058
:102C4800E0732B4343F08073C1F80837002384F8FE
:102C5800543003B0F0BD264882429FD113F480005F
:102C68009CD1D1F8083723F0E0732B4343F4800359
:102C7800EAE7B3F1004F06D121688B6AC2F311006D
:102C880023EA00038B62002A88DA15481349824236
:102C9800D1F8083709D1D1F8082703F0A07322F03A
:102CA800E0721343C1F8083778E71048824204D12C
:102CB800D1F8082703F44003F1E70D4882427FF476
:102CC8006DAFD1F8082703F0C073E8E7A26D42F0B2
:102CD8002002A2651846B9E70220BAE700200140A1
:102CE800001000B0400D030074000020004000B840
:102CF800002000B438B504460068FFF7BBFD08B9EA
:102D0800002038BD22689368990707D4936823F098
:102D1800004323F0170343F010039360FEF7C4FD4C
:102D2800054623689B685B07EAD5FEF7BDFD401B97
:102D38000228F6D923689B685A07F2D5A36D43F099
:102D48001003A365E36D43F00103E3650120D8E7B1
:102D580073B50023026801939368DD07044602D522
:102D6800002002B070BD9168214B194209D0A36DB3
:102D780043F01003A365E36D43F00103E36501200D
:102D8800EFE7936823F0004323F0170343F00103B0
:102D98009360184BD3F8083718021CD4637E012BB4
:102DA800DED0FEF781FD144E054622681368DB0766
:102DB800D6D49368D9075FBF9368334043F00103C3
:102DC8009360FEF771FD401B0228EED923681B684B
:102DD800DA07EAD4CBE7094B094A1B68B3FBF2F3DD
:102DE80001330193019B002BD8D0019B013BF8E7ED
:102DF8001700008000200140E8FFFF7F74000020DA
:102E0800400D030038B504460068FFF733FD05465A
:102E180020BB94F85430012B20D0012384F854307F
:102E28002046FFF795FFB0B9A36D226823F47063BD
:102E380023F0010343F48073A3651C23E06513604A
:102E480084F85400936823F0004323F0170343F0F9
:102E58000403936038BD84F85450FBE70220F9E777
:102E6800026838B5936891680446C80701D4002001
:102E780038BD9907FBD4936803F00503012B19D1DA
:102E8800936823F0004323F0170343F00203936091
:102E980003231360FEF708FD054623689B68DB07DC
:102EA800E5D5FEF701FD401B0228F6D923689B688B
:102EB800DA07F2D5A36D43F01003A365E36D43F081
:102EC8000103E3650120D3E770B5044600284BD021
:102ED800836D43F002038365FFF70CFF054668B96D
:102EE8002046FFF7BDFF054608B90123A365226800
:102EF800936823F0104323F01703936023685A68FC
:102F080022F4677222F003025A6040F29F321A607C
:102F1800D968164A0A40DA601A6922F040421A61F2
:102F28005A6922F007025A611A6A02F0F0221A62FC
:102F38005A6A02F0F0225A62DA6A02F0F022DA6281
:102F48009A6A0B4A00269E62D2F8083723F0FE736D
:102F5800C2F808372046FDF7E5FFE6652666A66550
:102F680084F85460284670BD0125FBE700023E83C3
:102F78000020014010B590F85430012B044615D0BC
:102F8800012380F85430FFF7B5FE58B92046FFF703
:102F980067FF38B9A36D23F4807323F0010343F06E
:102FA8000103A365002384F8543010BD0220FCE718
:102FB800F7B50023019390F85430012B04467FD0D5
:102FC800012380F85430FFF74BFF23689A6812F00A
:102FD8000102054670D1A16D3A4F21F4817141F08B
:102FE8000201A165DE68D96821F4004121F00301DE
:102FF800D96008209968394041F000419960996882
:10300800002913DA0199013101910199B1F52E3F97
:10301800F5D3A36D23F0120343F01003A365002337
:1030280084F854300125284603B0F0BDD3F8B41015
:10303800013801F07F010A44DCD199682148014038
:1030480041F001019960D3F8B41021F07F0141EA01
:10305800D202C3F8B4209A68024042F002029A6091
:10306800FEF722FC074623689A68D20712D426F492
:10307800FF4626F07C06DA683604360C1643DE6016
:10308800A36D23F0030343F00103A365002384F831
:103098005430C8E7FEF708FCC01B0228E3D92368B0
:1030A8009B68D907DFD5A36D43F01003A365E36DD3
:1030B80043F00103E365B5E7A36D43F01003E4E7CC
:1030C8000225B0E7E8FFFF7F0749CA6822F4E062FB
:1030D8000302120403F4E063120C134343F0BF63CA
:1030E80043F40033CB60704700ED00E0164B30B579
:1030F800DC68C4F30224C4F10703251D042B28BF90
:103108000423062D4FF0FF3505FA03F38CBF033C6B
:10311800002421EA0303A34005FA04F422EA040286
:10312800002843EA0203ACBF00F16040074A4FEAB7
:103138000313B8BF00F00F00DBB2AABF00F561406F
:10314800135480F8003330BD00ED00E014ED00E0CA
:10315800002808DB0123420900F01F0003FA00F0F1
:10316800014B43F82200704700E100E000280DDB26
:103178004309012200F01F0002FA00F02033044A3C
:1031880042F82300BFF34F8FBFF36F8F704700BF24
:1031980000E100E070B5D0E913456560446D14B1F5
:1031A800D0E916456560D0E9105404F01C060124E6
:1031B800B4406C60046863608368102B0BBFA26026
:1031C800A160E160E26070BD0268416CD3B210B5E5
:1031D800083B1424B3FBF4F30B4CA24288BF0B4A00
:1031E80021F0030199BF01F1804202F50232521821
:1031F80007338264064AC26403F01F03012202FAFD
:1032080003F3036510BD00BF070402401C08024019
:103218008008024010B5002861D00268314B9A42FC
:103228004FF014044ED830491144B1FBF4F1890031
:103238004164A3F207430364022380F8253013682E
:1032480023F4FF4323F070031360D0E902342343CF
:103258000469116823434469234384692343C46987
:103268002343046A23430B431360FFF7ADFF8368CE
:10327800816CB3F5804F04BF00234360426802F0BD
:103288007F030B60D0E91314013A032A4C6021D85C
:10329800164A174981651A44013B9200012103F03F
:1032A800030301FA03F300214265C3651160114A63
:1032B800536400230122C36380F8243080F825205A
:1032C800184610BD0C4B1344B3FBF4F39B00436446
:1032D8000A4BB0E70023C0E91533C365E9E70120CD
:1032E800EFE700BF07040240F8FFFDBF3F82001070
:1032F8004009024000090240F8FBFDBF00040240FB
:1033080038B5002845D001680B6823F001030B602D
:10331800214B99424FF0140433D8204A0A44B2FB97
:10332800F4F292004264A3F207430364D0E9102345
:10333800012403F01C0304FA03F300250D60536015
:10334800FFF742FF836C41681D60D0E913325A6071
:103358004A1E032A06D8124B0B449B0094401D605A
:10336800104B5C640023C363C0E91533C0E90B3319
:10337800C0E90D33C36580F8253080F8243018463D
:1033880038BD094B0B44B3FBF4F39B004364074B74
:10339800CBE70120F4E700BF07040240F8FFFDBFB8
:1033A8003F82001000090240F8FBFDBF0004024004
:1033B80070B590F82450012D04463CD090F8256053
:1033C8000125AE4280F824504FF000062DD1022589
:1033D80080F82550C6630668356825F00105356014
:1033E800FFF7D8FE026B0368BAB11A6842F00E0202
:1033F8001A60A26C1168C90342BF116841F4807158
:103408001160626D1AB1116841F4807111601A6817
:1034180042F001021A60002070BD1A6822F004020E
:103428001A601A6842F00A02E2E78023C36380F850
:1034380024602846F0E70220EEE740B190F82530F6
:10344800022B06D00423C363002380F82430012014
:1034580070470368816C1A6822F00E021A600A68C5
:1034680022F480720A601A6822F001021A60D0E918
:10347800101303F01C02012393404B60D0E9133270
:103488005A60436D33B11A6822F480721A60D0E929
:1034980016325A60012380F82530002380F8243042
:1034A8001846704710B590F82530022B03D0042336
:1034B800C363012010BD03681A6822F00E021A6067
:1034C8001A6822F001021A60826C136823F4807370
:1034D8001360D0E9101303F01C02012393404B60E2
:1034E800D0E913325A60436D33B11A6822F48072FE
:1034F8001A60D0E916325A60012380F82530836BB0
:10350800002480F8244013B198472046D2E7184693
:10351800D0E7000070B4426C046C036826681D682C
:1035280002F01C020421914031420FD015F0040F23
:103538000CD01A6892065EBF1A6822F004021A605C
:10354800036B6160002B33D070BC18470221914097
:10355800314217D015F0020F14D01A68940606D419
:103568001A6822F00A021A60012280F82520114AFE
:1035780093428CBF104B114B5960002380F82430C4
:10358800C36ADFE708219140314211D029070FD5DE
:10359800196821F00E011960012303FA02F2626032
:1035A800C36380F82530002380F82430436BC9E7D3
:1035B80070BC7047800002400004024000000240D6
:1035C80060B10268C806136805D5C9024CBF43F448
:1035D800801323F480131360002070470120704784
:1035E8000A4A536943F4802330B55361EFF31084DA
:1035F80072B60023CD58C5500433B3F5807FF9D196
:103608001369DB03FCD484F3108830BD00400058F4
:10361800064B5A69002ABFBF054A9A6002F18832F0
:103628009A60BABF5869C00F002070470040005820
:1036380023016745044B5A6942F000425A615869B0
:10364800C043C00F704700BF0040005870B5054622
:10365800FEF72AF9124E04463369D90313D43369A5
:10366800DA0744BF012232614CF2FA32134011D119
:103678000B4E306910F480200BD0FEF715F9001BB3
:10368800A842F6D304E0FEF70FF9001BA842E3D3E3
:10369800032070BD024A1361024A01205360F8E713
:1036A80000400058600400202DE9F041184D98466C
:1036B8002B78012B06460C46174626D001232B7083
:1036C8004FF47A7000236B60FFF7C0FFA0B9012E9A
:1036D80016D1104A536943F0010353612760BFF3C1
:1036E8006F8FC4F804804FF47A70FFF7AFFF094A70
:1036F800536923EA0606566100232B70BDE8F08162
:1037080039462046FFF76CFFEDE70220F6E700BFD9
:103718006004002000400058054A536923F47E7372
:1037280043EAC00040F4803040F002005061704726
:10373800004000582DE9F041234F3B78012B054606
:1037480088463FD001233B704FF47A7000237B609A
:10375800FFF77CFF044688B92B68042B13D11B4A5A
:10376800536943F4803343F0040353614FF47A7090
:10377800FFF76CFF0446154B1A681B6800233B7063
:103788002046BDE8F0814FF0FF33C8F800306E687E
:10379800D5E901321344B3420AD93046FFF7BCFFDA
:1037A8004FF47A70FFF752FF50B1C8F80060044632
:1037B800064A536923F47E7323F002035361DAE760
:1037C8000136E5E70224DBE76004002000400058EA
:1037D8002DE9F04F524C00234FF00F090A6832FAD6
:1037E80003F501D1BDE8F08F012505FA03F818EAC1
:1037F800020200F08E804E68032706F003054FEAA8
:10380800430E07FA0EFC6F1E012F6FEA0C0C32D81C
:10381800876807EA0C0ACF6807FA0EF747EA0A072B
:103828008760476827EA0808C6F300179F4047EAF9
:1038380008074760C76807EA0C088F6807FA0EF799
:1038480047EA0807022DC76017D14FEAD30800EBF3
:10385800880803F0070AD8F820704FEA8A0A09FA9C
:103868000AFB27EA0B0B0F6907FA0AF747EA0B0767
:10387800C8F8207001E0032DDCD1076805FA0EF5C1
:1038880007EA0C072F4316F4403F076041D023F0A6
:10389800030707F1804707F5803703F0030CBD687D
:1038A8004FEA8C0C4FF0070E0EFA0CFEB0F1904F59
:1038B80025EA0E0E2FD01B4DA8422ED005F58065A7
:1038C800A8420CBF0225072505FA0CF545EA0E05A6
:1038D800BD602568D74316F4801F0CBF3D401543D3
:1038E8002560656816F4001F0CBF3D4015436560F0
:1038F800D4F8805016F4803F0CBF3D401543C4F8FF
:103908008050D4F88450B60354BF3D401543C4F8E2
:103918008450013362E70025D6E70125D4E700BFCC
:103928000008005800040048374A2DE9F04F0023EA
:103938004FF0010A4FF0070B4FF00F0931FA03F46B
:1039480001D1BDE8F08F0AFA03FC1CEA010654D045
:1039580023F0030404F1804404F5803403F00307E2
:10396800A568BF000BFA07F8B0F1904F08EA050EFA
:1039780045D0264DA84244D005F58065A8420CBF25
:1039880002250725BD40754517D1D2F8805025EA94
:103998000605C2F88050D2F8845025EA0605C2F818
:1039A8008450156825EA06051560556825EA060558
:1039B8005560A56825EA0805A560056803265C002A
:1039C80006FA04F423FA06F6254300EB860605609A
:1039D80003F00705376AAD0009FA05F527EA05057A
:1039E8003562856825EA04058560456825EA0C0581
:1039F8004560C56825EA0404C46001339EE70025D4
:103A0800C0E70125BEE700BF0008005800040048D1
:103A18000AB18161704781627047436901EA030214
:103A280021EA030141EA024181617047044AD168F1
:103A3800014208B502D0D060FEF716FE08BD00BFEF
:103A480000080058024A136843F4807313607047F3
:103A5800000400580D4B10B55B690C4628B99A054F
:103A680007D500F027F820B110BD9B0501D400F060
:103A780019F8074A1369012C23F00403136101D1D3
:103A880030BFF1E740BF20BF20BFEDE7000400587A
:103A980000ED00E0024B186800F4C060704700BFFA
:103AA80000040058024A136843F4804313607047C7
:103AB800000400580C4A136823F4804313600B4B2E
:103AC8001B6832214B430A49B3FBF1F3516989055D
:103AD80000D533B9536913F4007F14BF03200020C5
:103AE8007047013BF2E700BF000400587400002053
:103AF80040420F000B4A136823F0070343F0020308
:103B08001360094B1A69012842F004021A6105D1B1
:103B180030BF1A6922F004021A61704740BF20BF03
:103B280020BFF6E70004005800ED00E04FF0B04376
:103B38001868C0F3404070474FF0B0431868C0F3AE
:103B4800400070474FF0B042536823F47F4343EA84
:103B58000023536070474FF0B0431868C0F34060CB
:103B6800704700007FB54FF0B0432C4AD3F80831B6
:103B7800C0F3031003F00F0352F82040284A52F80C
:103B88002330B4FBF3F4FFF785FF264B054693E893
:103B98000700B5F5007F04AB03E9070010D0224BFE
:103BA8009C4218D303F5B70303F67F539C4229D9E7
:103BB80003F5741303F510639C4225D802230BE028
:103BC8001A4B9C4207D91A4B9C421BD903F5370361
:103BD80003F5D853F0E7002304AA02EB830353F854
:103BE8000C4C144D2B6823F0070323432B60FDF77F
:103BF8005BFE06462B6803F007039C4206D10020B3
:103C080004B070BD0123E7E70024EAE7FDF74CFEA6
:103C1800801B0228EED90320F2E700BF2404010824
:103C2800C403010800FF0008C0CF6A00BFEA2101F1
:103C38003F933402004000584FF0B04310B59A68E3
:103C4800D96812F00C0205D00C2A4AD101F00303FE
:103C5800012B50D14FF0B0412B480B6813F00803EB
:103C680006D00B6813F0080337D1D1F8941007E099
:103C78000C68240756BFD1F894300968C3F30323AE
:103C880050F82330002A0CBF184600204FF0B041EE
:103C98008A6802F00C020C2A1ED1CA6802F00302DC
:103CA800022A2ED0032A06D10B68184A13F4801F63
:103CB800174B18BF13464FF0B042D068D168D2688E
:103CC800C0F306205843C1F302130133B0FBF3F0ED
:103CD800530F0133B0FBF3F010BD0B68C3F30313AC
:103CE800CEE7042A0AD0082A05D11B6813F48013EA
:103CF80004D10748CAE700231846C7E7034800234A
:103D0800C4E7024BD7E700BF240401080024F400ED
:103D18000048E80108B5FFF78FFF4FF0B043044AA9
:103D28009B68C3F3031352F82330B0FBF3F008BDCC
:103D3800C40301082DE9F0410446002852D04FF091
:103D4800B0439D68DE6803689B0605F00C0506F025
:103D5800030667D5026A1DB10C2D45D1012E43D14A
:103D6800002A3FD04FF0B043A06A1A68170756BF21
:103D7800D3F894301B681B0903F0F00398421ED94E
:103D8800FFF7F0FE00282DD14FF0B042136843F042
:103D9800080313601368A16A23F0F0030B43136050
:103DA800606AFFF7CFFEFFF7B5FFAB4B1860AB4B70
:103DB8001868FDF777FD002834D0BDE8F0814FF092
:103DC800B042136843F008031360136823F0F0034C
:103DD80003431360606AFFF7B5FEA06AFFF7C2FEEF
:103DE8000028E0D00120E8E74FF0B043002A54D083
:103DF8001A6842F001021A60FDF756FD0746FFF700
:103E08009BFE002842D04FF0B042136843F00803ED
:103E180013601368A16A23F0F0030B431360606A10
:103E2800FFF790FE2368D80748D42368990700F164
:103E38008C8023681E0740F1FA80A3694FF0B046D2
:103E4800002B00F0E180D6F89430E16903F010020D
:103E5800914200F0C48003F00302022AC2D0D807BE
:103E680040F1B380D6F8943023F00103C6F89430BB
:103E7800FDF71AFD0746D6F89430990740F1A5805A
:103E8800FDF712FDC31B112BF5D904E0FDF70CFD5E
:103E9800C01B0228B3D903208FE71A6822F0010259
:103EA8001A60FDF701FD0746FFF746FE0028B9D066
:103EB800FDF7FAFCC01B0228F6D9ECE7082D03D061
:103EC8000C2D05D1032E03D16368002BADD189E7F2
:103ED8004FF0B043A1681A6822F480120A431A60AE
:103EE8006268B2F5803F10D11A6842F480321A60D5
:103EF800FDF7DAFC0746FFF719FE002895D1FDF714
:103F0800D3FCC01B6428F6D9C5E7B2F5041F04D159
:103F18001A6842F400121A60E6E7196821F4803141
:103F28001960196821F400111960002AE0D1FDF721
:103F3800BBFC0746FFF7FAFD00283FF476AFFDF714
:103F4800B3FCC01B6428F5D9A5E7042D236903D069
:103F58000C2D0ED1022E0CD1002B3FF443AF4FF0A5
:103F6800B0426169536823F0FE4343EA016353603A
:103F78005FE74FF0B046BBB1336843F480733360FA
:103F8800FDF792FC074633685A0507D573686269DE
:103F980023F0FE4343EA026373604AE7FDF784FCBB
:103FA800C31B022BEFD976E7336823F480733360A1
:103FB800FDF77AFC074633685B057FF53AAFFDF7F6
:103FC80073FCC31B022BF6D965E74FF0B042E169D9
:103FD800D2F8943023F010030B43C2F894304FF01A
:103FE800B047D7F8943043F00103C7F89430FDF791
:103FF8005BFC0646D7F894309A0718D4FDF754FCB2
:10400800831B112BF6D946E7D6F8943023F0010329
:10401800C6F89430FDF748FC0746D6F894309B075D
:1040280005D5FDF741FCC31B112BF6D933E72368EF
:10403800580753D50A4F3B68D90513D4FFF702FD3B
:10404800FDF732FC06463B68DA050BD4FDF72CFC7D
:10405800831B022BF7D91EE774000020780000208C
:1040680000040058E3684FF0B046002B58D023F006
:104078008003052B02BFD6F8903043F00403C6F83E
:1040880090304FF0B046FDF70FFCD6F8903043F073
:1040980001030746C6F8903041F28838D6F89030C8
:1040A8009B0705D4FDF700FCC31B4345F6D9F2E690
:1040B800E36823F00403812B1BD1FDF7F5FBD6F849
:1040C800903043F08003C6F8903007464FF0B04672
:1040D80041F28838D6F89030180504D5E06A0028EF
:1040E8004AD1002069E6FDF7DFFBC01B4045F1D946
:1040F800D1E6FDF7D9FBD6F8903023F08003C6F857
:10410800903007464FF0B04641F28838D6F89030E4
:104118001905E3D5FDF7C8FBC01B4045F6D9BAE63B
:10412800FDF7C2FBD6F8903023F080030746C6F8A7
:10413800903041F28838D6F890301A0516D4FDF739
:10414800B3FBD6F8903023F00103C6F89030074649
:104158004FF0B04841F28836D8F890309B07BDD56B
:10416800FDF7A2FBC31BB342F6D994E6FDF79CFB0F
:10417800C01B4045DFD98EE60C2D4ED04FF0B04322
:1041880002281A6822F080721A6033D1FDF78CFB7E
:104198000546FFF7E0FC38BBD4E90C314FF0B042DC
:1041A8000B43D0682D4901400B43E16B0B43216C55
:1041B8000B43616C0B43A16B43EA0123D360136883
:1041C80043F080731360D36843F08053D360FDF7E6
:1041D8006BFB0446FFF7BFFC002882D1FDF764FBA8
:1041E800001B0A28F6D956E6FDF75EFB401B0A2895
:1041F800CFD950E6FDF758FB0446FFF7ACFC30B9C1
:104208004FF0B042164BD1680B40D360D5E5FDF7AF
:104218004BFB001B0A28F0D93DE601283FF4CDAD41
:104228004FF0B043226BDB6803F0030191427FF447
:10423800D9AD616B03F070028A427FF4D3ADA16BF4
:1042480003F4FE42B2EB012F7FF4CCAD626C03F0B5
:10425800604393423FF445AFC4E500BF8C80C11171
:10426800FCFFFEEE2DE9F0410D46044610B9012091
:10427800BDE8F081754E336803F007038B4216D30F
:104288002368980727D54FF0B047A268BB6823F08A
:10429800F0031343BB60FDF707FB0646BB68D90371
:1042A80019D4FDF701FB831B022BF7D911E0336802
:1042B80023F007030B433360FDF7F6FA074633682C
:1042C80003F00703AB42DBD0FDF7EEFAC01B022870
:1042D800F5D90320CCE723689A0616D54FF0B047E6
:1042E8006269D7F8083123F0F0031343C7F808319F
:1042F800FDF7DAFA0646D7F808319B0305D4FDF72F
:10430800D3FA831B022BF6D9E3E72368580617D59F
:104318004FF0B047A269D7F8083123F00F0343EAFA
:104328001213C7F80831FDF7BFFA0646D7F8083167
:10433800D90305D4FDF7B8FA831B022BF6D9C8E7D1
:1043480023685A0713D54FF0B047E268BB6823F4D7
:10435800E0631343BB60FDF7A7FA0646BB689B03FF
:1043680005D4FDF7A1FA831B022BF7D9B1E723681F
:10437800180714D54FF0B0472269BB6823F460537F
:1043880043EAC203BB60FDF78FFA0646BB685903D0
:1043980005D4FDF789FA831B022BF7D999E723681F
:1043A800DA070FD4294C236803F00703AB423AD845
:1043B800FFF7B0FC264B1860264BBDE8F0411868A3
:1043C800FDF770BA6368022B1ED1FFF7AFFB002818
:1043D8003FF44DAF4FF0B0466268B36823F0030373
:1043E8001343B360FDF760FA41F288380746B368B3
:1043F800626803F00C03B3EB820FD3D0FDF754FAD5
:10440800C01B4045F3D964E7032B02D1FFF7A3FB98
:10441800DDE713B9FFF790FBD9E74FF0B0431B680E
:104428005B05D7D423E7236823F007032B432360D6
:10443800FDF73AFA0646236803F00703AB42B7D004
:10444800FDF732FA801B0228F5D942E700400058F0
:10445800740000207800002008B5FFF75BFC4FF0DF
:10446800B043044A9B68C3F3022352F82330D84070
:1044780008BD00BF0404010808B5FFF74BFC4FF066
:10448800B043044A9B68C3F3C22352F82330D84090
:1044980008BD00BF040401084FF0B043D3F89000F2
:1044A800C0F3400070474FF0B0410209D1F888309E
:1044B80002F47F22000123EA020300F47F2018435C
:1044C800C1F8880070474FF0B041020CD1F888302D
:1044D800120423EA020343EA0040C1F88800704747
:1044E80070B5056815F48035044638D0FFF7AAFA88
:1044F800FDF7DAF9644E05463368DB0529D54FF038
:10450800B043616BD3F8902002F44072914214D00A
:10451800D3F89010D3F8902042F48032C3F890205A
:10452800D3F8902021F4407022F480328D07C3F82C
:104538009020C3F8900000F196804FF0B042616B74
:10454800D2F8903023F440730B43C2F89030002522
:1045580005E0FDF7A9F9401B0228CDD903252268FB
:10456800D0070AD54FF0B0406168D0F8883023EA08
:10457800114389B20B43C0F8883091070AD54FF030
:10458800B040A168D0F8883023EA114389B20B43C0
:10459800C0F88830930609D54FF0B0412069D1F8AA
:1045A800883023F440630343C1F88830960502D568
:1045B800206AFFF788FF2368580502D5606AFFF76D
:1045C80082FF2368190502D5A06AFFF77CFF2368DC
:1045D8005A0602D56069FFF766FF23681B0602D5F5
:1045E800A069FFF760FF2368DE0502D5E069FFF7E1
:1045F8005AFF2168C80610D54FF0B042E068D2F8DB
:10460800883023F440730343C2F88830B0F5807FC4
:1046180002BFD36843F08073D3600A040ED54FF00D
:10462800B042206BD2F8883023F040430343C2F8ED
:10463800883018B9D36843F08073D3604B0410D521
:104648004FF0B042E16AD2F8883023F040530B4370
:10465800B1F1005FC2F8883003D1D36843F48033E6
:10466800D360284670BDFDF71FF941F2883605462C
:10467800FFF712FF01283FF460AFFDF715F9401B63
:10468800B042F5D96AE700BF0004005830B590F889
:104698002C30012B4FF0020222D0194B80F82D202C
:1046A800CA24012580F82C505C6253245C62B1F561
:1046B800807F046B16D19A6922F488529A615A6CE9
:1046C80024F0010422F000425A640463DD650C4BB7
:1046D800FF225A620123002280F82D3080F82C2016
:1046E800104630BD996921F408519961D96C24F0BC
:1046F800020421F00041D9640463DA65E7E700BFEA
:104708000028004070B50B4E036B756D1D40EA071D
:10471800044603D50123F365FDF719FAAB0704D561
:104728000223F365204600F0CDF9012384F82D30EB
:1047380070BD00BF0028004038B50A4CE36823F07C
:104748002003E360FDF7B0F80546E3689B0601D552
:10475800002038BDFDF7A8F8401BB0F57A7FF4D9E2
:104768000320F6E7002800402DE9F041114DEC68E0
:1047780014F0400407461AD1EB6843F08003EB605D
:10478800FDF792F84FF003080646EB685B0601D484
:10479800032C02D12046BDE8F081FDF785F8801B87
:1047A800B0F57A7F84BF87F82D800324EDE70024D5
:1047B800F0E700BF00280040104BDA6822F08002C2
:1047C80010B5DA609A699206044606D4FFF7B4FF7A
:1047D80010B1032084F82D0010BD9A6922F0200240
:1047E8009A61FFF7A9FF10B1032084F82D00034A4E
:1047F800936943F020039361EEE700BF002800406F
:1048080038B5044600284BD090F82D3003F0FF024D
:104818001BB980F82C20FCF7BFFE0223214D84F839
:104828002D30EB68DB0632D4CA236B6253236B62EC
:104838002046FFF799FF78BBAB6923F08E6323F01E
:104848004003AB6121696368AA690B431343A269FA
:104858001343AB61D4E9022343EA02432B61D4E951
:104868000931EA680B4322F4F8521343EB602046FF
:10487800FFF7A2FF80B9D4E90713AA690B4322F016
:104888006042134362691343AB61FF236B620123E8
:1048980084F82D30002002E0024BFF225A6238BD16
:1048A8000120FCE7002800400023092803D840EA3B
:1048B8000310C0B270470A380133C0B2F5E70000F0
:1048C8002DE9F04790F82C30012B05464FF00200F7
:1048D80069D0012385F82C304E4B85F82D00DE6811
:1048E80006F44076B6F5807F78D04C69087891F860
:1048F800018091F802A091F82470002A55D19A6994
:1049080012F0400208BFCA70FFF7CEFF814640464A
:10491800FFF7CAFF80465046FFF7C6FF8246384673
:10492800FFF7C2FF0A6ACB78224342EA835242EA7F
:104938000A0343EA094343EA082343EA0063354A82
:10494800CA205062532050628C6A8869B4F5807F0F
:10495800946945D124F4885494610124D465B6F54A
:10496800807F09BFCB6913640343536418BF506445
:10497800284B4A681A672A6B42F001022A639A692F
:1049880042F488529A61244AD2F8803043F40033C2
:10499800C2F880301F4BFF225A620020012385F89D
:1049A8002D3085F82C00BDE8F087B4F1803F07D0A2
:1049B800B4F5000F04D09A6912F0400208BFCA701B
:1049C8000A6A144344EA0A0444EA0043C87843EAFA
:1049D800082343EA805343EA0763B0E70023AEE7BE
:1049E80024F4085494610224D465B6F5807F09BF85
:1049F800CB6993640343D36418BFD064054B4A68FA
:104A08005A672A6B42F002022A639A6942F40852F2
:104A1800B8E700BF002800400008005890F82C2094
:104A2800012A03464FF0020012D00A4A83F82D00EB
:104A3800CA21516253215162916941F0200191616B
:104A4800FF2151620020012283F82D2083F82C00D9
:104A5800704700BF0028004090F82C20012A034628
:104A68004FF0020019D00D4A83F82D00CA21516277
:104A78005321516291690A4841F080019161D0F84F
:104A8800801041F48021C0F88010FF21516200207D
:104A9800012283F82D2083F82C007047002800405D
:104AA80000080058064B5A6D520610B5044603D547
:104AB8004022DA65FDF74EF8012384F82D3010BD49
:104AC800002800407047890001F1804101F531411B
:104AD8000A607047890001F1804101F53141086899
:104AE80070470000034AD2F8903043F40043C2F8FC
:104AF8009030704700040058034AD2F8903023F4ED
:104B08000043C2F89030704700040058074B1A68F9
:104B180022F040021A6040F441704FF4B852186015
:104B28005A601A6842F040021A6070470000015843
:104B380037B5054600284ED0837903F0FF046BB1E2
:104B4800032C0BD0254B4FF400629A612868FFF7BD
:104B5800DDFF002401232B71AC602FE000236B7173
:104B68002846FCF7BBFD1E4AD2F8903043F4805328
:104B7800C2F89030002CE5D102234FF0B042AB715F
:104B8800D2F8943023F40043C2F89430154B1B68D4
:104B98001C214B43DB0C64214B430193019B93B9CC
:104BA8000124AC60FFF79EFF0C4B9A6842F4006248
:104BB8009A604FF400629A61002CC7D00123AB7150
:104BC800204603B030BD019B013B0193D2F89430DD
:104BD8005B04E3D4E6E70124F2E700BF00040058D1
:104BE800000800587400002037B5174D2B6802469E
:104BF8001C204343DB0C6420434314480193019B6E
:104C080093B901209060114C21732B681C214B43F0
:104C1800DB0C64214B430193019B6BB9012090602D
:104C28000A4BDB6803B030BD019B013B01938368ED
:104C38009C07E4D50020E6E7019B013B0193A368AC
:104C4800DB07E9D5ECE700BF74000020000001583D
:104C580037B5184D2B6802461C204343DB0C6420F3
:104C6800434315480193019BA3B901209060124C5E
:104C7800FF2323732B681C256B43DB0C64256B43D4
:104C88000193019B73B9012090600B4BDB680B709B
:104C980003B030BD019B013B019383689C07E2D5BB
:104CA8000020E4E7019B013B0193A368DB07E8D5FB
:104CB800EBE700BF74000020000001580F4B13B54C
:104CC8001B680F4C182253431B0D642253430146A3
:104CD80001936269019B02F0040223B902238B60ED
:104CE800012002B010BD019B013B0193606910F0E7
:104CF8000200F6D0002AECD11046F2E7740000203A
:104D08000004005807B50379012B0FD10A4B1B6823
:104D1800182253431B0C0193FFF7EEFE019B013B46
:104D28000193019B002BF9D1FFF7DCFE03B05DF87E
:104D380004EBFFF7C3BF00BF74000020F8B51E46A0
:104D48008379012B154604460F46DAB22DD14379F3
:104D5800012B2AD0022342718371FFF7D3FF0D2163
:104D68002046FFF7C9FEFFF73FFF390A2046FFF745
:104D78003BFFF9B22046FFF737FF2E44B5420ED16C
:104D88002046FFF7AFFEFFF799FFA0680123003820
:104D9800A3714FF0000318BF01206371F8BD15F827
:104DA800011B2046FFF720FFE8E70220F6E7F8B5E9
:104DB8001E468379012B154604460F46DAB22FD1D9
:104DC8004379012B2CD04271FFF79CFF1D2120460F
:104DD800FFF792FEFFF708FF390A2046FFF704FFA6
:104DE800F9B22046FFF700FF00212046FFF7FCFE3E
:104DF8002E44B5420ED12046FFF774FEFFF75EFF42
:104E0800A06801230038A3714FF0000318BF0120E8
:104E18006371F8BD29462046FFF71AFF0135E8E718
:104E28000220F6E7F8B51F468379012B154604469C
:104E38000E46DAB22CD14379012B29D04271FFF703
:104E480061FF06F0EF03A3F184025342534123713B
:104E580031462046FFF750FEFFF7C6FE2F44AF420B
:104E680010D1FFF73FFE842E02D02046FFF726FF21
:104E7800A06801230038A3714FF0000318BF012078
:104E88006371F8BD15F8011B2046FFF7ADFEE6E794
:104E98000220F6E7F8B51E468379012B154604462D
:104EA8000F46DAB227D14379012B24D04271FFF79C
:104EB80029FF39462046FFF71FFEFFF795FE002120
:104EC8002046FFF791FE2E44B5420ED12046FFF74B
:104ED80009FEFFF7F3FEA06801230038A3714FF025
:104EE800000318BF01206371F8BD29462046FFF76B
:104EF800AFFE0135E8E70220F6E737B50023ADF845
:104F0800043001AA022312210546FFF7C3FFBDF8AA
:104F18000440022364BAA4B201AA19462846FFF73E
:104F280081FFE00702D528460AF098F8A10702D5C4
:104F380028460AF099F8620702D528460AF0BEF812
:104F4800230702D528460AF0BFF8E00602D528460E
:104F58000AF0C0F8A10602D528460AF0A9F86206A8
:104F680002D528460AF086F8230607D5E005C4F3DB
:104F78000021284648BF01210AF082F8A20502D57F
:104F880028460AF08DF8630402D528460AF0A8F8E6
:104F980003B030BDF8B51E468379012B154604468B
:104FA8000F46DAB227D14379012B24D04271FFF79B
:104FB800A9FE0E212046FFF79FFDFFF715FE394693
:104FC8002046FFF711FE2E44B5420ED12046FFF7CA
:104FD80089FDFFF773FEA06801230038A3714FF025
:104FE800000318BF01206371F8BD15F8011B2046A6
:104FF800FFF7FAFDE8E70220F6E7F8B51E468379E1
:10500800012B154604460F46DAB22BD14379012B02
:1050180028D04271FFF776FE1E212046FFF76CFD6F
:10502800FFF7E2FD39462046FFF7DEFD0021204666
:10503800FFF7DAFD2E44B5420ED12046FFF752FDA8
:10504800FFF73CFEA06801230038A3714FF000036E
:1050580018BF01206371F8BD29462046FFF7F8FD07
:105068000135E8E70220F6E7026852E8003F23F03E
:10507800C00342E8003102680029F5D102F10803B3
:1050880053E8003F23F4000302F1080C4CE8003118
:105098000029F3D12023C0F88830704710B5026882
:1050A80052E8003F23F4907342E800310268002977
:1050B800F5D10F4C02F1080353E8003F234002F1F9
:1050C800080C4CE800310029F4D1C36E012B07D13C
:1050D80052E8003F23F0100342E800310029F7D1DD
:1050E8002023C0F88C300023C366436710BD00BF7F
:1050F800FEFFFFEFF8B504461346D4F88850202D7C
:1051080032D1F1B1EAB1E06FA4F85620A4F85420E6
:1051180000262122C4F890602165C4F8882090B147
:10512800124F2268C762124F0763124F2832C0E934
:105138000D76FEF73DF930B11023C4F89030C4F86D
:10514800885001200FE0236840221A62226802F189
:10515800080353E8003F43F0800302F1080141E8E7
:1051680000300028F3D1F8BD0220FCE78151000887
:10517800C9510008D551000808B50346806A1B6864
:105188001B6813F0200317D1A0F85630026802F10B
:10519800080353E8003F23F08003083242E8003157
:1051A80002680029F2D152E8003F43F0400342E888
:1051B80000310029F7D108BDFCF70AFEFBE770476C
:1051C80008B5806AFFF7FBFF08BD7047806A026870
:1051D800D0F8883010B5D0F88C409268120606D501
:1051E800212B04D10023A0F85630FFF73DFF0368B8
:1051F8009B685B0606D5222C04D10023A0F85E30FC
:10520800FFF74CFFD0F8903043F01003C0F890300F
:10521800FFF7DBFF10BD08B5806A0023A0F85E30F9
:10522800A0F85630FFF7D1FF08BD70470368DA6968
:1052380019682DE9F04140F60F0632429D68044690
:1052480010D1960640F1988001F0200605F08057AD
:105258003E4300F09180436F002B00F08680BDE84C
:10526800F0411847AC4EAD482E400840304300F09E
:105278008380D70709D5C80507D501201862D4F857
:10528800900040F00100C4F89000970709D5E8079E
:1052980007D502201862D4F8900040F00400C4F842
:1052A8009000570709D5E80707D504201862D4F8F5
:1052B800900040F00200C4F8900017070BD501F0E9
:1052C8002000304307D008201862D4F8900040F03E
:1052D8000800C4F8900016050AD5480108D54FF40F
:1052E80000601862D4F8903043F02003C4F890307E
:1052F800D4F89030002B38D093060AD501F020015D
:1053080005F0805551EA050303D0636F0BB12046C1
:1053180098472368D4F890509B6805F0280503F057
:1053280040031D43204622D0FFF7B8FE2268936849
:105338005F0617D502F1080353E8003F23F0400346
:1053480002F1080040E800310029F3D1D4F88000C8
:1053580040B1734B8363FEF7A5F830B1D4F88000F1
:10536800836B7CE72046FFF730FFBDE8F081FFF74D
:105378002CFFC4F89050F8E7E06E012840F08980CF
:10538800D60640F18680C80640F1838010221A6252
:105398009A6851064BD5D4F8802011684A6892B2B1
:1053A800002AE2D0B4F85C009042DED9A4F85E206E
:1053B8000A6892062FD453E8002F22F4807243E83B
:1053C80000210029F7D103F1080252E8002F22F04A
:1053D800010203F1080040E800210029F3D103F19C
:1053E800080252E8002F22F0400203F1080040E8CA
:1053F80000210029F3D12022C4F88C20E16653E86B
:10540800002F22F0100243E800210029F7D1D4F838
:105418008000FEF712F802232367B4F85E30B4F870
:105428005C10C91A89B22046FFF7FFFE9DE7B4F861
:105438005E108AB2B4F85E1089B2002995D0B4F82B
:105448005C10891A89B200298FD053E8002F22F402
:10545800907243E800200028F7D1324D03F108028A
:1054680052E8002F2A4003F1080646E800200028E9
:10547800F4D12022C4F88C206067E06653E8002F3E
:1054880022F0100243E800200028F7D10223236706
:10549800C9E7D70209D56E0207D54FF48012204616
:1054A8001A62BDE8F04100F0A3BD10060BD501F06B
:1054B800800005F40005284305D0A36F002B3FF4B6
:1054C80054AF2046CBE6570611D54E060FD553E804
:1054D800002F22F0400243E800210029F7D12023C1
:1054E800C4F88830A1672046FCF772FC3DE7150236
:1054F80006D5480004D52046BDE8F04100F07ABD45
:10550800D3017FF532AF0029BFF62FAF2046BDE8A3
:10551800F04100F06EBD00BF010000102001000442
:105528001F520008FEFFFFEFD0F88C20222A08B592
:10553800036857D15B6AB0F86010826D0B40137036
:10554800836D01338365B0F85E30013B9BB2A0F8F0
:105558005E30B0F85E309BB2002B42D1026852E850
:10556800003F23F4907342E8003103680029F5D125
:1055780003F1080252E8002F22F0010203F1080C9F
:105588004CE800210029F3D12022C0F88C20184AC9
:1055980041679342016705D1C26E012A0ED0FCF71C
:1055A80025FC1EE05A681102F6D553E8002F22F0B8
:1055B800806243E800210029F7D1EDE70022C266A6
:1055C80053E8002F22F0100243E800210029F7D108
:1055D800DA69B0F85C10D20644BF10221A62FFF7ED
:1055E80024FE08BD9A6942F008029A61F9E700BFF3
:1055F80000800040D0F88C20222A08B5036854D1D6
:10560800596AB0F860201140826D22F8021B826549
:10561800B0F85E20013A92B2A0F85E20B0F85E20A1
:1056280092B2002A40D153E8002F22F4907243E846
:1056380000210029F7D103F1080252E8002F22F0D7
:10564800010203F1080C4CE800210029F3D12022C3
:10565800C0F88C20174A41679342016705D1C26E92
:10566800012A0ED0FCF7C2FB1EE05A681102F6D5DB
:1056780053E8002F22F0806243E800210029F7D187
:10568800EDE70022C26653E8002F22F0100243E83B
:1056980000210029F7D1DA69B0F85C10D20644BFBE
:1056A80010221A62FFF7C1FD08BD9A6942F008028C
:1056B8009A61F9E7008000402DE9F74F0368DF6938
:1056C8001A689D68D0F88C1001922229044640F08F
:1056D800B680B0F86080B0F86890DFF86CA1DFF8A9
:1056E8006CB10026B9F1000F01D0BB0621D4B4F883
:1056F8005E309BB2D3B1B4F868209A4216D92268BA
:1057080002F1080353E8003F23F08053083242E8CF
:10571800003122680029F2D14D4B636752E8003FFF
:1057280043F0200342E800310029F7D103B0BDE877
:10573800F08F2368A26D5B6A03EA08031370A36DF8
:105748000133A365B4F85E30013B9BB2A4F85E3028
:105758002368DF6978072CD0F9070AD5019AD205A2
:1057680007D501211962D4F8901041F00101C4F85D
:105778009010B80709D5E90707D502211962D4F8AE
:10578800901041F00401C4F890107A0709D5E80791
:1057980007D504211962D4F8903043F00203C4F805
:1057A8009030D4F8903023B12046FFF70EFDC4F8AE
:1057B8009060B4F85E309BB2002B93D1216851E819
:1057C800003F23F4807341E8003023680028F5D1B6
:1057D80003F1080252E8001F01EA0A0142E800103A
:1057E8000028F5D120215B45C4F88C10606720673C
:1057F8000AD05968090207D553E8001F21F08061D3
:1058080043E800100028F7D1E16E012913D1E666BC
:1058180053E8001F21F0100143E800100028F7D1D9
:10582800D969CA0644BF102119622046B4F85C1031
:10583800FFF7FBFC56E72046FCF7D8FA52E79A69CF
:1058480042F008029A6171E7FEFFFFEF0080004016
:10585800315500082DE9F74F0368DF691A689D681C
:10586800D0F88C1001922229044640F0B480B0F898
:105878006080B0F86890DFF868A1DFF868B10026AA
:10588800B9F1000F01D0BB0621D4B4F85E309BB249
:10589800D3B1B4F868209A4216D9226802F10803F5
:1058A80053E8003F23F08053083242E80031226871
:1058B8000029F2D14C4B636752E8003F43F02003C4
:1058C80042E800310029F7D103B0BDE8F08F236822
:1058D800A26D596A08EA010122F8021BA265B4F810
:1058E8005E20013A92B2A4F85E20DF6978072CD0D6
:1058F800F9070AD5019AD20507D501211962D4F80A
:10590800901041F00101C4F89010B80709D5E907D3
:1059180007D502211962D4F8901041F00401C4F8A7
:1059280090107A0709D5E80707D504211962D4F839
:10593800903043F00203C4F89030D4F8903023B18B
:105948002046FFF742FCC4F89060B4F85E309BB282
:10595800002B95D1216851E8003F23F4807341E87A
:10596800003023680028F5D103F1080252E8001F2F
:1059780001EA0A0142E800100028F5D120215B4520
:10598800C4F88C10606720670AD05968090207D5E7
:1059980053E8001F21F0806143E800100028F7D188
:1059A800E16E012913D1E66653E8001F21F01001CA
:1059B80043E800100028F7D1D969CA0644BF10216E
:1059C80019622046B4F85C10FFF72FFC58E7204610
:1059D800FCF70CFA54E79A6942F008029A6173E7F7
:1059E800FEFFFFEF00800040FD55000838B5044673
:1059F80003682169A2681D68C0690A4361690A438E
:105A08007D49024329400A431A605A68E16822F432
:105A180040520A435A60794AA16993421CBF226ADC
:105A280011439A6822F06E4222F430620A439A6067
:105A3800DA6A616A22F00F020A43DA62704A934214
:105A48001CD14FF0B043D3F8883003F0030343F47C
:105A58004033A3F54033013B022B00F2C780694A6B
:105A68009B5CB0F5004F40F08980082B24D8DFE814
:105A780003F061C08323802323236500624A934295
:105A880009D14FF0B043614AD3F8883003F00C03D2
:105A980043F44023E4E7594A93420DD14FF0B04311
:105AA800D3F8883003F44063B3F5006F1AD005D8F3
:105AB80053B1B3F5806F12D0012009E0B3F5406F00
:105AC800FAD14FF400400EE0FEF7C6FC58B90020AA
