:020000040800F2
:10000000008000207D2800081D1700081F17000829
:10001000211700082317000825170008000000001A
:10002000000000000000000000000000271700088A
:1000300029170008000000002B1700082D170008E2
:10004000CD280008CD28000831170008CD28000869
:10005000CD280008CD280008CD280008CD280008AC
:10006000CD280008CD280008CD280008CD2800089C
:10007000CD280008CD280008CD2800083D1700082D
:10008000CD280008CD280008CD280008CD2800087C
:1000900000000000CD280008CD280008CD28000869
:1000A000CD280008CD280008CD280008CD2800085C
:1000B000CD280008CD280008CD280008CD2800084C
:1000C00049170008CD280008CD280008CD280008D1
:1000D000CD28000855170008CD280008CD280008B5
:1000E000CD280008CD28000861170008CD28000899
:1000F000CD2800080000000000000000CD28000806
:10010000CD280008CD2800086D170008CD2800086C
:10011000CD280008CD280008CD280008CD280008EB
:10012000CD280008CD280008CD280008CD280008DB
:08013000CD280008CD280008CD
:1001380010B5054C237833B9044B13B10448AFF319
:1001480000800123237010BD28010020000000005A
:1001580018FC000808B5034B1BB103490348AFF36B
:10016800008008BD000000002C01002018FC0008D9
:10017800034613F8012B002AFBD1181A01387047DF
:1001880070B54FF0FF0C4CF4E06C1CEA11541DBF25
:100198001CEA135594EA0C0F95EA0C0F00F0DEF8F0
:1001A8002C4481EA030621EA4C5123EA4C5350EAD5
:1001B800013518BF52EA033541F4801143F4801326
:1001C80038D0A0FB02CE4FF00005E1FB02E506F0B7
:1001D8000042E0FB03E54FF00006E1FB03569CF00C
:1001E800000F18BF4EF0010EA4F1FF04B6F5007F12
:1001F80064F5407404D25FEA4E0E6D4146EB060684
:1002080042EAC62141EA55514FEAC52040EA5E500C
:100218004FEACE2EB4F1FD0C88BFBCF5E06F1ED8B6
:10022800BEF1004F08BF5FEA500E50F1000041EBED
:10023800045170BD06F0004646EA010140EA02009A
:1002480081EA0301B4EB5C04C2BFD4EB0C0541EABC
:10025800045170BD41F480114FF0000E013C00F3D1
:10026800AB8014F1360FDEBF002001F0004170BDF5
:10027800C4F10004203C35DA0C341BDC04F114040E
:10028800C4F1200500FA05F320FA04F001FA05F29A
:1002980040EA020001F0004221F0004110EBD37067
:1002A80021FA04F642EB06015EEA430E08BF20EA93
:1002B800D37070BDC4F10C04C4F1200500FA04F336
:1002C80020FA05F001FA04F240EA020001F00041C8
:1002D80010EBD37041F100015EEA430E08BF20EA3B
:1002E800D37070BDC4F1200500FA05F24EEA020E83
:1002F80020FA04F301FA05F243EA020321FA04F0B2
:1003080001F0004121FA04F220EA020000EBD37068
:100318005EEA430E08BF20EAD37070BD94F0000F68
:100328000FD101F00046400041EB010111F4801F9C
:1003380008BF013CF7D041EA060195F0000F18BF4D
:10034800704703F00046520043EB030313F4801F89
:1003580008BF013DF7D043EA0603704794EA0C0F43
:100368000CEA135518BF95EA0C0F0CD050EA410659
:1003780018BF52EA4306D1D181EA030101F00041D6
:100388004FF0000070BD50EA410606BF10461946FE
:1003980052EA430619D094EA0C0F02D150EA01360A
:1003A80013D195EA0C0F05D152EA03361CBF10464B
:1003B80019460AD181EA030101F0004141F0FE41EA
:1003C80041F470014FF0000070BD41F0FE4141F46E
:1003D800780170BD4FF0FF0C1CEAD0521EBF1CEA1A
:1003E800D15392EA0C0F93EA0C0F6FD01A4480EAAB
:1003F800010C400218BF5FEA41211ED04FF0006394
:1004080043EA501043EA5111A0FB01310CF00040BF
:10041800B1F5000F3EBF490041EAD3715B0040EAE5
:10042800010062F17F02FD2A1DD8B3F1004F40EBB5
:10043800C25008BF20F00100704790F0000F0CF088
:10044800004C08BF49024CEA502040EA51207F3A4C
:10045800C2BFD2F1FF0340EAC250704740F4000027
:100468004FF00003013A5DDC12F1190FDCBF00F018
:1004780000407047C2F10002410021FA02F1C2F1C6
:10048800200200FA02FC5FEA310040F1000053EA62
:100498004C0308BF20EADC70704792F0000F00F0B0
:1004A800004C02BF400010F4000F013AF9D040EAB6
:1004B8000C0093F0000F01F0004C02BF490011F44A
:1004C800000F013BF9D041EA0C018FE70CEAD15348
:1004D80092EA0C0F18BF93EA0C0F0AD030F0004CC8
:1004E80018BF31F0004CD8D180EA010000F000407C
:1004F800704790F0000F17BF90F0004F084691F03A
:10050800000F91F0004F14D092EA0C0F01D1420273
:100518000FD193EA0C0F03D14B0218BF084608D13C
:1005280080EA010000F0004040F0FE4040F4000086
:10053800704740F0FE4040F44000704781F00041B1
:1005480002E000BF83F0004330B54FEA41044FEAB0
:10055800430594EA050F08BF90EA020F1FBF54EA4B
:10056800000C55EA020C7FEA645C7FEA655C00F0E7
:10057800E2804FEA5454D4EB5555B8BF6D420CDDB8
:100588002C4480EA020281EA030382EA000083EA3B
:10059800010180EA020281EA0303362D88BF30BDDB
:1005A80011F0004F4FEA01314FF4801C4CEA113131
:1005B80002D0404261EB410113F0004F4FEA033390
:1005C8004CEA133302D0524263EB430394EA050F1B
:1005D80000F0A780A4F10104D5F1200E0DDB02FA8A
:1005E8000EFC22FA05F2801841F1000103FA0EF21E
:1005F800801843FA05F359410EE0A5F120050EF1E4
:10060800200E012A03FA0EFC28BF4CF0020C43FA14
:1006180005F3C01851EBE37101F0004507D54FF021
:10062800000EDCF1000C7EEB00006EEB0101B1F571
:10063800801F1BD3B1F5001F0CD349085FEA3000B7
:100648004FEA3C0C04F101044FEA445212F5800FC2
:1006580080F09A80BCF1004F08BF5FEA500C50F15F
:10066800000041EB045141EA050130BD5FEA4C0C42
:10067800404141EB0101013C28BFB1F5801FE9D29F
:1006880091F0000F04BF01460020B1FA81F308BFC2
:100698002033A3F10B03B3F120020CDA0C3208DD8E
:1006A80002F1140CC2F10C0201FA0CF021FA02F169
:1006B8000CE002F11402D8BFC2F1200C01FA02F1D9
:1006C80020FA0CFCDCBF41EA0C019040E41AA2BFFE
:1006D80001EB0451294330BD6FEA04041F3C1CDAC6
:1006E8000C340EDC04F11404C4F1200220FA04F0E6
:1006F80001FA02F340EA030021FA04F345EA030190
:1007080030BDC4F10C04C4F1200220FA02F001FA51
:1007180004F340EA0300294630BD21FA04F02946D3
:1007280030BD94F0000F83F4801306BF81F480116C
:100738000134013D4EE77FEA645C18BF7FEA655CDF
:1007480029D094EA050F08BF90EA020F05D054EAB1
:10075800000C04BF1946104630BD91EA030F1EBFB6
:100768000021002030BD5FEA545C05D140004941BA
:1007780028BF41F0004130BD14F580043CBF01F5AD
:10078800801130BD01F0004545F0FE4141F4700193
:100798004FF0000030BD7FEA645C1ABF194610466E
:1007A8007FEA655C1CBF0B46024650EA013406BF6F
:1007B80052EA033591EA030F41F4002130BD00BF2E
:1007C80090F0000F04BF0021704730B54FF48064EB
:1007D80004F132044FF000054FF0000150E700BF6C
:1007E80090F0000F04BF0021704730B54FF48064CB
:1007F80004F1320410F0004548BF40424FF00001B8
:100808003EE700BF42004FEAE2014FEA31014FEAFA
:1008180002701FBF12F07F4393F07F4F81F0605149
:10082800704732F07F4208BF704793F07F4F04BF94
:1008380041F40021704730B54FF4607401F0004571
:1008480021F000411CE700BF50EA010208BF7047D1
:1008580030B54FF000050AE050EA010208BF7047C2
:1008680030B511F0004502D5404261EB41014FF42B
:10087800806404F132045FEA915C3FF4D8AE4FF033
:1008880003025FEADC0C18BF03325FEADC0C18BF16
:10089800033202EBDC02C2F1200300FA03FC20FA67
:1008A80002F001FA03FE40EA0E0021FA02F11444B4
:1008B800BDE600BF4FF0FF3C06E000BF4FF0010C63
:1008C80002E000BF4FF0010C4DF804CD4FEA410C97
:1008D8007FEA6C5C4FEA430C18BF7FEA6C5C1BD064
:1008E80001B050EA410C0CBF52EA430C91EA030FE5
:1008F80002BF90EA020F0020704710F1000F91EA42
:10090800030F58BF994208BF90422CBFD8176FEA0F
:10091800E37040F0010070474FEA410C7FEA6C5CDD
:1009280002D150EA013C07D14FEA430C7FEA6C5CE4
:10093800D6D152EA033CD3D05DF8040B704700BF10
:100948008446104662468C461946634600E000BF5E
:1009580001B5FFF7B7FF002848BF10F1000F01BD30
:100968004DF808EDFFF7F4FF0CBF012000205DF8FB
:1009780008FB00BF4DF808EDFFF7EAFF34BF012080
:1009880000205DF808FB00BF4DF808EDFFF7E0FF19
:1009980094BF012000205DF808FB00BF4DF808ED6A
:1009A800FFF7CEFF94BF012000205DF808FB00BFD1
:1009B8004DF808EDFFF7C4FF34BF012000205DF8B3
:1009C80008FB00BF4FEA410212F5001215D211D5FB
:1009D8006FF47873B3EB625212D94FEAC12343F034
:1009E800004343EA505311F0004F23FA02F018BFB6
:1009F800404270474FF00000704750EA013005D17F
:100A080011F0004008BF6FF0004070474FF0000041
:100A1800704700BF4A0011D212F5001211D20DD54D
:100A28006FF47873B3EB62520ED44FEAC12343F0EC
:100A3800004343EA505323FA02F070474FF0000096
:100A4800704750EA013002D14FF0FF3070474FF045
:100A5800000070474FEA4102B2F1E04324BFB3F50A
:100A6800001CDCF1FE5C0DD901F0004C4FEAC0021D
:100A78004CEA5070B2F1004F40EB830008BF20F001
:100A88000100704711F0804F21D113F13872BCBFBB
:100A980001F00040704741F480114FEA5252C2F110
:100AA8001802C2F1200C10FA0CF320FA02F018BF59
:100AB80040F001004FEAC1234FEAD32303FA0CFCAC
:100AC80040EA0C0023FA02F34FEA4303CCE77FEA3B
:100AD800625307D150EA01331EBF4FF0FE4040F485
:100AE8004000704701F0004040F0FE4040F4000034
:100AF800704700BF80F0004002E000BF81F0004175
:100B080042001FBF5FEA410392EA030F7FEA226CAB
:100B18007FEA236C6AD04FEA1262D2EB1363C1BF3B
:100B2800D218414048404140B8BF5B42192B88BFAA
:100B3800704710F0004F40F4000020F07F4018BFCD
:100B4800404211F0004F41F4000121F07F4118BFED
:100B5800494292EA030F3FD0A2F1010241FA03FC95
:100B680010EB0C00C3F1200301FA03F100F000437D
:100B780002D5494260EB4000B0F5000F13D3B0F145
:100B8800807F06D340084FEA310102F10102FE2AB4
:100B980051D2B1F1004F40EBC25008BF20F0010024
:100BA80040EA03007047490040EB0000013A28BFC3
:100BB800B0F5000FEDD2B0FA80FCACF1080CB2EB46
:100BC8000C0200FA0CF0AABF00EBC25052421843C4
:100BD800BCBFD0401843704792F0000F81F4000169
:100BE80006BF80F400000132013BB5E74FEA41033C
:100BF8007FEA226C18BF7FEA236C21D092EA030FA8
:100C080004D092F0000F08BF0846704790EA010F21
:100C18001CBF0020704712F07F4F04D1400028BF4E
:100C280040F00040704712F100723CBF00F5000030
:100C3800704700F0004343F0FE4040F40000704766
:100C48007FEA226216BF08467FEA23630146420212
:100C580006BF5FEA412390EA010F40F48000704725
:100C68004FF0000304E000BF10F0004348BF4042CB
:100C78005FEA000C08BF704743F0964301464FF007
:100C880000001CE050EA010208BF70474FF0000363
:100C98000AE000BF50EA010208BF704711F00043A4
:100CA80002D5404261EB41015FEA010C02BF844674
:100CB8000146002043F0B64308BFA3F18053A3F5D3
:100CC8000003BCFA8CF2083AA3EBC25310DB01FA1A
:100CD80002FC634400FA02FCC2F12002BCF1004F9E
:100CE80020FA02F243EB020008BF20F0010070472F
:100CF80002F1200201FA02FCC2F1200250EA4C0083
:100D080021FA02F243EB020008BF20EADC707047C8
:100D18004FEA4002B2F1FE4F0FD34FF09E03B3EB00
:100D280012620DD94FEA002343F0004310F0004F40
:100D380023FA02F018BF404270474FF00000704796
:100D480012F1610F01D1420205D110F0004008BF35
:100D58006FF0004070474FF00000704753B94AB930
:100D6800002908BF00281CBF4FF0FF314FF0FF30AB
:100D780000F074B9ADF1080C6DE904CE00F006F886
:100D8800DDF804E0DDE9022304B070472DE9F047FF
:100D9800089E0D4604468846002B4DD18A4294464B
:100DA80068D9B2FA82F252B101FA02F3C2F1200113
:100DB80020FA01F10CFA02FC41EA030894404FEAD8
:100DC8001C45210CB8FBF5FE1FFA8CF705FB1E83AA
:100DD80041EA03430EFB07F199420BD91CEB0303CD
:100DE8000EF1FF3080F01E81994240F21B81AEF176
:100DF800020E63445B1AA4B2B3FBF5F005FB103393
:100E080044EA034400FB07F7A7420AD91CEB040491
:100E180000F1FF3380F00881A74240F20581644465
:100E28000238E41B40EA0E4000211EB1D4400023E2
:100E3800C6E90043BDE8F0878B4208D9002E00F0D0
:100E4800EE800021C6E900050846BDE8F087B3FA40
:100E580083F100294AD1AB4202D3824200F2F980E1
:100E6800841A65EB030301209846002EE2D0C6E9F8
:100E78000048DFE702B9FFDEB2FA82F2002A40F04A
:100E88009180A1EB0C054FEA1C471FFA8CFE01214B
:100E9800B5FBF7F307FB1350250C45EA00450EFB9D
:100EA80003F0A84208D91CEB050503F1FF3802D26C
:100EB800A84200F2CB8043462D1AA4B2B5FBF7F046
:100EC80007FB105544EA05440EFB00FEA64508D969
:100ED8001CEB040400F1FF3502D2A64500F2BB80EA
:100EE8002846A4EB0E0440EA03409EE7C1F1200720
:100EF8008B4022FA07FC4CEA030C20FA07F405FAA7
:100F080001F31C43FD404FEA1C4900FA01F3B5FB0D
:100F1800F9F8200C1FFA8CFE09FB185540EA054524
:100F280008FB0EF0A84202FA01F20BD91CEB0505EA
:100F380008F1FF3A80F08880A84240F28580A8F145
:100F4800020865442D1AA4B2B5FBF9F009FB105547
:100F580044EA054500FB0EFEAE4508D91CEB050525
:100F680000F1FF346CD2AE456AD90238654440EAD4
:100F78000840A0FB0294A5EB0E05A542C846A6466C
:100F880056D353D05EB1B3EB080265EB0E0505FAF4
:100F980007F722FA01F3CD401F43C6E90075002187
:100FA800BDE8F087C2F1200320FA03F10CFA02FC35
:100FB80025FA03F395400D434FEA1C471FFA8CFEB0
:100FC800B3FBF7F107FB11302B0C43EA004301FB9D
:100FD8000EF0984204FA02F408D91CEB030301F15D
:100FE800FF382FD298422DD9023963441B1AADB26B
:100FF800B3FBF7F007FB103345EA034500FB0EF39C
:10100800AB4208D91CEB050500F1FF3816D2AB42FC
:1010180014D902386544ED1A40EA014138E73146EF
:10102800304607E78646E5E61846FAE64B45A9D274
:10103800B9EB020864EB0C0E0138A3E74046EAE777
:10104800204694E74146D1E7D0467BE7023B65441A
:1010580032E7084609E76444023842E7704700BFB0
:101068004FF0B04307B59A6C42F004029A649A6C48
:1010780002F004020192019A9A6C42F001029A6409
:101088009B6C03F001030093002202210F20009BB8
:1010980001F07AFC0F2003B05DF804EB01F0A6BC68
:1010A80008B501F003FF10B16FF0040008BD064B4E
:1010B8009A6942F040429A614CF2FA321A6101F0A0
:1010C80007FF0028F2D0EFE700400058F0B585B0E0
:1010D80000230C4600930646A8B3FFF7E1FF054638
:1010E80070BB01F0E3FE88BB1A481B4A0223019338
:1010F800D0F8E01506F1784302EA8121B3FBF1F755
:1011080001FB1733DB0A0293D0F8E00504F17841BC
:10111800013902EA80203144B1FBF0F200FB1211E0
:10112800C3EBD1230133694601A8039301F050FFB3
:1011380020B102280CBF01256FF0010501F0C8FE9F
:10114800284605B0F0BD6FF00505F9E76FF0040516
:10115800F6E700BF0070FF1F00FCFF032DE9F04F0A
:1011680089B0B0F1006F06460F460092C0F0C58006
:10117800DFF89881664DD8F8E03505EA832303F156
:101188000063013B984200F2B880002800F0B88064
:10119800002900F0B58040EA02035B0740F0B08008
:1011A800FFF77EFF0446A0BB01F080FE002840F058
:1011B800AA80D8F8E01506F1784205EA8121B2FB49
:1011C800F1F301FB1322009B03F17843013B334405
:1011D800B3FBF1F001FB1033DB0A01334FEAD22AEB
:1011E800A3EBD222012A039388BFC6F30A050AF5A6
:1011F8008038C6F1080398BF009D069388BFC5F5DF
:1012080000654FEAC828B346039B9A4505D301F009
:101218005FFE204609B0BDE8F08FA6F10803069AE4
:101228001A44954219D804950197CDF814B04FF097
:101238000009059B09EB0301049B99453ED3009BDC
:10124800AB442F445D1BB5F5006F28BF4FF4006514
:101258000AF1010A08F50068D6E753F8081F5A682A
:10126800B2F1FF3F08BFB1F1FF3FD8D0294B186852
:1012780010B96FF00504CAE7B8F1000F04D04FF4B5
:10128800006241460DF0F2FFDFF88890D9F80000BF
:10129800CBF30A0339461844AAB20DF0E7FF4FF41E
:1012A80000614046FFF712FF08BBD9F800300193F0
:1012B8004FF40063CDF814800493B8E7019B0791BD
:1012C8004B4402930120D3E9002301F03BFE88B987
:1012D8000799019BD1E9000259F80310029B5B684A
:1012E8009A4208BF884205D109F10809A1E76FF0C1
:1012F80001048CE76FF0030489E74FF0FF3488E7B7
:101308006FF0050485E76FF0040482E70070FF1FA3
:1013180000FCFF0344010020B1F1006F70B511D348
:101328000B4BD3F8E0650B4B03EA862303F100630C
:10133800013B994206D840B139B192B20DF096FFFF
:10134800002070BD4FF0FF30FBE76FF00500F8E7B5
:101358000070FF1F00FCFF03B0F1006F10B40DD345
:10136800084BD3F8E045084B03EA842303F10063F4
:10137800013B984202D810BCFFF7A8BE4FF0FF30DF
:1013880010BC70470070FF1F00FCFF034FF0B04314
:1013980082B0DA6C0243DA64DB6C18400190019B7E
:1013A80002B0704770B586B01422002101A80EF073
:1013B800A5FB0120FFF7EAFF204D0420FFF7E6FF19
:1013C8000220FFF7E3FF43F210012846002201F054
:1013D8006DFF002240F201714FF0904001F066FF6E
:1013E80001260024102301A92846CDE90136CDE9BC
:1013F800034401F03BFE40F2017301A94FF0904015
:10140800CDE90136CDE9034401F030FE24224FF442
:101418008813CDE9012301A902232846039301F08B
:1014280025FE4FF44053CDE9013601A90323284690
:101438000394049301F01AFE06B070BD000400483E
:1014480008B51248124A134BC0E9002300230122B1
:10145800C0E90232C0E90433C0E90633036202F08E
:10146800D6F808B100F0B8F80848002102F00BFBE4
:1014780008B100F0B1F80548002102F02AFB18B1C4
:10148800BDE8084000F0A8B808BD00BF480100202A
:10149800005800401A09102030B597B004461422AD
:1014A800002103A80EF02AFB3822002108A80EF01C
:1014B80025FB22681D4B9A4236D18023089308A841
:1014C8004FF440230E9303F083F808B100F084F83A
:1014D8004FF0B0444FF4C052E36C43F00103E364AF
:1014E800E36C03F001030293029B1223CDE903236B
:1014F80000250223CDE9055303A904234FF09040AA
:10150800079301F0B3FDA36D43F48003A365A36DB6
:1015180003F48003019320202A462946019B01F009
:1015280033FA202001F062FA17B030BD00580040AD
:1015380000B59BB04822002108A80EF0DFFA1C2253
:10154800002101A80EF0DAFA02F0E8FA4FF0B042F2
:101558000120D2F8903023F01803C2F89030D2F866
:10156800003423F4C06343F40073C2F80034D2F8A3
:10157800003403F4C0630093009B24230893812361
:101588000B930023CDE91003B02208A8CDE912235C
:1015980002F042FC08B172B6FEE74F23CDE90130F4
:1015A800CDE9030005900790022101A802F0D4FEBE
:1015B80008B172B6FEE71BB05DF804FB08B501F090
:1015C80083F9FFF7B5FFFFF7EDFE00F06BFCFFF7BF
:1015D80037FF00F06EFCFCE772B6FEE700B58DB091
:1015E8002C22002101A80EF089FA1748174B036036
:1015F8001F2383604FF080420023C0E90433C0E911
:10160800072383614FF48073436203F071F908B1D3
:10161800FFF7E2FF0C4803F093FA08B1FFF7DCFF8D
:101628004FF0005300220793074808924FF4807345
:1016380001A9029206920B9303F0B6F908B1FFF7DD
:10164800CBFF0DB05DF804FB94010020002800409A
:1016580010B5044690B03822002102A80EF04EFAC8
:101668002268194B9A422CD14FF48033029302A876
:101678004FF480730F9302F0ABFF08B1FFF7ACFF94
:101688004FF0B0430220D3F8902042F40042C3F850
:1016980090209A6D42F480629A659B6D002203F453
:1016A800806311460193019B01F06EF9022001F05D
:1016B8009DF900222A20114601F066F92A2001F03E
:1016C80095F910B010BD00BF002800407047000019
:1016D80008B501F00FF9044B0120C3F88800BDE8F4
:1016E800084002F073BA00BF0004005801F009B9BD
:1016F80008B501F006F9BDE8084000F093BB08B54D
:1017080001F0F8F8BDE808400121002002F00EBA07
:1017180070477047FEE7FEE7FEE7FEE7FEE7704723
:101728007047704770470000014803F02FBA00BFA8
:1017380094010020014801F03BBB00BFE0010020FC
:10174800014802F099B900BF48010020014803F0A0
:10175800E3BD00BF40020020014803F04BB800BFC2
:1017680094010020014803F030BC00BFCC010020E8
:10177800054808B50823036003F04EFA18B1BDE820
:101788000840FFF729BF08BDCC0100204FF0B04347
:1017980007B55A6E42F001025A665B6E002203F0EA
:1017A8000103019311463220019B01F0EDF832202C
:1017B80003B05DF804EB01F019B900000CB407B5EB
:1017C800054A05AB102101930EF05CF803B05DF8F3
:1017D80004EB02B0704700BF9CFC000830B585B030
:1017E800044602A80D460DF077FEBDF90C30064AF6
:1017F80000931021029B2046FFF7E0FF2046FEF7EA
:10180800B7FC288005B030BD9CFC00084FF0B04202
:1018180010B5936823F4004393600DF0E5FE0F4B79
:1018280001241C7000F092F80DF0AEFB0C480DF08E
:10183800C5FB0C4B4FF400421A6102200DF0C4FBAB
:1018480000F0DAF80DF0BCFC214620460DF0D8FC7B
:101858000021BDE81040084600F036BBD801002042
:10186800E5170008004000580DF0E0BC0020704764
:101878007FB5684600F0AAF80198FFF749FA00B268
:1018880007B05DF804FB0000184A38B5D2F8803577
:10189800591C044616D101F03BF8054601F044F8FE
:1018A800054401F03BF82B0EE3712B0CA3712B0AB6
:1018B8006371030EE370030CA370030A2571637050
:1018C800207038BD190AC3718171190C1B0E417142
:1018D8000371D2F88435C370D2F884351A0A82703D
:1018E8001A0C1B0E42700370EBE700BF0070FF1F5D
:1018F80038B5094BD3F8803503600133054609D163
:1019080001F006F8044601F009F8444001F00CF82B
:1019180044402C6038BD00BF0070FF1F0121022029
:101928000DF058BC002102200DF054BC0020704777
:10193800024B187808B100F097B87047D80100201A
:1019480082B00190019802B000F02AB9F0B589B0D0
:1019580000F0F0FF00F0F6FF00F0FCFF0123049315
:101968000323069300254FF0B04305950795DA6CDD
:10197800154C42F00202DA64DA6C02F002020292BA
:10198800029ADA6C42F00202DA64DB6C03F00203BA
:1019980001934FF4805703A92046019B03974FF406
:1019A800005601F063FB03A92046039601F05EFB95
:1019B8002A463946204601F079FC2A463146204617
:1019C80001F074FC09B0F0BD00040048054B8360C9
:1019D800054B4360054B0360054A064BC0E90323EA
:1019E80000207047000048420000904100007A44FF
:1019F8000D093E00AB03050000207047014B186835
:101A0800704700BFDC0100200320704708B501467D
:101A18004FF47A7200238002890DFFF79FF908BD01
:101A28004FF47A73A0FB03309B0A43EA8050704757
:101A3800034B98689A689042FBD1C043704700BF37
:101A48000028004008B5FFF7F3FF014B186008BDF8
:101A5800DC01002008B5FFF7EBFF024B1B68C01A3A
:101A680008BD00BFDC010020024B187808B1FFF761
:101A7800DFBF7047D901002010B5074B074C012282
:101A8800DA654FF48071204602F078FE4FF0FF339C
:101A98002363002010BD00BF0028004094010020EF
:101AA80002460021014803F082B800BF94010020DB
:101AB80002460121014803F07AB800BF94010020D2
:101AC80010B58CB02C220021044601A80EF016F89F
:101AD800FFF7D2FF0C4B18680023044408930693C1
:101AE8004FF00053E4430793084802944FF480737F
:101AF800012201A90B9302F057FF08B1FFF76CFD13
:101B080000200CB010BD00BFDC01002094010020B3
:101B180038B50546FFF78CFF02210446074803F055
:101B28004DF8C4F309024FF47A71A2FB0121920A1D
:101B3800A30A2A8043EA805038BD00BF94010020E0
:101B48000148002103F03AB894010020014801211E
:101B580003F034B894010020F8B50F4D2E78CEB9B3
:101B68000E4C4FF0FF372763FFF738FDFFF784FF70
:101B78004FF48071204602F001FE2046276302F0F0
:101B8800C1FF32462046022103F011F8FFF75AFF41
:101B980001232B700020F8BDD901002094010020FA
:101BA800014610B54FF47A7200238002890DFFF7C1
:101BB800D5F80146FFF73CFF0446FFF739FF031B42
:101BC8008B4200D310BD00BFF7E70DF017BE000031
:101BD80010B5064C0221204602F0F0FF0221421CFB
:101BE8002046BDE8104002F0E2BF00BF940100208B
:101BF8001648174A08B54FF4E133C0E9002300231B
:101C08000C22C0E90233C0E90523C0E90733C0E963
:101C18000933036104F012F908B1FFF7DDFC0B4842
:101C2800002104F09BFA08B1FFF7D6FC0748002111
:101C380004F0B8FA08B1FFF7CFFC044804F06BFAD7
:101C480018B1BDE80840FFF7C7BC08BD4002002036
:101C58000044004070B596B006461422002103A83F
:101C68000DF04CFF3822002108A80DF047FF32681C
:101C78002B4B9A4251D10223089308A8294B0A9367
:101C880002F0A6FC08B1FFF7A7FC4FF0B04300250F
:101C98009A6D254C42F400329A659A6D02F400322E
:101CA8000292029ADA6C42F00102DA64DB6C03F009
:101CB80001030193019B0C220223CDE90323032393
:101CC800CDE9055303A907234FF09040079301F08E
:101CD800CDF9164925621423C4E900131023C4E979
:101CE800023520468023C4E90435C4E9065500F0CE
:101CF800DFFE08B1FFF770FC0B48102101F0AEF8C9
:101D080008B1FFF769FC2520B46700220221A6620A
:101D180000F03AFE252000F069FE16B070BD00BF45
:101D28000044004004000C00E0010020580002407C
:101D380002680C4B9A4210B5044612D14FF0B042DB
:101D48000C21936D23F4003393654FF0904001F01C
:101D580039FAA06F00F022FFBDE81040252000F0FE
:101D680053BE10BD0044004008B50A46014602486B
:101D780003F024FA002008BD4002002013B5114BDF
:101D8800114C18604FF40013009302AB13E90600DE
:101D9800204604F064F92368DA69D103FCD4DA69CF
:101DA8005202FCD59A68084842F480029A6004F00E
:101DB8009CF906490448012204F002F9002002B007
:101DC80010BD00BFD002002040020020D802002031
:101DD80008B5074B1860FFF743F9FFF709FF054AF5
:101DE800D2F8803043F00063C2F88030002008BD8C
:101DF800D40200200008005808B54FF0B043084846
:101E08009A6B42F400329A639A6B22F400329A6316
:101E1800FFF78EFF0F2000F0F7FD002008BD00BF80
:101E28004002002008B5074804F008F808B1FFF799
:101E3800D3FB054800F03CFE18B1BDE80840FFF7A9
:101E4800CBBB08BD40020020E00100200268044B23
:101E58009A4203D1034B00201B681847704700BF04
:101E680000440040D402002002680B4B9A4210B58F
:101E780004460FD1094B1B682BB1D0F88C2012B93E
:101E880007480121984720460549BDE8104001222E
:101E980004F096B810BD00BF00440040D0020020F6
:101EA800D802002008B5FFF7B1FCBDE8084000F0F3
:101EB8008DBB4FF0FF300DF01DBA012211464FF0D7
:101EC800904001F0F3B9000030B5012287B0054613
:101ED8000C464FF090404FF4806101F0E7F9FFF7AE
:101EE800ECFF0F20FFF72CFD012D14BF4FF480539A
:101EF8004FF4A053012C15D0022C16D01B0A8DF8D4
:101F0800143000238DF8153002224FF47A73CDE98E
:101F1800012305AB009380210123054801F0F6FC5D
:101F280007B030BD43F48073E8E743F40073E5E796
:101F380048010020000000007FB500210646084641
:101F4800FFF7C2FF0F20FFF7FBFC4FF47A75002361
:101F58008DF80B302448009501230DF10B028021E8
:101F680001F0A6FB0446002836D10F20FFF7E8FC55
:101F78001D480095042303AA802101F02FFC044684
:101F880050BBBDF80C00BDF80E5040BA80B2FEF749
:101F980027FC164B0022FEF7F3F811A3D3E9002320
:101FA800FEF7EEF8124B0022FEF7CCFAFEF752FDD0
:101FB8006DBAADB230602846FEF712FC0B4B00221A
:101FC800FEF7DEF80B4B0022FEF7DAF8FEF722FDEB
:101FD800C0B2FEF745FE7060204604B070BD00BF79
:101FE8000000000000A06440480100200000F03E0E
:101FF800000044400000594070477047014BD870BA
:10200800704700BF58000020014B1873704700BF8D
:102018005800002007B5064B00221B5C00931146B0
:10202800044B02200DF018F803B05DF804FB00BF64
:1020380012FD0008F8FC000808B5022000210DF088
:1020480021F9BDE8084001480DF086BB2C040020AA
:10205800002101200DF016B910B5094C60B12060BF
:1020680008480DF029FB216806480DF0AFFBBDE8D4
:10207800104004480DF070BB42F210732360EFE784
:102088006C0000202C04002008B50C4B1B78012B99
:1020980003D1002108200DF0F5F800224FF48071DB
:1020A8004FF0904001F002F9BDE8084000224FF4DB
:1020B80000714FF0904001F0F9B800BF0000002017
:1020C80000224FF400714FF0904001F0EFB800008B
:1020D80038B504460D4607484FF40061FFF73CF950
:1020E80030B92A4621460348BDE83840FFF736B8DC
:1020F80038BD00BF00F003080A460149FFF70CB9D4
:1021080000F0030838B501224FF480714FF0904079
:1021180001F0CCF801224FF400714FF0904001F02B
:10212800C5F815480DF0C8FA04F0BCFC044650B1D7
:102138000022124B114602200CF08EFFBDE83840F9
:102148000F480DF009BB0F4D0F4B02460146022008
:102158000CF082FF0D4B22462146022028700CF01D
:102168007BFF0B4804F03CFB2878012104F0FCF8C5
:1021780001480DF0F1FAE1E72C04002016FD0008F3
:10218800FC0300200000002034FD000848FD000882
:10219800580000202DE9F0418AB0FFF767FB02A83C
:1021A800FFF7CAFE4E4B00900122002102200CF0DE
:1021B80053FF4C4902984C4C4C4FFEF70BF9FEF775
:1021C800A7FD00B24A4B00900122002102200CF02A
:1021D80043FF44490398FEF7FDF8FEF799FD00B266
:1021E800444B00900122002102200CF035FF02230D
:1021F8002370636874221A70636875225A70636862
:1022080061229A7063686E22DA70636868221A71B4
:1022180063686F225A713B78082B01D0012B31D8A3
:102228006268002393716268D37162681372537293
:102238000A236370304C637A33B104F037F801280D
:1022480002D120460DF038FAF9782748002204F028
:10225800E3F8044678BB01220146284B10460CF0EF
:10226800FBFE27480DF028FA264B25481968A1429D
:1022780038BF21460DF0AAFA21480DF06DFA0AB0D0
:10228800BDE8F081DDE90765D4F80480FFF7EEFAD0
:1022980088F8060063683214DA71636832121A72B9
:1022A8002A149A722A12DA7200225E721D735A7305
:1022B8009A730F23BDE7063410D103F0F1FF0446EB
:1022C8000028CED001224FF47A730021B0FBF3F33B
:1022D800104600930C4B0CF0BFFEC2E70024C0E789
:1022E80068FD00080000204104000020580000207C
:1022F80072FD00087DFD0008CC03002088FD000861
:102308002C0400206C00002097FD00084FF4807119
:102318004FF0904000F0CFBF00B503468DB00028C5
:102328002CD0407802280AD003282AD0164B002245
:10233800114602200DB05DF804EB0CF08DBEDA7E7C
:102348000B929A7E0A925A7E09921A7E0892DA7D38
:1023580007929A7D06925A7D05925A680492DA6825
:10236800039293F914200292B3F9122001921B7C74
:1023780000930022054B11460CF06EFE0DB05DF87F
:1023880004FB034BD3E700BFB5FD0008CCFD0008F4
:102398003EFE000801284FF000020CBF024B034B21
:1023A800114602200CF058BE5DFE00086FFE0008C2
:1023B80008B504F080FB80B903F078FF01280CD140
:1023C800BFF34F8F0549064BCA6802F4E062134316
:1023D800CB60BFF34F8F00BFFDE708BD00ED00E005
:1023E8000400FA0570B50546C8B190F90540A4B9CE
:1023F8000B480DF061F90B4B2246214602200CF0E8
:102408002BFEAB79012B0CBF074B084B0022BDE814
:102418007040114602200CF01FBE054BF6E770BD58
:10242800CC03002083FE000898FE0008B5FE0008D3
:10243800D2FE00081FB50446002838D00378002BC8
:1024480035D001224FF400714FF0904000F02EFF7C
:102458001C480DF081F9002211461B4B02200CF09C
:10246800FBFD94F91830039394F90A300293237C06
:102478000193E368009300221146144B03200CF0EB
:10248800EBFD0022124B114603200CF0E5FD237AE8
:10249800012B0ED1617A0F4A0F4B002908BF134652
:1024A8000022009311460D4B03200CF0D5FD04B01B
:1024B80010BD00220A4B1146032004B0BDE81040AD
:1024C8000CF0CABD14040020F0FE000821FF00082B
:1024D80052FF0008EBFE0008ECFE00085FFF000852
:1024E80070FF000870B5054686B00C46002938D044
:1024F80001224FF480714FF0904000F0D7FE22483F
:102508000DF02AF926789EB1002D3BD06B682E7805
:1025180073B1022E27D0032E0AD16A78012A07D177
:102528001878012802D0022800D008B903F0D2FE9A
:10253800237C052B15D894F90A20059294F90920D3
:102548000492124A52F82330039394F90830CDE9E3
:1025580001630022E368009311460D4B03200CF041
:102568007BFD06B070BD6A78012AE1D11A7812F0B5
:10257800010216BF0022074B074B114603200CF03F
:102588006BFDD5E72E46D3E7E4030020BC00010825
:1025980091FF00087EFF000888FF000810B504F0CE
:1025A80093FA10F1080F07D1064B0022BDE810403E
:1025B800114602200CF050BD013001D1024BF4E766
:1025C80010BD00BFD8FF0008EEFF00082DE9F0415C
:1025D80086B00024012603230225CDE900632246A4
:1025E800214604274A4B0294022005940CF034FD3E
:1025F800CDE9005722462146464B029428460CF066
:102608002BFD2246CDE90154434B0096214628462E
:102618000CF022FD05A9204604F030FA059BDFF8EE
:10262800FC80C3F307220292C3F307421B0E0192F8
:10263800009322463A4B214628460CF00DFD05A989
:10264800304604F01BFA059BDAB20392C3F3072263
:102658000292C3F307421B0E0192009322462146C1
:10266800304B28460CF0F8FC22462F4B00944FF4D0
:10267800FA712E480CF0C2FF22462D4B00944FF4FD
:10268800FA712C480CF0BAFF32462B4B00944FF4E9
:10269800FA7140460CF0B2FF284B009422464FF4E2
:1026A800FA6127480CF0AAFF21463046254A0CF06B
:1026B800A5FE21462846244A244D0CF09FFE2146BB
:1026C8003846234A0CF09AFE224A214608200CF08C
:1026D80095FE00F04DF82049204804F09DF9204867
:1026E80004F07EF840460DF037F81E4B2146187866
:1026F80003F03AFE1C4900941C4B09682246284600
:102708000CF07CFF28460DF027F806B0BDE8F081F4
:10271800060001082700010848000108CC03002032
:10272800690001088A000108C92000081404002073
:1027380001200008E4030020152300089120000868
:10274800FC030020716200089D2100082C04002071
:10275800A52500080D210008000003010C00002039
:1027680058000020000000206C00002041200008D4
:10277800044B0022C3E902224FF490710122C3E9FD
:10278800002170474404002000487047440400209A
:102798004FF0B04382B0DA6C0243DA64DB6C184065
:1027A8000190019B02B070472DE9F04186B01422D8
:1027B800002101A80DF0A2F90220FFF7E9FF144D4E
:1027C800144F0420FFF7E4FF4FF480760123002420
:1027D800CDE9016301A903232846CDE903434FF45A
:1027E800005800F043FC01A93846CDF8048000F0F9
:1027F8003DFC22464146384600F058FD2846224610
:10280800314600F053FD204606B0BDE8F08100BF18
:102818000004004800080048032810B50ED8012815
:1028280010D868B902460B484FF4807100F03EFD9D
:10283800002209484FF4005100F038FD002010BD77
:102848000122F0E7002203484FF4807100F02EFDCA
:102858000122EEE700040048000800480220704703
:10286800002070470120704700280CBF0F20162059
:10287800704700000D48854600F025F80C480D49C2
:102888000D4A002302E0D458C4500433C4188C42C3
:10289800F9D30A4A0A4C002301E013600432A24229
:1028A800FBD30DF007F9FEF789FEFEE70080002054
:1028B8000000002028010020900A010828010020BB
:1028C80030140020FEE7704710B5032000F04AF8E6
:1028D80001F092FA064B18600F20FFF727F804461C
:1028E80018B9FEF716FF204610BD0124FBE700BF0C
:1028F800700000204FF0E022136923F002031361F7
:1029080070474FF0E022136943F0020313617047E8
:10291800014BD3F8900570470070FF1F014BD3F8A7
:10292800940570470070FF1F014BD3F89805704756
:102938000070FF1F024A536823F001035360704779
:10294800002004E0024A536823F0020353607047F2
:10295800002004E0024A536823F0040353607047E0
:10296800002004E00749CA6822F4E0620302120466
:1029780003F4E063120C134343F0BF6343F40033E2
:10298800CB60704700ED00E0164B30B5DC68C4F34F
:102998000224C4F10703251D042B28BF0423062D98
:1029A8004FF0FF3505FA03F38CBF033C002421EAFE
:1029B8000303A34005FA04F422EA0402002843EAC8
:1029C8000203ACBF00F16040074A4FEA0313B8BFE7
:1029D80000F00F00DBB2AABF00F56140135480F885
:1029E800003330BD00ED00E014ED00E0002808DB06
:1029F8000123420900F01F0003FA00F0014B43F8DD
:102A08002200704700E100E000280DDB43090122A5
:102A180000F01F0002FA00F02033044A42F82300B5
:102A2800BFF34F8FBFF36F8F704700BF00E100E027
:102A380070B5D0E913456560446D14B1D0E9164509
:102A48006560D0E9105404F01C060124B4406C60A1
:102A5800046863608368102B0BBFA260A160E1600B
:102A6800E26070BD0268416CD3B210B5083B142413
:102A7800B3FBF4F30B4CA24288BF0B4A21F00301CD
:102A880099BF01F1804202F502325218073382647D
:102A9800064AC26403F01F03012202FA03F3036526
:102AA80010BD00BF070402401C0802408008024015
:102AB80010B5002861D00268314B9A424FF01404D7
:102AC8004ED830491144B1FBF4F189004164A3F2B6
:102AD80007430364022380F82530136823F4FF4377
:102AE80023F070031360D0E90234234304691168AA
:102AF80023434469234384692343C4692343046A01
:102B080023430B431360FFF7ADFF8368816CB3F574
:102B1800804F04BF00234360426802F07F030B60CC
:102B2800D0E91314013A032A4C6021D8164A1749F0
:102B380081651A44013B9200012103F0030301FA65
:102B480003F300214265C3651160114A53640023F1
:102B58000122C36380F8243080F82520184610BD70
:102B68000C4B1344B3FBF4F39B0043640A4BB0E7EC
:102B78000023C0E91533C365E9E70120EFE700BF8B
:102B880007040240F8FFFDBF3F82001040090240E1
:102B980000090240F8FBFDBF0004024038B50028D8
:102BA80045D001680B6823F001030B60214B994263
:102BB8004FF0140433D8204A0A44B2FBF4F29200CE
:102BC8004264A3F207430364D0E91023012403F00D
:102BD8001C0304FA03F300250D605360FFF742FF5E
:102BE800836C41681D60D0E913325A604A1E032A7B
:102BF80006D8124B0B449B0094401D60104B5C643C
:102C08000023C363C0E91533C0E90B33C0E90D33B2
:102C1800C36580F8253080F82430184638BD094B44
:102C28000B44B3FBF4F39B004364074BCBE7012051
:102C3800F4E700BF07040240F8FFFDBF3F82001021
:102C480000090240F8FBFDBF0004024070B590F88F
:102C58002450012D04463CD090F825600125AE4251
:102C680080F824504FF000062DD1022580F8255019
:102C7800C6630668356825F001053560FFF7D8FE9C
:102C8800026B0368BAB11A6842F00E021A60A26CAD
:102C98001168C90342BF116841F480711160626D07
:102CA8001AB1116841F4807111601A6842F001028A
:102CB8001A60002070BD1A6822F004021A601A68AF
:102CC80042F00A02E2E78023C36380F824602846C2
:102CD800F0E70220EEE740B190F82530022B06D04D
:102CE8000423C363002380F824300120704703685D
:102CF800816C1A6822F00E021A600A6822F4807247
:102D08000A601A6822F001021A60D0E9101303F071
:102D18001C02012393404B60D0E913325A60436D83
:102D280033B11A6822F480721A60D0E916325A60F8
:102D3800012380F82530002380F824301846704796
:102D480010B590F82530022B03D00423C36301206B
:102D580010BD03681A6822F00E021A601A6822F081
:102D680001021A60826C136823F480731360D0E93F
:102D7800101303F01C02012393404B60D0E9133277
:102D88005A60436D33B11A6822F480721A60D0E930
:102D980016325A60012380F82530836B002480F8AE
:102DA800244013B198472046D2E71846D0E70000E0
:102DB80070B4426C046C036826681D6802F01C023B
:102DC8000421914031420FD015F0040F0CD01A683D
:102DD80092065EBF1A6822F004021A60036B6160F3
:102DE800002B33D070BC184702219140314217D0D4
:102DF80015F0020F14D01A68940606D41A6822F047
:102E08000A021A60012280F82520114A93428CBFD9
:102E1800104B114B5960002380F82430C36ADFE758
:102E280008219140314211D029070FD5196821F0A6
:102E38000E011960012303FA02F26260C36380F88D
:102E48002530002380F82430436BC9E770BC7047F5
:102E580080000240000402400000024060B10268A5
:102E6800C806136805D5C9024CBF43F4801323F480
:102E78008013136000207047012070470A4A536985
:102E880043F4802330B55361EFF3108472B6002306
:102E9800CD58C5500433B3F5807FF9D11369DB03EE
:102EA800FCD484F3108830BD00400058064B5A69A2
:102EB800002ABFBF054A9A6002F188329A60BABFF9
:102EC8005869C00F0020704700400058230167452B
:102ED800044B5A6942F000425A615869C043C00F16
:102EE800704700BF0040005870B50546FEF720FD4A
:102EF800124E04463369D90313D43369DA0744BF41
:102F0800012232614CF2FA32134011D10B4E306972
:102F180010F480200BD0FEF70BFD001BA842F6D35F
:102F280004E0FEF705FD001BA842E3D3032070BDB3
:102F3800024A1361024A01205360F8E70040005832
:102F4800540400202DE9F041184D98462B78012BA8
:102F580006460C46174626D001232B704FF47A708C
:102F680000236B60FFF7C0FFA0B9012E16D1104AED
:102F7800536943F0010353612760BFF36F8FC4F8AF
:102F880004804FF47A70FFF7AFFF094A536923EAC8
:102F98000606566100232B70BDE8F08139462046AD
:102FA800FFF76CFFEDE70220F6E700BF54040020AE
:102FB80000400058054A536923F47E7343EAC00071
:102FC80040F4803040F002005061704700400058E3
:102FD8002DE9F041234F3B78012B054688463FD029
:102FE80001233B704FF47A7000237B60FFF77CFF6E
:102FF800044688B92B68042B13D11B4A536943F440
:10300800803343F0040353614FF47A70FFF76CFF89
:103018000446154B1A681B6800233B702046BDE820
:10302800F0814FF0FF33C8F800306E68D5E90132FF
:103038001344B3420AD93046FFF7BCFF4FF47A7005
:10304800FFF752FF50B1C8F800600446064A5369BA
:1030580023F47E7323F002035361DAE70136E5E7D0
:103068000224DBE754040020004000582DE9F04F0B
:10307800524C00234FF00F090A6832FA03F501D1C8
:10308800BDE8F08F012505FA03F818EA020200F0FE
:103098008E804E68032706F003054FEA430E07FAB1
:1030A8000EFC6F1E012F6FEA0C0C32D8876807EAF6
:1030B8000C0ACF6807FA0EF747EA0A0787604768DD
:1030C80027EA0808C6F300179F4047EA0807476041
:1030D800C76807EA0C088F6807FA0EF747EA080777
:1030E800022DC76017D14FEAD30800EB880803F018
:1030F800070AD8F820704FEA8A0A09FA0AFB27EA71
:103108000B0B0F6907FA0AF747EA0B07C8F8207094
:1031180001E0032DDCD1076805FA0EF507EA0C0774
:103128002F4316F4403F076041D023F0030707F10F
:10313800804707F5803703F0030CBD684FEA8C0C15
:103148004FF0070E0EFA0CFEB0F1904F25EA0E0E66
:103158002FD01B4DA8422ED005F58065A8420CBF84
:103168000225072505FA0CF545EA0E05BD60256818
:10317800D74316F4801F0CBF3D4015432560656892
:1031880016F4001F0CBF3D4015436560D4F880500D
:1031980016F4803F0CBF3D401543C4F88050D4F866
:1031A8008450B60354BF3D401543C4F884500133DE
:1031B80062E70025D6E70125D4E700BF00080058DC
:1031C80000040048374A2DE9F04F00234FF0010A68
:1031D8004FF0070B4FF00F0931FA03F401D1BDE8A6
:1031E800F08F0AFA03FC1CEA010654D023F003040A
:1031F80004F1804404F5803403F00307A568BF0098
:103208000BFA07F8B0F1904F08EA050E45D0264DA5
:10321800A84244D005F58065A8420CBF02250725C1
:10322800BD40754517D1D2F8805025EA0605C2F889
:103238008050D2F8845025EA0605C2F884501568F3
:1032480025EA06051560556825EA06055560A5684E
:1032580025EA0805A560056803265C0006FA04F45B
:1032680023FA06F6254300EB8606056003F00705FA
:10327800376AAD0009FA05F527EA0505356285685C
:1032880025EA04058560456825EA0C054560C5689A
:1032980025EA0404C46001339EE70025C0E7012540
:1032A800BEE700BF00080058000400480AB1816169
:1032B800704781627047436901EA030221EA03010A
:1032C80041EA02418161704703689A69910744BFE6
:1032D80000229A629A69D2075EBF9A6942F0010297
:1032E8009A61704730B5039D04682B4343EA024353
:1032F800064A6068C1F309010B4342EA555223F0BC
:10330800004320EA02000343636030BDFF63FF030C
:103318002DE9F84303689C6914F0100405468846B3
:10332800174679D01022DA6100264FF020092B6861
:103338009A69940636D40EB1042439E0B8F1FF3FF7
:10334800F6D0FEF7F5FAC01B404502D8B8F1000FD9
:10335800EDD12B68596895F8422098690004D2B2DB
:103368000AD5490408D4202A06D05A6842F4804273
:103378005A60FEF7DDFA07462B689C6914F02004B2
:10338800D5D1FEF7D5FAC01B1928F5D96B6C85F88D
:10339800404043F020036B64012685F8419085F88E
:1033A8004240E9E7002EC7D12022DA610424012631
:1033B8002B689A69D00541BF4FF48071D96144F0F8
:1033C80001040126510541BF4FF4806144F008040F
:1033D800D9610126920521D54FF4007244F0020408
:1033E800DA612846FFF770FF2A68536823F0FF73F5
:1033F80023F48B3323F4FF7323F0010353606B6CC6
:103408001C4320236C6485F84130002385F8423042
:1034180085F84030012603E02646C9E7002EE0D1B2
:103428003046BDE8F88370B504460D461646236855
:103438009B699B0701D5002070BD3246294620466E
:10344800FFF766FFA0B96A1CF1D0FEF771FA801B7E
:10345800A84201D8002DEAD1636C43F020036364CD
:10346800202384F84130002384F8423084F8403027
:103478000120E1E770B504460D46164623689B69AE
:103488005B070ED4324629462046FFF741FF38BB7A
:1034980023689A69910625D59A69520703D5228D22
:1034A8000AB1002070BD9A6912F010021CBF1022E8
:1034B800DA614FF0200118BF04226264D9615A68AA
:1034C80022F0FF7222F48B3222F4FF7222F0010202
:1034D8005A60002384F8411084F8423084F8403060
:1034E8000120DFE7FEF724FA801BA84201D8002D4F
:1034F800C4D1636C43F020036364202384F8413013
:103508000023EBE72DE9F041069F0446884616465E
:103518001D462268936938EA03030CBF0123002380
:10352800B34201D0002015E06B1CF3D0FEF700FA7F
:10353800C01BA84201D8002DEBD1636C43F02003D7
:103548006364202384F84130002384F8423084F8EF
:1035580040300120BDE8F0812DE9F341DDE908782C
:103568001E46174B0093054614464FF08073F2B27F
:10357800FFF7B8FE424639462846FFF754FF18B110
:10358800012002B0BDE8F081012E2B680DD1E4B214
:103598009C620022CDF800803B4680212846FFF738
:1035A800B1FF003818BF0120EBE7220A9A623946BA
:1035B80042462846FFF737FF0028E1D12B68E6E7A7
:1035C8000020008070B504460D46164623689B69A6
:1035D8009B0601D5002070BD324629462046FFF7DC
:1035E80097FE90B9FEF7A4F9801BA84201D8002DD8
:1035F800ECD1636C43F020036364202384F84130EA
:10360800002384F8423084F840300120E3E710B505
:10361800044600284AD090F8413003F0FF021BB955
:1036280080F84020FDF738FF242384F841302368D0
:103638001A6822F001021A60626822F070621A6148
:103648009A6822F400429A60D4E90221012924D11F
:1036580042F400429A605A6842F0007242F4004212
:103668005A60DA6822F40042DA60D4E904210A4395
:10367800A16942EA0122DA60D4E907210A431A6003
:103688001A6842F001021A6000202023606484F85E
:103698004130206384F8420010BD42F404420229FC
:1036A8009A6004BF4FF400625A60D4E70120F3E740
:1036B8002DE9F347984690F841300A9F202B04469D
:1036C8000E46914640F0868090F84030012B00F07D
:1036D80081804FF0010A80F840A0FEF729F91923EC
:1036E8000546009052464FF400412046FFF70AFF76
:1036F80018B1012002B0BDE8F087212384F84130D9
:10370800102384F842306064A4F82A80638DC4F8DA
:1037180024909BB2FF2B60632F4B26D9FF22228572
:1037280000934FF0807331462046FFF7DBFD638D31
:103738009BB22A4639462046FBB9FFF743FF0028CB
:10374800D7D123682021D9615A6822F0FF7222F468
:103758008B3222F4FF7222F001025A6084F8411081
:1037680084F8400084F84200C4E7628D009392B266
:1037780022854FF00073D2B2D5E7FFF754FE002838
:10378800B7D1636A226813F8011B91626362638D83
:10379800228D013B9BB26385638D013A92B29BB245
:1037A8002285002BC3D0002AC1D100953B46802139
:1037B8002046FFF7A7FE00289BD1638D9BB2FF2B05
:1037C80003D9FF2222850090ABE7628D009092B268
:1037D8002285CEE702208DE7002000802DE9F347FF
:1037E800984690F841300A9F202B04460E46914691
:1037F80040F0878090F84030012B00F082804FF035
:10380800010A80F840A0FEF793F8192305460090B6
:1038180052464FF400412046FFF774FE18B10120CC
:1038280002B0BDE8F087222384F84130102384F8E1
:1038380042306064A4F82A80638DC4F824909BB257
:10384800FF2B6063304B26D9FF22228500934FF06F
:10385800807331462046FFF745FD638D9BB22A46AB
:1038680039462046FBB9FFF7ADFE0028D7D12368BB
:103878002021D9615A6822F0FF7222F48B3222F497
:10388800FF7222F001025A6084F8411084F8400067
:1038980084F84200C4E7628D009392B222854FF00B
:1038A8000073D2B2D5E7FFF7E5FD0028B7D123684A
:1038B8005A6A636A1A70636A228D01336362638D80
:1038C800013B9BB26385638D013A92B29BB222851C
:1038D800002BC2D0002AC0D100953B46802120464B
:1038E800FFF710FE00289AD1638D9BB2FF2B03D9F6
:1038F800FF2222850090AAE7628D009092B222856D
:10390800CDE702208CE700BF002400802DE9F04FAE
:1039180085B09B46BDF83C30039390F84130DDF804
:103928004090202B04460F46924640F0A3800E9B01
:103938000BB1039B33B94FF400736364012005B0E6
:10394800BDE8F08F90F84030012B00F093800125FE
:1039580080F84050FDF7ECFF1923009006462A46F0
:103968004FF400412046FFF7CDFD80460028E5D101
:10397800212384F84130402384F842300E9B63624F
:10398800039B606460636385CDE900965B4652469D
:1039980039462046FFF7E0FD10B184F84080CDE7B6
:1039A800638D9BB2FF2B55D9FF22228500904FF0E3
:1039B800807339462046FFF795FC32464946204633
:1039C800FFF731FD0028B9D1636A226813F8011B9B
:1039D80091626362638D228D013B9BB26385638D27
:1039E800013A92B29BB22285ABB1A2B900964B467E
:1039F80080212046FFF786FD00289FD1638D9BB26A
:103A0800FF2B2FD9FF22228500904FF08073394673
:103A18002046FFF767FC638D9BB2002BCDD1324661
:103A280049462046FFF7CEFD002887D1236820218C
:103A3800D9615A6822F0FF7222F48B3222F4FF72A5
:103A480022F001025A6084F8411084F8400084F89A
:103A5800420074E7628D009092B222854FF00073A5
:103A6800D2B2A6E7628D009092B222854FF0007321
:103A7800D2B2CCE7022062E70268436B9169126810
:103A880003B11847704710B590F84130202BDCB2CD
:103A98001DD190F84030012B19D0242380F84130F3
:103AA80003681A6822F001021A601A6822F4805228
:103AB8001A601A68114319601A6842F001021A6004
:103AC800002380F8414080F84030184610BD02209D
:103AD800FCE710B590F84130202BDCB21CD190F8EF
:103AE8004030012B18D0242380F8413003681A682D
:103AF80022F001021A601A6822F4706242EA012177
:103B080019601A6842F001021A60002380F84140E7
:103B180080F84030184610BD0220FCE7024A1368BE
:103B280043F4807313607047000400580D4B10B5C0
:103B38005B690C4628B99A0507D500F027F820B12B
:103B480010BD9B0501D400F019F8074A1369012C30
:103B580023F00403136101D130BFF1E740BF20BF58
:103B680020BFEDE70004005800ED00E0024B1868A4
:103B780000F4C060704700BF00040058024A136890
:103B880043F4804313607047000400580C4A1368DC
:103B980023F4804313600B4B1B6832214B430A49C3
:103BA800B3FBF1F35169890500D533B9536913F4AF
:103BB800007F14BF032000207047013BF2E700BFDD
:103BC800000400587000002040420F000B4A1368A0
:103BD80023F0070343F002031360094B1A69012815
:103BE80042F004021A6105D130BF1A6922F00402BA
:103BF8001A61704740BF20BF20BFF6E70004005895
:103C080000ED00E04FF0B0431868C0F34040704743
:103C18004FF0B0431868C0F3802070474FF0B043AE
:103C28001868C0F3400070474FF0B042536823F45F
:103C38007F4343EA0023536070474FF0B04318684E
:103C4800C0F34060704700007FB54FF0B0432C4A86
:103C5800D3F80831C0F3031003F00F0352F82040E3
:103C6800284A52F82330B4FBF3F4FFF77FFF264BC2
:103C7800054693E80700B5F5007F04AB03E90700A4
:103C880010D0224B9C4218D303F5B70303F67F5399
:103C98009C4229D903F5741303F510639C4225D877
:103CA80002230BE01A4B9C4207D91A4B9C421BD9A2
:103CB80003F5370303F5D853F0E7002304AA02EB12
:103CC800830353F80C4C144D2B6823F0070323434C
:103CD8002B60FDF72DFE06462B6803F007039C4278
:103CE80006D1002004B070BD0123E7E70024EAE70D
:103CF800FDF71EFE801B0228EED90320F2E700BF65
:103D080034010108D400010830FC0008C0CF6A0063
:103D1800BFEA21013F933402004000584FF0B043FE
:103D280010B59A68D96812F00C0205D00C2A4AD14D
:103D380001F00303012B50D14FF0B0412B480B6821
:103D480013F0080306D00B6813F0080337D1D1F835
:103D5800941007E00C68240756BFD1F8943009681E
:103D6800C3F3032350F82330002A0CBF1846002061
:103D78004FF0B0418A6802F00C020C2A1ED1CA68C2
:103D880002F00302022A2ED0032A06D10B68184A31
:103D980013F4801F174B18BF13464FF0B042D0687A
:103DA800D168D268C0F306205843C1F30213013327
:103DB800B0FBF3F0530F0133B0FBF3F010BD0B6809
:103DC800C3F30313CEE7042A0AD0082A05D11B68D7
:103DD80013F4801304D10748CAE700231846C7E73D
:103DE80003480023C4E7024BD7E700BF34010108AA
:103DF8000024F4000048E80108B5FFF78FFF4FF0F2
:103E0800B043044A9B68C3F3031352F82330B0FB52
:103E1800F3F008BDD40001082DE9F041044600285C
:103E280055D04FF0B0439D68DE680368990605F0E9
:103E38000C0506F003066BD51DB10C2D49D1012EDA
:103E480047D1FFF7EBFE10B1236A002B3FD04FF0AC
:103E5800B043A06A1A68120756BFD3F894301B689B
:103E68001B0903F0F00398421ED9FFF7EDFE002866
:103E78002DD14FF0B042136843F008031360136864
:103E8800A16A23F0F0030B431360606AFFF7CCFECE
:103E9800FFF7B2FFAC4B1860AC4B1868FDF746FD56
:103EA800002835D0BDE8F0814FF0B042136843F0E8
:103EB80008031360136823F0F00303431360606A78
:103EC800FFF7B2FEA06AFFF7BFFE0028E0D001208E
:103ED800E8E7226A4FF0B043002A54D01A6842F04B
:103EE80001021A60FDF724FD0746FFF797FE002838
:103EF80042D04FF0B042136843F0080313601368D0
:103F0800A16A23F0F0030B431360606AFFF78CFE8D
:103F18002368DB0748D423689F0700F19080236853
:103F28001E0740F1FC80A3694FF0B046002B00F05B
:103F3800E380D6F89430E16903F01002914200F072
:103F4800C68003F00302022AC1D0D80740F1B58029
:103F5800D6F8943023F00103C6F89430FDF7E8FC56
:103F68000746D6F89430990740F1A780FDF7E0FCA2
:103F7800C31B112BF5D904E0FDF7DAFCC01B02289E
:103F8800B3D903208EE71A6822F001021A60FDF700
:103F9800CFFC0746FFF742FE0028B9D0FDF7C8FC62
:103FA800C01B0228F6D9ECE7082D03D00C2D09D147
:103FB800032E07D1FFF726FE0028ACD06368002B3C
:103FC800A9D184E74FF0B043A1681A6822F480129F
:103FD8000A431A606268B2F5803F10D11A6842F449
:103FE80080321A60FDF7A4FC0746FFF70BFE002895
:103FF80091D1FDF79DFCC01B6428F6D9C1E7B2F545
:10400800041F04D11A6842F400121A60E6E719681E
:1040180021F480311960196821F400111960002A0F
:10402800E0D1FDF785FC0746FFF7ECFD00283FF4DB
:1040380072AFFDF77DFCC01B6428F5D9A1E7042DFC
:1040480003D00C2D12D1022E10D1FFF7E1FD18B1CB
:104058002369002B3FF43BAF4FF0B04261695368CE
:1040680023F0FE4343EA0163536058E722694FF0A7
:10407800B04382B11A6842F480721A60FDF758FCA6
:104088000646FFF7C5FD0028E6D1FDF751FC801B69
:104098000228F6D975E71A6822F480721A60FDF7CB
:1040A80047FC0646FFF7B4FD00283FF438AFFDF79C
:1040B8003FFC801B0228F5D963E74FF0B042E16965
:1040C800D2F8943023F010030B43C2F894304FF029
:1040D800B047D7F8943043F00103C7F89430FDF7A0
:1040E80027FC0646D7F894309A0718D4FDF720FC29
:1040F800831B112BF6D944E7D6F8943023F001033B
:10410800C6F89430FDF714FC0746D6F894309B07A0
:1041180005D5FDF70DFCC31B112BF6D931E7236834
:10412800580753D50A4F3B68D90513D4FFF7F6FC57
:10413800FDF7FEFB06463B68DA050BD4FDF7F8FBF6
:10414800831B022BF7D91CE77000002074000020A5
:1041580000040058E3684FF0B046002B58D023F015
:104168008003052B02BFD6F8903043F00403C6F84D
:1041780090304FF0B046FDF7DBFBD6F8903043F0B7
:1041880001030746C6F8903041F28838D6F89030D7
:104198009B0705D4FDF7CCFBC31B4345F6D9F0E6D6
:1041A800E36823F00403812B1BD1FDF7C1FBD6F88C
:1041B800903043F08003C6F8903007464FF0B04681
:1041C80041F28838D6F89030180504D5E06A0028FE
:1041D8004AD1002066E6FDF7ABFBC01B4045F1D98C
:1041E800CFE6FDF7A5FBD6F8903023F08003C6F89C
:1041F800903007464FF0B04641F28838D6F89030F4
:104208001905E3D5FDF794FBC01B4045F6D9B8E680
:10421800FDF78EFBD6F8903023F080030746C6F8EA
:10422800903041F28838D6F890301A0516D4FDF748
:104238007FFBD6F8903023F00103C6F8903007468C
:104248004FF0B04841F28836D8F890309B07BDD57A
:10425800FDF76EFBC31BB342F6D992E6FDF768FB88
:10426800C01B4045DFD98CE60C2D53D04FF0B0432E
:1042780002281A6822F080721A6033D1FDF758FBC1
:104288000546FFF7DAFC38BBD4E90C314FF0B042F1
:104298000B43D0682F4901400B43E16B0B43216C62
:1042A8000B43616C0B43A16B43EA0123D360136892
:1042B80043F080731360D36843F08053D360FDF7F5
:1042C80037FB0446FFF7B9FC002882D1FDF730FB25
:1042D800001B0A28F6D954E6FDF72AFB401B0A28DA
:1042E800CFD94EE6DA6822F00302DA60DA6822F003
:1042F800885222F48032DA60FDF71AFB0446FFF791
:104308009CFC00283FF465AFFDF712FB001B0A2850
:10431800F5D936E601283FF4C5AD4FF0B043226B1E
:10432800DB6803F0030191427FF4D1AD616B03F0C8
:1043380070028A427FF4CBADA16B03F4FE42B2EB6C
:10434800012F7FF4C4AD626C03F0604393423FF4E5
:1043580040AFBCE58C80C1112DE9F0410D46044603
:1043680010B90120BDE8F081744E336803F00703EB
:104378008B4216D323689A0727D54FF0B047A26817
:10438800BB6823F0F0031343BB60FDF7D1FA064680
:10439800BB68DB0319D4FDF7CBFA831B022BF7D9D3
:1043A80011E0336823F007030B433360FDF7C0FACD
:1043B8000746336803F00703AB42DBD0FDF7B8FAD2
:1043C800C01B0228F5D90320CCE72368980616D528
:1043D8004FF0B0476269D7F8083123F0F003134370
:1043E800C7F80831FDF7A4FA0646D7F8083199034B
:1043F80005D4FDF79DFA831B022BF6D9E3E7236862
:104408005A0617D54FF0B047A269D7F8083123F0FC
:104418000F0343EA1213C7F80831FDF789FA064675
:10442800D7F80831DB0305D4FDF782FA831B022B8A
:10443800F6D9C8E723685E0713D54FF0B047E2689E
:10444800BB6823F4E0631343BB60FDF771FA0646CB
:10445800BB68980305D4FDF76BFA831B022BF7D9C9
:10446800B1E72368190714D54FF0B0472269BB6834
:1044780023F4605343EAC203BB60FDF759FA0646CA
:10448800BB685A0305D4FDF753FA831B022BF7D9EF
:1044980099E72368DB070FD4284C236803F0070348
:1044A800AB4237D8FFF7A8FC254B1860254BBDE871
:1044B800F0411868FDF73ABA6368022B1ED1FFF77E
:1044C800A1FB00283FF44DAF4FF0B0466268B368D7
:1044D80023F003031343B360FDF72AFA41F2883847
:1044E8000746B368626803F00C03B3EB820FD3D0BE
:1044F800FDF71EFAC01B4045F3D964E7032B02D130
:10450800FFF79BFBDDE713B9FFF788FBD9E7FFF758
:104518007FFBD6E7236823F007032B432360FDF7CF
:1045280007FA0646236803F00703AB42BAD0FDF743
:10453800FFF9801B0228F5D945E700BF0040005865
:10454800700000207400002008B5FFF755FC4FF0FC
:10455800B043044A9B68C3F3022352F82330D8407F
:1045680008BD00BF1401010808B5FFF745FC4FF06E
:10457800B043044A9B68C3F3C22352F82330D8409F
:1045880008BD00BF140101084FF0B043D3F89000F4
:10459800C0F3400070474FF0B0410209D1F88830AD
:1045A80002F47F22000123EA020300F47F2018436B
:1045B800C1F8880070474FF0B041020CD1F888303C
:1045C800120423EA020343EA0040C1F88800704756
:1045D80070B5056815F48035044638D0FFF79EFAA3
:1045E800FDF7A6F9644E05463368DB0529D54FF07B
:1045F800B043616BD3F8902002F44072914214D01A
:10460800D3F89010D3F8902042F48032C3F8902069
:10461800D3F8902021F4407022F480328D07C3F83B
:104628009020C3F8900000F196804FF0B042616B83
:10463800D2F8903023F440730B43C2F89030002531
:1046480005E0FDF775F9401B0228CDD9032522683E
:10465800D0070AD54FF0B0406168D0F8883023EA17
:10466800114389B20B43C0F8883091070AD54FF03F
:10467800B040A168D0F8883023EA114389B20B43CF
:10468800C0F88830930609D54FF0B0412069D1F8B9
:10469800883023F440630343C1F88830960502D577
:1046A800206AFFF788FF2368580502D5606AFFF77C
:1046B80082FF2368190502D5A06AFFF77CFF2368EB
:1046C8005A0602D56069FFF766FF23681B0602D504
:1046D800A069FFF760FF2368DE0502D5E069FFF7F0
:1046E8005AFF2168C80610D54FF0B042E068D2F8EA
:1046F800883023F440730343C2F88830B0F5807FD4
:1047080002BFD36843F08073D3600A040ED54FF01C
:10471800B042206BD2F8883023F040430343C2F8FC
:10472800883018B9D36843F08073D3604B0410D530
:104738004FF0B042E16AD2F8883023F040530B437F
:10474800B1F1005FC2F8883003D1D36843F48033F5
:10475800D360284670BDFDF7EBF841F28836054670
:10476800FFF712FF01283FF460AFFDF7E1F8401BA7
:10477800B042F5D96AE700BF0004005830B590F898
:104788002C30012B4FF0020222D0194B80F82D203B
:10479800CA24012580F82C505C6253245C62B1F570
:1047A800807F046B16D19A6922F488529A615A6CF8
:1047B80024F0010422F000425A640463DD650C4BC6
:1047C800FF225A620123002280F82D3080F82C2025
:1047D800104630BD996921F408519961D96C24F0CB
:1047E800020421F00041D9640463DA65E7E700BFF9
:1047F8000028004070B50B4E036B756D1D40EA072D
:10480800044603D50123F365FDF7DFF9AB0704D5AB
:104818000223F365204600F0C9F9012384F82D30FE
:1048280070BD00BF0028004038B50A4CE36823F08B
:104838002003E360FDF77CF80546E3689B0601D595
:10484800002038BDFDF774F8401BB0F57A7FF4D925
:104858000320F6E7002800402DE9F041114DEC68EF
:1048680014F0400407461AD1EB6843F08003EB606C
:10487800FDF75EF84FF003080646EB685B0601D4C7
:10488800032C02D12046BDE8F081FDF751F8801BCA
:10489800B0F57A7F84BF87F82D800324EDE70024E4
:1048A800F0E700BF00280040104BDA6822F08002D1
:1048B80010B5DA609A699206044606D4FFF7B4FF89
:1048C80010B1032084F82D0010BD9A6922F020024F
:1048D8009A61FFF7A9FF10B1032084F82D00034A5D
:1048E800936943F020039361EEE700BF002800407E
:1048F80038B50446002847D090F82D3003F0FF0261
:104908001BB980F82C20FCF7A3FE204D022384F865
:104918002D30CA236B6253236B622046FFF79CFF3E
:1049280070BBAB6923F08E6323F04003AB61216950
:104938006368AA690B431343A2691343AB61D4E9C3
:10494800022343EA02432B61D4E90931EA680B43A5
:1049580022F4F8521343EB602046FFF7A5FF78B91D
:10496800D4E90713AA690B4322F060421343626932
:104978001343AB61FF236B62012384F82D3038BDEC
:10498800024BFF225A62FAE70120F8E700280040AC
:104998000023092803D840EA0310C0B270470A3838
:1049A8000133C0B2F5E700002DE9F04790F82C304C
:1049B800012B05464FF0020069D0012385F82C3001
:1049C8004E4B85F82D00DE6806F44076B6F5807FFC
:1049D80078D04C69087891F8018091F802A091F894
:1049E8002470002A55D19A6912F0400208BFCA7093
:1049F800FFF7CEFF81464046FFF7CAFF8046504684
:104A0800FFF7C6FF82463846FFF7C2FF0A6ACB782F
:104A1800224342EA835242EA0A0343EA094343EA49
:104A2800082343EA0063354ACA2050625320506283
:104A38008C6A8869B4F5807F946945D124F48854D8
:104A480094610124D465B6F5807F09BFCB691364EE
:104A58000343536418BF5064284B4A681A672A6B8B
:104A680042F001022A639A6942F488529A61244A00
:104A7800D2F8803043F40033C2F880301F4BFF2255
:104A88005A620020012385F82D3085F82C00BDE8F6
:104A9800F087B4F1803F07D0B4F5000F04D09A69CD
:104AA80012F0400208BFCA700A6A144344EA0A04B2
:104AB80044EA0043C87843EA082343EA805343EAB8
:104AC8000763B0E70023AEE724F408549461022496
:104AD800D465B6F5807F09BFCB6993640343D3647B
:104AE80018BFD064054B4A685A672A6B42F0020225
:104AF8002A639A6942F40852B8E700BF00280040C8
:104B08000008005890F82C20012A03464FF00200B4
:104B180012D00A4A83F82D00CA21516253215162EA
:104B2800916941F020019161FF2151620020012229
:104B380083F82D2083F82C00704700BF0028004020
:104B480090F82C20012A03464FF0020019D00D4A94
:104B580083F82D00CA2151625321516291690A4894
:104B680041F080019161D0F8801041F48021C0F8B3
:104B78008010FF2151620020012283F82D2083F844
:104B88002C0070470028004000080058064B5A6D5A
:104B9800520610B5044603D54022DA65FDF718F829
:104BA800012384F82D3010BD00280040704789008B
:104BB80001F1804101F531410A607047890001F136
:104BC800804101F53141086870470000034AD2F876
:104BD800903043F40043C2F8903070470004005806
:104BE800034AD2F8903023F40043C2F8903070475B
:104BF80000040058074B1A6822F040021A6040F47B
:104C080041704FF4B85218605A601A6842F0400276
:104C18001A6070470000015813B50446002842D0B6
:104C2800837903F0FF0213B94271FCF7AFFD022349
:104C38004FF0B042A371D2F8943023F40043C2F885
:104C480094301A4B1B681C214B43DB0C64214B43EB
:104C58000193019BF3B90121A160FFF7B7FF144A43
:104C6800D2F8903043F48053C2F89030114B9A68D0
:104C780042F400629A604FF400629A6129B9206890
:104C8800FFF7B8FF01232371A1600123A371084630
:104C980002B010BD019B013B0193D2F8941011F4AE
:104CA8008041D6D1D9E70121F1E700BF700000208B
:104CB800000800580004005837B5174D2B68024605
:104CC8001C204343DB0C6420434314480193019B9D
:104CD80093B901209060114C21732B681C214B4320
:104CE800DB0C64214B430193019B6BB9012090605D
:104CF8000A4BDB6803B030BD019B013B019383681D
:104D08009C07E4D50020E6E7019B013B0193A368DB
:104D1800DB07E9D5ECE700BF700000200000015870
:104D280037B5184D2B6802461C204343DB0C642022
:104D3800434315480193019BA3B901209060124C8D
:104D4800FF2323732B681C256B43DB0C64256B4303
:104D58000193019B73B9012090600B4BDB680B70CA
:104D680003B030BD019B013B019383689C07E2D5EA
:104D78000020E4E7019B013B0193A368DB07E8D52A
:104D8800EBE700BF70000020000001580F4B13B57F
:104D98001B680F4C182253431B0D642253430146D2
:104DA80001936269019B02F0040223B902238B601C
:104DB800012002B010BD019B013B0193606910F016
:104DC8000200F6D0002AECD11046F2E7700000206D
:104DD8000004005807B50379012B0FD10A4B1B6853
:104DE800182253431B0C0193FFF7FAFE019B013B6A
:104DF8000193019B002BF9D1FFF7E8FE03B05DF8A2
:104E080004EBFFF7C3BF00BF70000020F8B51E46D3
:104E18008379012B154604460F46DAB22DD1437922
:104E2800012B2AD0022342718371FFF7D3FF0D2192
:104E38002046FFF7D5FEFFF73FFF390A2046FFF768
:104E48003BFFF9B22046FFF737FF2E44B5420ED19B
:104E58002046FFF7BBFEFFF799FFA0680123003843
:104E6800A3714FF0000318BF01206371F8BD15F856
:104E7800011B2046FFF720FFE8E70220F6E7F8B518
:104E88001E468379012B154604460F46DAB22FD108
:104E98004379012B2CD04271FFF79CFF1D2120463E
:104EA800FFF79EFEFFF708FF390A2046FFF704FFC9
:104EB800F9B22046FFF700FF00212046FFF7FCFE6D
:104EC8002E44B5420ED12046FFF780FEFFF75EFF65
:104ED800A06801230038A3714FF0000318BF012018
:104EE8006371F8BD29462046FFF71AFF0135E8E748
:104EF8000220F6E7F8B51F468379012B15460446CC
:104F08000E46DAB22CD14379012B29D04271FFF732
:104F180061FF06F0EF03A3F184025342534123716A
:104F280031462046FFF75CFEFFF7C6FE2F44AF422E
:104F380010D1FFF74BFE842E02D02046FFF726FF44
:104F4800A06801230038A3714FF0000318BF0120A7
:104F58006371F8BD15F8011B2046FFF7ADFEE6E7C3
:104F68000220F6E7F8B51E468379012B154604465C
:104F78000F46DAB227D14379012B24D04271FFF7CB
:104F880029FF39462046FFF72BFEFFF795FE002143
:104F98002046FFF791FE2E44B5420ED12046FFF77A
:104FA80015FEFFF7F3FEA06801230038A3714FF048
:104FB800000318BF01206371F8BD29462046FFF79A
:104FC800AFFE0135E8E70220F6E737B50023ADF874
:104FD800043001AA022312210446FFF7C3FFBDF8DB
:104FE80004305BBADA079DB202D5204609F0D6FE36
:104FF800AB0702D5204609F0D7FE680702D5204640
:1050080009F0FCFE290702D5204609F0FDFEEA0654
:1050180002D5204609F0FEFEAB0602D5204609F06F
:10502800E7FE680602D5204609F0C4FE290607D522
:10503800EA05C5F30021204648BF012109F0C0FE5A
:10504800AB0502D5204609F0CBFE022301AA19467A
:105058002046FFF74FFF03B030BDF8B51E468379F1
:10506800012B154604460F46DAB227D14379012BA6
:1050780024D04271FFF7AEFE0E212046FFF7B0FDA7
:10508800FFF71AFE39462046FFF716FE2E44B542B2
:105098000ED12046FFF79AFDFFF778FEA06801239E
:1050A8000038A3714FF0000318BF01206371F8BDE9
:1050B80015F8011B2046FFF7FFFDE8E70220F6E799
:1050C800F8B51E468379012B154604460F46DAB219
:1050D8002BD14379012B28D04271FFF77BFE1E218B
:1050E8002046FFF77DFDFFF7E7FD39462046FFF72D
:1050F800E3FD00212046FFF7DFFD2E44B5420ED127
:105108002046FFF763FDFFF741FEA0680123003842
:10511800A3714FF0000318BF01206371F8BD294641
:105128002046FFF7FDFD0135E8E70220F6E70268B3
:1051380052E8003F23F0C00342E80031026800292A
:10514800F5D102F1080353E8003F23F4000302F10C
:10515800080C4CE800310029F3D12023C0F8843032
:105168007047000010B5026852E8003F23F49073BE
:1051780042E8003102680029F5D10F4C02F108031A
:1051880053E8003F234002F1080C4CE800310029A5
:10519800F4D1C36E012B07D152E8003F23F010036E
:1051A80042E800310029F7D12023C0F888300023D5
:1051B800C366036710BD00BFFEFFFFEFF8B50446E6
:1051C8001346D4F88470202F43D161B35AB394F8AE
:1051D8008020012A3DD0A06FA4F856300125002672
:1051E8002122C4F88C6084F880502165A4F85430DA
:1051F800C4F88420C8B1DFF860C02268C0F82CC0A9
:10520800DFF858C0C0F830C0DFF854C02832C0E911
:105218000DC6FDF71BFD40B11023C4F88C3084F88F
:105228008060C4F88470012012E0236840221A626A
:105238000023226884F8803002F1080353E8003F15
:1052480043F0800302F1080141E800300028F3D15F
:10525800F8BD0220FCE700BF6D520008B5520008F7
:10526800C152000808B50346806A1B681B6813F022
:10527800200317D1A0F85630026802F1080353E85A
:10528800003F23F08003083242E800310268002919
:10529800F2D152E8003F43F0400342E800310029D0
:1052A800F7D108BDFCF7D2FDFBE7704708B5806A67
:1052B800FFF7FBFF08BD7047806A0268D0F88430AA
:1052C80010B5D0F888409268120606D5212B04D173
:1052D8000023A0F85630FFF72AFF03689B685B0697
:1052E80006D5222C04D10023A0F85E30FFF73AFF40
:1052F800D0F88C3043F01003C0F88C30FFF7DBFF98
:1053080010BD08B5806A0023A0F85E30A0F85630BA
:10531800FFF7D1FF08BD70470368DA6919682DE9FE
:10532800F04140F60F0632429D68044610D19606B9
:1053380040F1968001F0200605F080573E4300F0CA
:105348008F80036F002B00F08480BDE8F041184780
:10535800A74EA8482E400840304300F08180D70768
:1053680009D5C80507D501201862D4F88C0040F08B
:105378000100C4F88C00970709D5E80707D5022073
:105388001862D4F88C0040F00400C4F88C00570769
:1053980009D5E80707D504201862D4F88C0040F036
:1053A8000200C4F88C0017070BD501F02000304329
:1053B80007D008201862D4F88C0040F00800C4F820
:1053C8008C0016050AD5480108D54FF4006018620C
:1053D800D4F88C3043F02003C4F88C30D4F88C30E7
:1053E800002B36D093060AD501F0200105F0805530
:1053F80051EA050303D0236F0BB120469847236871
:10540800D4F88C509B6805F0280503F040031D4331
:10541800204620D0FFF7A6FE226893685F0615D5C0
:1054280002F1080353E8003F23F0400302F10800AB
:1054380040E800310029F3D1E06F38B16E4B836347
:10544800FDF77EFC28B1E06F836B7EE72046FFF70F
:1054580032FFBDE8F081FFF72EFFC4F88C50F8E763
:10546800E06E012840F08180D6067ED5C8067CD53E
:1054780010221A629A68510647D5E26F11684A6885
:1054880092B2002AE5D0B4F85C009042E1D9A4F8C1
:105498005E200A6892062ED453E8002F22F4807208
:1054A80043E800210029F7D103F1080252E8002F50
:1054B80022F0010203F1080040E800210029F3D19D
:1054C80003F1080252E8002F22F0400203F108001D
:1054D80040E800210029F3D12022C4F88820E166A1
:1054E80053E8002F22F0100243E800210029F7D1E9
:1054F800E06FFDF7F0FBB4F85E30B4F85C10C91A41
:1055080089B22046FFF707FFA3E7B4F85E108AB216
:10551800B4F85E1089B200299BD0B4F85C10891ADF
:1055280089B2002995D053E8002F22F4907243E8FD
:1055380000200028F7D1314D03F1080252E8002F6E
:105548002A4003F1080646E800200028F4D120226A
:10555800C4F888202067E06653E8002F22F0100284
:1055680043E800200028F7D1CBE7D70209D56E021F
:1055780007D54FF4801220461A62BDE8F04100F0CA
:105588006BBD10060BD501F0800005F4000528431B
:1055980005D0636F002B3FF45CAF2046D5E6570675
:1055A80011D54E060FD553E8002F22F0400243E8EC
:1055B80000210029F7D12023C4F8843061672046F0
:1055C800FCF744FC45E7150206D5480004D52046FB
:1055D800BDE8F04100F042BDD3017FF53AAF0029A4
:1055E800BFF637AF2046BDE8F04100F036BD00BF3A
:1055F80001000010200100040B530008FEFFFFEF1C
:10560800D0F88820222A08B5036845D15B6AB0F82B
:105618006010826D0B401370836D01338365B0F8A1
:105628005E30013B9BB2A0F85E30B0F85E309BB2B2
:1056380073BB026852E8003F23F4907342E80031DC
:1056480003680029F5D103F1080252E8002F22F07F
:10565800010203F1080C4CE800210029F3D12022B3
:10566800C0F88820C26E0167012A12D1C16653E8CA
:10567800002F22F0100243E800210029F7D1DA694F
:10568800B0F85C10D20644BF10221A62FFF743FE3E
:1056980008BDFCF7E9FBFBE79A6942F008029A614A
:1056A800F6E7D0F88820222A08B5036842D1596A5B
:1056B800B0F860201140826D22F8021B8265B0F8B4
:1056C8005E20013A92B2A0F85E20B0F85E2092B255
:1056D80062BB53E8002F22F4907243E800210029AE
:1056E800F7D103F1080252E8002F22F0010203F17A
:1056F800080C4CE800210029F3D12022C0F88820AA
:10570800C26E0167012A12D1C16653E8002F22F048
:10571800100243E800210029F7D1DA69B0F85C10DB
:10572800D20644BF10221A62FFF7F5FD08BDFCF748
:105738009BFBFBE79A6942F008029A61F6E70000D2
:105748002DE9F84F0368DD69D3F800809E68D0F82A
:105758008820222A044640F0A780B0F86070B0F88C
:105768006890DFF850B14FF0000A06F00106B9F171
:10577800000F01D0AB0620D4B4F85E309BB2D3B191
:10578800B4F868209A4216D9226802F1080353E84F
:10579800003F23F08053083242E800312268002994
:1057A800F2D1454B236752E8003F43F0200342E81B
:1057B80000310029F7D1BDE8F88F2368A26D5B6A34
:1057C8003B401370A36D0133A365B4F85E30013B11
:1057D8009BB2A4F85E302368DD6969072AD0EA071E
:1057E8000AD518F4807F07D001221A62D4F88C20D9
:1057F80042F00102C4F88C20A80708D53EB1022265
:105808001A62D4F88C2042F00402C4F88C2069078C
:1058180008D53EB104221A62D4F88C3043F0020352
:10582800C4F88C30D4F88C3023B12046FFF743FD00
:10583800C4F88CA0B4F85E309BB2002B97D12268D4
:1058480052E8003F23F4807342E8003123680029BE
:10585800F5D103F1080252E8002F02EA0B0203F126
:10586800080040E800210029F3D12022C4F888204C
:10587800E26E2167012A13D1E16653E8002F22F076
:10588800100243E800210029F7D1DA69B4F85C1066
:10589800D20644BF10221A622046FFF73CFD66E795
:1058A8002046FCF7E1FA62E79A6942F008029A6139
:1058B80081E700BFFEFFFFEF095600082DE9F84F0A
:1058C8000368DD69D3F800809E68D0F88820222A12
:1058D800044640F0A580B0F86070B0F86890DFF832
:1058E8004CB14FF0000A06F00106B9F1000F01D0E3
:1058F800AB0620D4B4F85E309BB2D3B1B4F86820BC
:105908009A4216D9226802F1080353E8003F23F0AF
:105918008053083242E8003122680029F2D1444B12
:10592800236752E8003F43F0200342E80031002992
:10593800F7D1BDE8F88F2368A26D596A394022F87B
:10594800021BA265B4F85E20013A92B2A4F85E2068
:10595800DD6969072AD0EA070AD518F4807F07D0DD
:1059680001221A62D4F88C2042F00102C4F88C207B
:10597800A80708D53EB102221A62D4F88C2042F05A
:105988000402C4F88C20690708D53EB104221A62C3
:10599800D4F88C3043F00203C4F88C30D4F88C303F
:1059A80023B12046FFF787FCC4F88CA0B4F85E301A
:1059B8009BB2002B99D1226852E8003F23F48073F0
:1059C80042E8003123680029F5D103F1080252E8C2
:1059D800002F02EA0B0203F1080040E80021002929
:1059E800F3D12022C4F88820E26E2167012A13D15E
:1059F800E16653E8002F22F0100243E80021002955
:105A0800F7D1DA69B4F85C10D20644BF10221A62E2
:105A18002046FFF780FC68E72046FCF725FA64E794
:105A28009A6942F008029A6183E700BFFEFFFFEF20
:105A3800AB56000838B5044603682169A2681D689A
:105A4800C0690A4361690A437E49024329400A43FF
:105A58001A605A68E16822F440520A435A607A4A46
:105A6800A16993421CBF226A11439A6822F06E42D0
:105A780022F430620A439A60DA6A616A22F00F02FD
:105A88000A43DA62714A93421CD14FF0B043D3F80B
:105A9800883003F0030343F44033A3F54033013B5C
:105AA800022B00F2C8806A4A9B5CB0F5004F40F0B8
:105AB8008A80082B24D8DFE803F061C1842381237E
:105AC80023236500634A934209D14FF0B043624AE9
